:020000040800F2
:1000000000400020A97E00083D09000847090008BB
:1000100000000000000000000000000000000000E0
:100020000000000000000000000000004D09000872
:1000300000000000000000005709000861090008E6
:10004000F97E0008F97E0008F97E0008F97E0008B4
:10005000F97E0008F97E0008F97E0008F97E0008A4
:10006000F97E0008F97E0008F97E0008F97E000894
:10007000F97E0008F97E0008F97E0008F97E000884
:10008000F97E0008F97E0008F97E0008F97E000874
:10009000F97E0008F97E0008F97E0008F97E000864
:1000A000F97E0008F97E0008F97E0008F97E000854
:1000B000F97E0008F97E0008F97E0008750900083D
:1000C000002934D00123002210B488422CD301240B
:1000D0002407A14204D2814202D209011B01F8E7A0
:1000E000E400A14204D2814202D249005B00F8E759
:1000F000884201D3401A1A434C08A04202D3001B85
:100100005C0822438C08A04202D3001B9C082243B7
:10011000CC08A04202D3001BDC082243002803D0F5
:100120001B0901D00909E3E7101C10BC7047002827
:1001300001D00020C04307B4024802A14018029039
:1001400003BDC046190000000029F0D003B5FFF739
:10015000B9FF0EBC4243891A1847C0467047C046D3
:1001600010B5064C2378002B07D1054B002B02D08D
:10017000044800E000BF0123237010BD700100207F
:1001800000000000587F0008084B10B5002B03D07A
:100190000749084800E000BF07480368002B03D068
:1001A000064B002B00D0984710BDC0460000000051
:1001B00074010020587F000870010020000000003A
:1001C00080B500AF0C490D4B0022180006F0DBFB98
:1001D0000B4A0A4B1100180006F006FC094A074BAF
:1001E0001100180007F0E6FD044B180006F01DFC96
:1001F000C046BD4680BDC0460000002078040020F7
:100200006C0000203400002080B584B000AF78601E
:100210007B681B680E4A934215D10E4B0D4AD2697A
:10022000802109040A43DA610A4BDA6980231B043E
:100230001340FB60FB68002200211F2004F0FCFD3E
:100240001F2004F00FFEC046BD4604B080BDC0466E
:10025000005C00400010024080B582B000AF7860C2
:100260007A6887239B00D2587B68ED33FF331900EF
:10027000100006F02FFCC046BD4602B080BD90B510
:1002800083B000AF78600A00FB1C1A707A6887237D
:100290009B00D458FB1C1A7878688C2359001300F3
:1002A000DB009B1A9B00C3185B181A68FB1C1B78A9
:1002B0001900200006F06AFCC046BD4603B090BDA0
:1002C00080B582B000AF78600A00FB1C1A707A68B3
:1002D00087239B00D058FB1C1A7879681300DB0039
:1002E0009B1A9B00CB1838331A68FB1C1B7819002B
:1002F00006F0B6FCC046BD4602B080BD80B582B0F7
:1003000000AF78607A6887239B00D358180006F006
:10031000B5FDC046BD4602B080BD80B584B000AF1B
:1003200078600F23FB1801221A707B689B68022BF0
:1003300004D10F23FB1801221A7004E00F23FB18CD
:1003400001221A70C0467A6887239B00D2580F2377
:10035000FB181B781900100006F059FD7A688723F6
:100360009B00D358180006F01FFDC046BD4604B0E0
:1003700080BD000080B582B000AF78607A688723C6
:100380009B00D358180006F052FD7B689B69002B38
:1003900005D0054B044A126906210A431A61C0467A
:1003A000BD4602B080BDC04600ED00E080B582B021
:1003B00000AF78607B689B69002B07D0094B094A26
:1003C000126906218A431A6100F09EF97A68872330
:1003D0009B00D358180006F040FDC046BD4602B051
:1003E00080BDC04600ED00E080B582B000AF78600F
:1003F0002E4A87239B007968D1507A6888239B0016
:100400002A49D150294B2A4A1A60284B08225A609F
:10041000264B02229A60254B0022DA60234B0222EF
:100420001A61224B00229A61204B0022DA611F4B95
:1004300000221A621D4B180000F045FD031E01D07A
:1004400000F03EFD7A6888239B00D05818230022D4
:10045000002102F0F5FD7A6888239B00D0585823CC
:100460000022802102F0ECFD7A6888239B00D0589E
:10047000C0230022812102F0E3FD7A6888239B00DB
:10048000D05888235B000022012102F0D9FD7A6850
:1004900088239B00D05880235B000022822102F039
:1004A000CFFD00231800BD4602B080BD9C06002091
:1004B000005C004080B582B000AF78607A68882325
:1004C0009B00D358180000F0EFFD00231800BD4634
:1004D00002B080BD90B583B000AF78600C00100012
:1004E0001900FB1C221C1A70BB1C021C1A703B005A
:1004F0000A1C1A807A6888239B00D058BB1C1C7881
:100500003B001A88FB1C1978230000F03BFF0023F6
:100510001800BD4603B090BD80B582B000AF7860D2
:100520000A00FB1C1A707A6888239B00D258FB1CB7
:100530001B781900100001F09FFA00231800BD4637
:1005400002B080BD80B582B000AF78600A00FB1CAD
:100550001A707A6888239B00D258FB1C1B781900FC
:10056000100001F0EFFF00231800BD4602B080BD6F
:1005700080B582B000AF78600A00FB1C1A707A6800
:1005800088239B00D258FB1C1B781900100002F036
:100590008BF800231800BD4602B080BD80B584B042
:1005A00000AF78600A00FB1C1A707A6888239B00F1
:1005B000D358FB60FB1C1B785BB2002B0DDAFB1CD5
:1005C0001B787F221A40F9682A201300DB009B1A4F
:1005D0009B00CB181B181B780DE0FB1C1B787F229F
:1005E0001A40F868852359001300DB009B1A9B0012
:1005F000C3185B181B781800BD4604B080BD80B5D9
:1006000082B000AF78600A00FB1C1A707A688823F9
:100610009B00D258FB1C1B781900100000F084FED0
:1006200000231800BD4602B080BD90B585B000AF74
:10063000F86008007A6019000B23FB18021C1A707E
:100640000823FB180A1C1A80FA6888239B00D058DC
:100650000823FB181C887A680B23FB1819782300E1
:1006600001F0A4FD00231800BD4605B090BD90B573
:1006700085B000AFF86008007A6019000B23FB1802
:10068000021C1A700823FB180A1C1A80FA688823B7
:100690009B00D0580823FB181C887A680B23FB1892
:1006A0001978230001F0D2FB00231800BD4605B0E5
:1006B00090BD80B582B000AF78600A00FB1C1A7054
:1006C0007A6888239B00D258FB1C1B781900100005
:1006D00001F052FD03001800BD4602B080BD0000CD
:1006E00080B582B000AF7860024B1800BD4602B002
:1006F00080BDC0468C01002080B582B000AF78601C
:10070000C046BD4602B080BD80B500AF00F0B4FA6F
:10071000C046BD4680BD000080B582B000AF02007B
:100720003960FB1D1A703B6812221A80024B1800B8
:10073000BD4602B080BDC0461C00002080B582B01E
:1007400000AF02003960FB1D1A703B6804221A805A
:10075000024B1800BD4602B080BDC04630000020EC
:1007600080B582B000AF02003960FB1D1A70FB1D1E
:100770001B78002B06D13A680849094B180007F08E
:100780003EF805E03A680549054B180007F037F8D0
:10079000024B1800BD4602B080BDC046BC08002018
:1007A000707F000880B582B000AF02003960FB1D89
:1007B0001A703A680449054B180007F020F8024BFC
:1007C0001800BD4602B080BDBC080020887F00082C
:1007D00080B582B000AF02003960FB1D1A70FB1DAE
:1007E0001B78002B06D13A680849094B180007F01E
:1007F00006F805E03A680549054B180006F0FFFFCA
:10080000024B1800BD4602B080BDC046BC080020A7
:100810009C7F000880B582B000AF02003960FB1DEC
:100820001A70FB1D1B78002B06D13A680849094B4A
:10083000180006F0E4FF05E03A680549054B18008A
:1008400006F0DDFF024B1800BD4602B080BDC04679
:10085000BC080020AC7F000880B582B000AF020069
:100860003960FB1D1A70FB1D1B78002B06D13A68FE
:100870000849094B180006F0C2FF05E03A6805492F
:10088000054B180006F0BBFF024B1800BD4602B036
:1008900080BDC046BC080020B87F000880B500AF0E
:1008A0000749084B0022180007F0A0FA064A054B3A
:1008B0001100180007F0B6FA00231800BD4680BDED
:1008C000C00A002078040020BC0A002080B500AFD8
:1008D00000231800BD4680BD80B582B000AF3960EE
:1008E0001100FB1D021C1A703B1D0A1C1A80FB1D07
:1008F0001B78232B04D89A00044BD3181B689F46FF
:10090000C04600231800BD4602B080BDF07F00083D
:1009100080B582B000AF786039607A68064B11000C
:10092000180007F07FFA044B180007F08FFA002335
:100930001800BD4602B080BD7804002080B500AF2D
:10094000C046BD4680BD80B500AFFEE780B500AFB4
:10095000C046BD4680BD80B500AFC046BD4680BD27
:1009600080B500AF03F0F8FF04F0B4FAC046BD460E
:1009700080BD000080B500AF034B180000F0ACFB59
:10098000C046BD4680BDC0469C06002080B582B0F2
:1009900000AF124B114A926901210A439A610F4B31
:1009A0009B69012213407B607B6805235B42002228
:1009B0000021180004F040FA02235B4200220021CB
:1009C000180004F039FA01235B42002200211800CC
:1009D00004F032FAC046BD4602B080BD00100240AD
:1009E00080B588B000AF78607B681B681D4A934271
:1009F00033D10C23FB18C02292001A600C23FB1881
:100A000012225A600C23FB1801229A600C23FB1857
:100A10000322DA600C23FB1801221A610C23FB1855
:100A2000114A1900100003F0C5FF8023DB021800F3
:100A300002F0B4FE80231B03180002F0AFFE0B4B44
:100A40000A4AD269802189030A43DA61074BDA69CD
:100A500080239B031340BB60BB68C046BD4608B003
:100A600080BDC04600540040000400480010024011
:100A700080B588B000AF78607B681B68264A9342D7
:100A800045D1264B254A92698021C9010A439A61C2
:100A9000224B9A698023DB011340BB60BB680C23A7
:100AA000FB18802252001A600C23FB1802225A60A5
:100AB0000C23FB1800229A600C23FB180322DA6037
:100AC0000C23FB1801221A610C23FA189023DB0572
:100AD0001100180003F06EFF0C23FB18C0221A60EF
:100AE0000C23FB1802225A600C23FB1800229A6088
:100AF0000C23FB180322DA600C23FB1800221A6176
:100B00000C23FB18064A1900100003F053FFC046DF
:100B1000BD4608B080BDC04600380140001002400C
:100B20000004004880B500AF214B1B680133214A07
:100B3000134004D5013B10225242134301331A00E3
:100B40001B4B1A601C491D4B0022180004F0AEF824
:100B5000174B1B680122134005D0184B01220121BD
:100B6000180004F0A3F8124B1B680222134005D0B2
:100B7000124B01220221180004F098F80C4B1B685C
:100B80000422134005D00D4B01220421180004F06B
:100B90008DF8074B1B680822134006D08023DB002A
:100BA00006480122190004F081F8C046BD4680BD08
:100BB000E80300200F000080070400000004004844
:100BC00080B582B002AF0D4B1B680133FF221A4083
:100BD0000A4B1A600A4B0B480C22022105F0A7F8B9
:100BE000064B1B68D9B207482323009323231E22F8
:100BF00005F08CFEC046BD4680BDC046EC0300201B
:100C0000C87F0008AC03002080B500AF03F074FE7D
:100C100000F032F800F000F900F0D0F8FFF7D0FA59
:100C200000F094F8012003F0ADFEFFF77BFF0E4AC1
:100C30000E490F4B180005F0F5FAFFF773FFFFF7A9
:100C400071FF0C4A0A4B1100180005F065F9084BBA
:100C5000180005F001FBFFF7B3FF054B180005F086
:100C60000AFB031EF7D1EAE7E54F00085400002015
:100C7000AC0300204C81000880B598B000AF2C2355
:100C8000FB1822221A602C23FB180122DA602C2385
:100C9000FB1801221A622C23FB1810221A612C2344
:100CA000FB1800225A622C23FB18180003F01EF8D0
:100CB000031E01D000F004F91C23FB1807221A6060
:100CC0001C23FB1803225A601C23FB1800229A6085
:100CD0001C23FB180022DA601C23FB1801211800DA
:100CE00003F062FB031E01D000F0EAF83B00164A55
:100CF0001A603B0000229A603B0000221A613B0010
:100D000000229A613B00180003F0F8FC031E01D09A
:100D100000F0D6F803F0D2FC0200FA23990010008C
:100D2000FFF7CEF90300180004F0ACF8042004F03B
:100D3000B7F801235B4200220021180004F07CF880
:100D4000C046BD4618B080BD2100020080B500AF8E
:100D5000174B184A1A60164B174A5A60144B002258
:100D60009A60134B0122DA60114B00221A61104B7A
:100D700000225A610E4B00229A610D4B0022DA616B
:100D80000B4B00221A620A4B180002F0A9F9031E4D
:100D900001D000F095F8064B0021180002F0B2FCDB
:100DA000031E01D000F08CF8C046BD4680BDC04691
:100DB000C40A0020005400400E09002080B500AF96
:100DC000134B144A1A60124B962212025A60104BAF
:100DD000802252059A600E4B0022DA600C4B0022F2
:100DE0001A610B4B0C225A61094B00229A61084B85
:100DF0000022DA61064B00221A62054B180002F04D
:100E0000EBFC031E01D000F05BF8C046BD4680BD80
:100E1000100B00200038014080B588B000AF254B92
:100E2000244A52698021C9030A435A61214B5A69F5
:100E30008023DB031340BB60BB681E4B1D4A526915
:100E40008021C9020A435A611A4B5A698023DB0286
:100E500013407B607B68174B164A526980218902D8
:100E60000A435A61134B5A6980239B0213403B602B
:100E70003B681149114B0022180003F017FF0C23A7
:100E8000FB180D4A1A600C23FB1801225A600C2330
:100E9000FB1800229A600C23FB180022DA600C2356
:100EA000FB18064A1900100003F084FDC046BD4639
:100EB00008B080BD00100240070400000004004894
:100EC00080B500AFFEE790B585B000AF7860002335
:100ED000FB600023BB607B68002B01D10123DEE0B7
:100EE0007A68EA23FF33D35CDBB2002B08D17A683F
:100EF000F4235B000021D1547B681800FFF784F9CC
:100F00007A68EA23FF330321D1540023FB6043E0D6
:100F10007968FA6829201300DB009B1A9B00CB1824
:100F20001B1801221A70FB68DCB27968FA68282065
:100F30001300DB009B1A9B00CB181B18221C1A7095
:100F40007968FA682B201300DB009B1A9B00CB18F2
:100F50001B1800221A707968FA681300DB009B1ACC
:100F60009B00CB18343300221A607968FA681300AA
:100F7000DB009B1A9B00CB18383300221A6079687B
:100F8000FA681300DB009B1A9B00CB183C3300224D
:100F90001A60FB680133FB607B685A68FB689A4201
:100FA000B6D80023FB604EE07868FA680A23FF3366
:100FB00019001300DB009B1A9B00C3185B1800226A
:100FC0001A70FB68DCB27868FA6884235900130051
:100FD000DB009B1A9B00C3185B18221C1A707868F0
:100FE000FA680C23FF3319001300DB009B1A9B00E7
:100FF000C3185B1800221A707868FA688A235900AF
:101000001300DB009B1A9B00C3185B1800221A60B8
:101010007868FA688C2359001300DB009B1A9B0048
:10102000C3185B1800221A607868FA688E2359008A
:101030001300DB009B1A9B00C3185B1800221A6088
:10104000FB680133FB607B685A68FB689A42ABD847
:101050007B681B684022012199527B681B684022F3
:10106000002199527B681B684422002199527B68B9
:101070001B68502200219952BF231B02BB607B6872
:101080001B68BA6891B2402299527B6824220021E1
:1010900099547A68EA23FF330121D15400231800C0
:1010A000BD4605B090BD000080B582B000AF78604D
:1010B0007B681A687B681B6858215B5A9BB205499C
:1010C0000B4399B25823D15200231800BD4602B0F9
:1010D00080BDC0460080FFFF80B584B000AF78605F
:1010E0000023FB607B681B6844229B5A9BB21A005A
:1010F00080231B021A4080231B029A4203D17B6883
:10110000180001F025FC7B681B6844229B5A9BB2A7
:101110001A008023DB001A408023DB009A4214D19E
:101120007B681A687B681B6844215B5A9BB27749CD
:101130000B4099B24423D1527B681800FFF7EDF8B9
:101140007B680021180000F0EFF87B681B684422E0
:101150009B5A9BB21A008023DB011A408023DB01DB
:101160009A420BD17B681A687B681B6844215B5AE2
:101170009BB267490B4099B24423D1527B681B68EC
:1011800044229B5A9BB21A0080239B011A40802361
:101190009B019A420BD17B681A687B681B684421CB
:1011A0005B5A9BB25B490B4099B24423D1527B6896
:1011B0001B6844229B5A9BB21A0080235B011A4091
:1011C00080235B019A4224D17B681A687B681B6884
:1011D00040215B5A9BB204218B4399B24023D152E8
:1011E000BD231B02FB607B681B68FA6891B240223A
:1011F00099527B681800FFF7D9F87B681A687B68FA
:101200001B6844215B5A9BB243490B4099B244236B
:10121000D1527B681B6844229B5A9BB21A008023E0
:101220001B011A4080231B019A4234D17B681A6843
:101230007B681B6844215B5A9BB238490B4099B2CA
:101240004423D1527B681A687B681B6840215B5A33
:101250009BB208210B4399B24023D1527B681A6894
:101260007B681B6840215B5A9BB204210B4399B2F7
:101270004023D1527B681B6844229B5A9BB21A00C0
:1012800080235B011A4080235B019A4203D07B6874
:101290001800FFF76FF87B681B6844229B5A9BB2CB
:1012A0001A0080239B001A4080239B009A420FD192
:1012B0007B681A687B681B6844215B5A9BB218499B
:1012C0000B4099B24423D1527B681800FFF716F8FF
:1012D0007B681B6844229B5A9BB21A0080235B00E8
:1012E0001A4080235B009A420BD17B681A687B68A6
:1012F0001B6844215B5A9BB20A490B4099B24423B4
:10130000D152C046BD4604B080BDC046FFFBFFFFC2
:10131000FFBFFFFFFFDFFFFFFFEFFFFFFFF7FFFF55
:10132000FFFDFFFFFFFEFFFF80B582B000AF7860DA
:101330000A00FB1C1A707A68F4235B00D35C012B53
:1013400001D1022319E07A68F4235B000121D15412
:10135000FB1C1B78002B05D17B681B684C2280216D
:10136000995204E07B68FA1C242112785A547A6856
:10137000F4235B000021D15400231800BD4602B0C5
:1013800080BD000090B587B000AF78600C00100001
:101390001900FB1C221C1A703B00021C1A80BB1C8B
:1013A0000A1C1A701123FB1800221A70FB1C1B78F0
:1013B0005BB2002B0CDAFB1C1B787F221A40130057
:1013C000DB009B1A9B0028337A68D3187B610CE002
:1013D000FB1C1B787F221A401300DB009B1A9B002A
:1013E0000933FF337A68D3187B61FB1C1B787F229B
:1013F0001340DAB27B691A70FB1C1B785BB2DBB25C
:10140000DB09DBB21A007B695A703B001A887B69E2
:10141000DA607B69BA1C1278DA707A68F4235B00B0
:10142000D35C012B01D102230FE37A68F4235B0024
:101430000121D1547B69DB78012B4CD002DC002BDD
:1014400005D060E0022B1AD0032B2CD05BE07B6828
:101450001B681A007B691B789B00D2187B681B688D
:1014600019007B691B789B00CB181B88B6490B4081
:101470009BB2802189000B439BB2138043E07B68C1
:101480001B681A007B691B789B00D2187B681B685D
:1014900019007B691B789B00CB181B88AA490B405D
:1014A0009BB213802FE07B681B681A007B691B7856
:1014B0009B00D2187B681B6819007B691B789B0016
:1014C000CB181B88A0490B409BB2C021C9000B431D
:1014D0009BB2138017E07B681B681A007B691B783E
:1014E0009B00D2187B681B6819007B691B789B00E6
:1014F000CB181B8894490B409BB28021C9000B4339
:101500009BB21380C0467B681B681A007B691B78FE
:101510009B00D2187B681B6819007B691B789B00B5
:10152000CB181B8889490B4099B27B691B789BB209
:101530000B439BB286490B439BB213807B699B7A1A
:10154000002B00D014E17B695B78002B55D07B68C1
:101550001B6850229B5A9BB21A007B691B78DB00E8
:10156000D3181A007B681B68D3188022D2009446D7
:1015700063441A007B699B885B089BB2DB189BB2B3
:1015800013807B681B681A007B691B789B00D3184B
:101590001B881A004023134015D07B681B681A0073
:1015A0007B691B789B00D2187B681B6819007B69DC
:1015B0001B789B00CB181B8864490B409BB2654984
:1015C0000B439BB213807B681B681A007B691B78F6
:1015D0009B00D3181B88604A13409CB220236340B1
:1015E0009CB27B681B681A007B691B789B00D31830
:1015F000574A224392B21A801FE27B681B6850222E
:101600009B5A9BB21A007B691B78DB00D3181A0027
:101610007B681B68D318514A944663441A007B695F
:101620009B885B089BB2DB189BB213807B681B68AE
:1016300050229B5A9BB21A007B691B78DB00D3189F
:101640001A007B681B68D318454A94466344FB60C4
:101650007B69DB683E2B1CD97B69DB685A09122346
:10166000FB181A807B69DB681F22134006D1122306
:10167000FB181A881223FB18013A1A801223FB1850
:101680001B889B029BB2374A13439AB2FB681A80AD
:1016900018E07B69DB685A081223FB181A807B6903
:1016A000DB680122134006D01223FB181A8812238C
:1016B000FB1801321A801223FB181B889B029AB276
:1016C000FB681A807B681B681A007B691B789B008B
:1016D000D3181B881A008023DB01134015D07B68C8
:1016E0001B681A007B691B789B00D2187B681B68FB
:1016F00019007B691B789B00CB181B8813490B4092
:101700009BB219490B439BB213807B681B681A007C
:101710007B691B789B00D3181B88144A13409CB22A
:1017200080235B0163409CB280239B0163409CB299
:101730007B681B681A007B691B789B00D318044ADE
:10174000224392B21A8078E18F89FFFF0F0F0000C9
:101750008080FFFFC080FFFFBF8FFFFF04040000F9
:10176000060400000080FFFF80C0FFFF8FBFFFFF67
:101770007B681B681A007B691B789B00D2187B680A
:101780001B6819007B691B789B00CB181B88B1492B
:101790000B409BB2B0490B439BB213807B681B6824
:1017A00050229B5A9BB21A007B691B78DB00D3182E
:1017B0001A007B681B68D3188022D20094466344C9
:1017C0001A007B69DB885B089BB2DB189BB2138035
:1017D0007B681B6850229B5A9BB21A007B691B785E
:1017E000DB00D3181A007B681B68D3189B4A944609
:1017F00063441A007B691B895B089BB2DB189BB2B0
:1018000013807B695B78002B00D08FE07B681B68BE
:101810001A007B691B789B00D3181B881A00802351
:10182000DB01134015D07B681B681A007B691B78AD
:101830009B00D2187B681B6819007B691B789B0092
:10184000CB181B8886490B409BB286490B439BB241
:1018500013807B681B681A007B691B789B00D31878
:101860001B881A004023134015D07B681B681A00A0
:101870007B691B789B00D2187B681B6819007B6909
:101880001B789B00CB181B8875490B409BB276498F
:101890000B439BB213807B681B681A007B691B7823
:1018A0009B00D2187B681B6819007B691B789B0022
:1018B000CB181B886A490B409BB26B490B439BB208
:1018C00013807B681B681A007B691B789B00D31808
:1018D0001B88664A13409CB280235B0163409CB224
:1018E00080239B0163409CB27B681B681A007B6964
:1018F0001B789B00D3185E4A224392B21A807B6801
:101900001B681A007B691B789B00D3181B88594AF7
:1019100013409CB27B681B681A007B691B789B0094
:10192000D318534A224392B21A8086E07B681B6820
:101930001A007B691B789B00D3181B881A00802330
:10194000DB01134015D07B681B681A007B691B788C
:101950009B00D2187B681B6819007B691B789B0071
:10196000CB181B883E490B409BB23E490B439BB2B0
:1019700013807B681B681A007B691B789B00D31857
:101980001B881A004023134015D07B681B681A007F
:101990007B691B789B00D2187B681B6819007B69E8
:1019A0001B789B00CB181B882D490B409BB22E49FE
:1019B0000B439BB213807B681B681A007B691B7802
:1019C0009B00D2187B681B6819007B691B789B0001
:1019D000CB181B8822490B409BB222490B439BB278
:1019E00013807B681B681A007B691B789B00D318E7
:1019F0001B88204A13409CB27B681B681A007B69D5
:101A00001B789B00D3181A4A224392B21A807B6833
:101A10001B681A007B691B789B00D3181B88134A2C
:101A200013409CB27B681B681A007B691B789B0083
:101A3000D3180F4A224392B21A807A68F4235B00CB
:101A40000021D1541123FB181B781800BD4607B0A4
:101A500090BDC0460F0E00008081FFFF040400000F
:101A60000F0F000080C0FFFFC080FFFF8FBFFFFF90
:101A70008080FFFFBF8FFFFF90B585B000AF78601B
:101A80000A00FB1C1A70FB1C1B785BB2002B0CDAE3
:101A9000FB1C1B787F221A401300DB009B1A9B0063
:101AA00028337A68D318FB600CE0FB1C1B787F227C
:101AB0001A401300DB009B1A9B000933FF337A683E
:101AC000D318FB60FB1C1B787F221340DAB2FB6843
:101AD0001A70FB1C1B785BB2DBB2DB09DBB21A00AD
:101AE000FB685A707A68F4235B00D35C012B01D148
:101AF00002239AE17A68F4235B000121D154FB6848
:101B00009B7A002B00D076E0FB685B78002B38D006
:101B10007B681B681A00FB681B789B00D3181B8826
:101B20001A004023134015D07B681B681A00FB681D
:101B30001B789B00D2187B681B681900FB681B7818
:101B40009B00CB181B88BB490B409BB2BA490B4387
:101B50009BB213807B681B681A00FB681B789B0094
:101B6000D3181B88B54A13409CB27B681B681A00C7
:101B7000FB681B789B00D318B14A224392B21A80AB
:101B80004DE17B681B681A00FB681B789B00D3182B
:101B90001B881A008023DB01134015D07B681B686B
:101BA0001A00FB681B789B00D2187B681B68190021
:101BB000FB681B789B00CB181B889E490B409BB28F
:101BC000A0490B439BB213807B681B681A00FB681B
:101BD0001B789B00D3181B889B4A13409CB27B68E0
:101BE0001B681A00FB681B789B00D318944A224399
:101BF00092B21A8013E1FB685B78002B00D087E07B
:101C00007B681B681A00FB681B789B00D3181B8835
:101C10001A008023DB01134015D07B681B681A0073
:101C2000FB681B789B00D2187B681B681900FB6857
:101C30001B789B00CB181B887E490B409BB28149C7
:101C40000B439BB213807B681B681A00FB681B78F0
:101C50009B00D3181B881A004023134015D07B68C3
:101C60001B681A00FB681B789B00D2187B681B68F6
:101C70001900FB681B789B00CB181B886D490B4033
:101C80009BB26D490B439BB213807B681B681A00A3
:101C9000FB681B789B00D2187B681B681900FB68E7
:101CA0001B789B00CB181B8862490B409BB2624992
:101CB0000B439BB213807B681B681A00FB681B7880
:101CC0009B00D3181B88604A13409CB27B681B683A
:101CD0001A00FB681B789B00D318594A224392B222
:101CE0001A807B681B681A00FB681B789B00D3185E
:101CF0001B88524A13409CB27B681B681A00FB6821
:101D00001B789B00D3184E4A224392B21A8086E079
:101D10007B681B681A00FB681B789B00D3181B8824
:101D20001A008023DB01134015D07B681B681A0062
:101D3000FB681B789B00D2187B681B681900FB6846
:101D40001B789B00CB181B883A490B409BB23D493E
:101D50000B439BB213807B681B681A00FB681B78DF
:101D60009B00D3181B881A004023134015D07B68B2
:101D70001B681A00FB681B789B00D2187B681B68E5
:101D80001900FB681B789B00CB181B8829490B4066
:101D90009BB229490B439BB213807B681B681A00D6
:101DA000FB681B789B00D2187B681B681900FB68D6
:101DB0001B789B00CB181B881E490B409BB2214906
:101DC0000B439BB213807B681B681A00FB681B786F
:101DD0009B00D3181B88194A13409CB27B681B6870
:101DE0001A00FB681B789B00D318154A224392B255
:101DF0001A807B681B681A00FB681B789B00D3184D
:101E00001B88114A13409CB27B681B681A00FB6850
:101E10001B789B00D3180A4A224392B21A807A6830
:101E2000F4235B000021D15400231800BD4605B007
:101E300090BDC0460F0F0000C080FFFFBF8FFFFFA7
:101E40008080FFFF80C0FFFF8FBFFFFF90B58BB08A
:101E500000AFF8607A603B600B23FB180A1C1A7015
:101E60000B23FB181B787F221A401300DB009B1A00
:101E70009B000933FF33FA68D318FB61FB697A686A
:101E80001A61FB693A685A61FB6900229A61FB6931
:101E900000225A700B23FB181B787F221340DAB202
:101EA000FB691A70FA68F4235B00D35C012B01D143
:101EB000022352E1FA68F4235B000121D154FB694B
:101EC0005A69FB69DB689A4209D9FB69DB683B60A8
:101ED000FB695A693B68D21AFB695A6105E0FB69E4
:101EE0005B693B60FB6900225A61FB699B7A002BAE
:101EF00047D1FB681B6850229B5A9BB21A00FB69B2
:101F00001B78DB00D3181A00FB681B68D318954AAE
:101F100094466344BB613B683E2B1AD93B685A091F
:101F20002623FB181A803B681F22134006D1262364
:101F3000FB181A882623FB18013A1A802623FB185F
:101F40001B889B029BB2884A13439AB2BB691A80D2
:101F5000DFE03B685A082623FB181A803B68012201
:101F6000134006D02623FB181A882623FB180132BB
:101F70001A802623FB181B889B029AB2BB691A8021
:101F8000C7E0FB695B78002B47D1FB681B685022D8
:101F90009B5A9BB21A00FB691B78DB00D3181A000E
:101FA000FB681B68D318714A944663447B613B68A5
:101FB0003E2B1AD93B685A092423FB181A803B6828
:101FC0001F22134006D12423FB181A882423FB1850
:101FD000013A1A802423FB181B889B029BB2624A99
:101FE00013439AB27B691A802FE03B685A08242376
:101FF000FB181A803B680122134006D02423FB18EB
:102000001A882423FB1801321A802423FB181B880A
:102010009B029AB27B691A8017E0FB695B78012BFF
:1020200013D1FB681B6850229B5A9BB21A00FB69B4
:102030001B78DB00D3181A00FB681B68D3184B4AC7
:10204000944663443A6892B21A80FB695B78002B2D
:1020500047D1FB681B6850229B5A9BB21A00FB6950
:102060001B78DB00D3181A00FB681B68D3183D4AA5
:10207000944663443B613B683E2B1AD93B685A093E
:102080002223FB181A803B681F22134006D122230B
:10209000FB181A882223FB18013A1A802223FB1806
:1020A0001B889B029BB2304A13439AB23B691A8049
:1020B0002FE03B685A082223FB181A803B68012254
:1020C000134006D02223FB181A882223FB18013262
:1020D0001A802223FB181B889B029AB23B691A8044
:1020E00017E0FB695B78012B13D1FB681B6850225A
:1020F0009B5A9BB21A00FB691B78DB00D3181A00AD
:10210000FB681B68D318194A944663443A6892B234
:102110001A80FB681B681A00FB691B789B00D318A8
:102120001B88134A13409CB280235B0163409CB21E
:1021300080239B0163409CB2FB681B681A00FB690B
:102140001B789B00D3180B4A224392B21A80FA687C
:10215000F4235B000021D15400231800BD460BB0CE
:1021600090BDC046060400000080FFFF020400008E
:102170008FBFFFFF8080FFFF80B582B000AF786027
:102180000A00FB1C1A70FB1C1B787F221A4078681F
:10219000902359001300DB009B1A9B00C3185B18A7
:1021A0001B689BB21800BD4602B080BD90B58BB0D5
:1021B00000AFF8607A603B600B23FB180A1C1A70B2
:1021C0002623FB1800221A800B23FB181B787F2282
:1021D0001A401300DB009B1A9B002833FA68D318BF
:1021E000FB61FB697A681A61FB693A685A61FB69AD
:1021F00000229A61FB6901225A700B23FB181B789D
:102200007F221340DAB2FB691A70FA68F4235B008C
:10221000D35C012B01D102237FE1FA68F4235B0038
:102220000121D154FB695A69FB69DB689A4209D9DB
:10223000FB69DB683B60FB695A693B68D21AFB6942
:102240005A6105E0FB695B693B60FB6900225A61EA
:10225000FB699B7A002B1ED1FB681868FB69196922
:10226000FB699A883B689BB200F0FCFAFB681B682C
:1022700050229B5A9BB21A00FB691B78DB00D318D3
:102280001A00FB681B68D318A64A944663443A6850
:1022900092B21A801FE1FB681B681A00FB691B7869
:1022A0009B00D3181B881A004023134069D0FB6998
:1022B0005B78002B47D1FB681B6850229B5A9BB26E
:1022C0001A00FB691B78DB00D3181A00FB681B6837
:1022D000D318954A94466344BB613B683E2B1AD998
:1022E0003B685A092423FB181A803B681F221340BD
:1022F00006D12423FB181A882423FB18013A1A80DC
:102300002423FB181B889B029BB2884A13439AB272
:10231000BB691A802FE03B685A082423FB181A80F7
:102320003B680122134006D02423FB181A8824237B
:10233000FB1801321A802423FB181B889B029AB2D7
:10234000BB691A8017E0FB695B78012B13D1FB682E
:102350001B6850229B5A9BB21A00FB691B78DB005A
:10236000D3181A00FB681B68D3186E4A944663445E
:102370003A6892B21A802623FB18FA6912891A80E9
:1023800068E0FB695B78002B47D1FB681B68502233
:102390009B5A9BB21A00FB691B78DB00D3181A000A
:1023A000FB681B68D3185F4A944663447B613B68B3
:1023B0003E2B1AD93B685A092223FB181A803B6826
:1023C0001F22134006D12223FB181A882223FB1850
:1023D000013A1A802223FB181B889B029BB2534AA6
:1023E00013439AB27B691A802FE03B685A08222374
:1023F000FB181A803B680122134006D02223FB18E9
:102400001A882223FB1801321A802223FB181B880A
:102410009B029AB27B691A8017E0FB695B78012BFB
:1024200013D1FB681B6850229B5A9BB21A00FB69B0
:102430001B78DB00D3181A00FB681B68D318394AD5
:10244000944663443A6892B21A802623FB18FA69CC
:10245000D2881A80FB681868FB6919693B689CB2CE
:102460002623FB181A88230000F0FCF9FB695B782F
:10247000002B16D1FB681B681A00FB691B789B00B8
:10248000D218FB681B681900FB691B789B00CB18EE
:102490001B8827490B409BB226490B439BB21380F4
:1024A00019E0FB695B78012B15D1FB681B681A00EA
:1024B000FB691B789B00D218FB681B681900FB693D
:1024C0001B789B00CB181B8819490B409BB21A49FB
:1024D0000B439BB21380FB681B681A00FB691B78D7
:1024E0009B00D3181B88154A13409CB210236340ED
:1024F0009CB2202363409CB2FB681B681A00FB69F6
:102500001B789B00D3180E4A224392B21A80FA68B5
:10251000F4235B000021D15400231800BD460BB00A
:1025200090BDC04602040000060400000080FFFFCA
:102530000F0F0000C080FFFF80C0FFFFBF8FFFFFB5
:102540008080FFFF90B585B000AF78600A00FB1C6B
:102550001A707A68F4235B00D35C012B01D102234B
:1025600096E07A68F4235B000121D154FB1C1B78B0
:102570005BB2002B0CDAFB1C1B787F221A40130085
:10258000DB009B1A9B0028337A68D318FB600AE0B3
:10259000FB1C1A781300DB009B1A9B000933FF33E6
:1025A0007A68D318FB60FB6801229A70FB1C1B78C9
:1025B0007F221340DAB2FB681A70FB1C1B785BB2F7
:1025C000DBB2DB09DBB21A00FB685A70FB681B78D0
:1025D000002B1FD17B681B681A00FB681B789B00CF
:1025E000D3181B881A002C4B1A40140080235B015F
:1025F00063401C00102363401C007B681B681A00AA
:10260000FB681B789B00D318A2B224490A4392B2FC
:102610001A8037E0FB685B78002B19D07B681B6859
:102620001A00FB681B789B00D3181B881C4A1340B8
:102630009CB2102363409CB27B681B681A00FB6845
:102640001B789B00D318154A224392B21A8019E0D6
:102650007B681B681A00FB681B789B00D3181B88DB
:10266000104A13409CB280235B0163409CB27B689C
:102670001B681A00FB681B789B00D318074A22438B
:1026800092B21A807A68F4235B000021D1540023AF
:102690001800BD4605B090BDBFBF00008080FFFFA1
:1026A000BF8FFFFF8FBFFFFF90B585B000AF786091
:1026B0000A00FB1C1A70FB1C1B785BB2002B0CDAA7
:1026C000FB1C1B787F221A401300DB009B1A9B0027
:1026D00028337A68D318FB600AE0FB1C1A781300D1
:1026E000DB009B1A9B000933FF337A68D318FB6029
:1026F000FB6800229A70FB1C1B787F221340DAB221
:10270000FB681A70FB1C1B785BB2DBB2DB09DBB227
:102710001A00FB685A707A68F4235B00D35C012BC3
:1027200001D102238EE07A68F4235B000121D154A9
:10273000FB685B78002B3ED07B681B681A00FB6847
:102740001B789B00D3181B881A004023134015D018
:102750007B681B681A00FB681B789B00D2187B689B
:102760001B681900FB681B789B00CB181B88374936
:102770000B409BB236490B439BB213807B681B68AE
:102780001A00FB681B789B00D3181B88314A134042
:102790009CB2102363409CB2202363409CB27B68B0
:1027A0001B681A00FB681B789B00D3182A4A224337
:1027B00092B21A8040E07B681B681A00FB681B78A5
:1027C0009B00D3181B881A008023DB01134015D00F
:1027D0007B681B681A00FB681B789B00D2187B681B
:1027E0001B681900FB681B789B00CB181B881749D6
:1027F0000B409BB219490B439BB213807B681B684B
:102800001A00FB681B789B00D3181B88144A1340DE
:102810009CB280235B0163409CB280239B01634098
:102820009CB27B681B681A00FB681B789B00D3185E
:10283000094A224392B21A807A68F4235B0000218D
:10284000D15400231800BD4605B090BD0F0F000005
:10285000C080FFFFBF8FFFFF8080FFFF80C0FFFFB2
:102860008FBFFFFF80B588B000AFF860B960190076
:10287000BB1D1A803B1D0A1C1A803B1D1B8801339F
:102880005B087B61BB1D1A88FB68D3188022D200CD
:1028900094466344BB617B69FB6120E0BB681A78A6
:1028A0001223FB181A80BB680133BB60BB681B781E
:1028B0009BB21B0299B21023FB181222BA1812887D
:1028C0000A431A80BB699A1CBA611022BA1812888E
:1028D0001A80BB680133BB60FB69013BFB61FB698C
:1028E000002BDBD1C046BD4608B080BD80B588B0A6
:1028F00000AFF860B9601900BB1D1A803B1D0A1CAF
:102900001A803B1D1B8801335B087B61BB1D1A8845
:10291000FB68D3188022D20094466344BB617B6974
:10292000FB610DE0BB685A1CBA60BA69911CB961C1
:1029300012881A80BB680133BB60FB69013BFB61F5
:10294000FB69002BEED1C046BD4608B080BD00003B
:1029500090B589B000AF78601E23FB1800221A8062
:102960000C23FB1800221A804BE30E23FB181B8854
:102970009BB2DAB21B23FB180F210A401A701B23EB
:10298000FB181B78002B00D039E10E23FB181B88A5
:102990009BB21A00102313404CD17B681B681900AE
:1029A0007B681B681B88C74A13409BB20B807B68FF
:1029B00028337B617B681B6850229B5A9BB21A00AC
:1029C0007B691B78DB00D3181A007B681B68D3185F
:1029D000BD4A944663441B889B059A0D7B699A61A6
:1029E0007B691A697B699B69D2187B691A617B686C
:1029F00000211800FDF764FC7B6824229B5CDBB29D
:102A0000002B00D1FDE27B695B69002B00D0F8E26E
:102A10007B681B687A682421525CD2B280214942CB
:102A20000A43D2B291B24C2299527B6824220021EF
:102A30009954E6E27B680933FF337B617B681B684E
:102A40001A880C23FB181A800C23FB181B889BB2D6
:102A50001A0080231B01134031D07B681B68502271
:102A60009B5A9BB21A007B691B78DB00D3181A00B3
:102A70007B681B68D318954A944663441B889B0562
:102A80009A0D7B699A617B6818687B68ED33FF3328
:102A900019007B699A887B699B699BB2FFF726FFC7
:102AA0007B681B6819007B681B681B88884A134079
:102AB0009BB20B807B681800FDF7CEFBA1E20C23D4
:102AC000FB181B889BB21BB2002B00DB99E27B68D2
:102AD0001B6819007B681B681B887D4A13409BB2EA
:102AE0000B807B681B6850229B5A9BB21A007B6943
:102AF0001B78DB00D3181A007B681B68D318734A55
:102B0000944663441B889B059A0D7B699A617B6997
:102B10009B69002B11D07B6818687B6919697B69F8
:102B20009A887B699B699BB2FFF7E0FE7B691A6913
:102B30007B699B69D2187B691A617B680021180048
:102B4000FDF79DFB7B681B6850229B5A9BB21A00C5
:102B50007B681B68D3185D4A944663443B617B697C
:102B6000DB683E2B1CD97B69DB685A091C23FB18E8
:102B70001A807B69DB681F22134006D11C23FB18D7
:102B80001A881C23FB18013A1A801C23FB181B8887
:102B90009B029BB24F4A13439AB23B691A8018E0DA
:102BA0007B69DB685A081C23FB181A807B69DB6889
:102BB0000122134006D01C23FB181A881C23FB1883
:102BC00001321A801C23FB181B889B029AB23B69B6
:102BD0001A807B681B681B883F4A13409CB2802385
:102BE0005B0163409CB280239B0163409CB27B6885
:102BF0001B681A00394B23439BB2138001E27B68A8
:102C00001B681A001B23FB181B789B00D3181A881B
:102C10000C23FB181A800C23FB181B889BB21BB2D9
:102C2000002B00DBFAE07B681B681A001B23FB18F3
:102C30001B789B00D2187B681B6819001B23FB18AC
:102C40001B789B00CB181B8821490B409BB213803B
:102C50001B23FB181A781300DB009B1A9B00093317
:102C6000FF337A68D3187B617B699B7A002B37D15D
:102C70007B681B6850229B5A9BB21A007B691B78A9
:102C8000DB00D3181A007B681B68D3180F4A9446E0
:102C900063441A881E23FB189205920D1A801E2386
:102CA000FB181B88002B00D18CE07B6818687B69BF
:102CB00019697B699A881E23FB181B88FFF716FE8B
:102CC00080E0C0460F8FFFFF0204000006040000F2
:102CD0008F0F00000080FFFF8FBFFFFF8080FFFF8E
:102CE0007B681B681A007B691B789B00D3181B88C4
:102CF0001A008023DB01134027D07B681B68502219
:102D00009B5A9BB21A007B691B78DB00D3181A0010
:102D10007B681B68D318C44A944663441A881E23F0
:102D2000FB189205920D1A801E23FB181B88002B9E
:102D300032D07B6818687B6919697B69DA881E2341
:102D4000FB181B88FFF7D2FD26E07B681B6850222A
:102D50009B5A9BB21A007B691B78DB00D3181A00C0
:102D60007B681B68D318B14A944663441A881E23B3
:102D7000FB189205920D1A801E23FB181B88002B4E
:102D80000AD07B6818687B6919697B691A891E23D8
:102D9000FB181B88FFF7AAFD7B681B681A007B697C
:102DA0001B789B00D2187B681B6819007B691B7815
:102DB0009B00CB181B889E490B409BB29D490B433F
:102DC0009BB213807B699A691E23FB181B88D2185B
:102DD0007B699A617B691A691E23FB181B88D218CC
:102DE0007B691A617B695B69002B06D01E23FB1887
:102DF0001A887B69DB689A4207D27B691A787B68FC
:102E000011001800FDF73BFA08E07B6919787B692F
:102E10001A697B695B697868FFF718F80C23FB185F
:102E20001B889BB21A008023134000D1E9E01B23CA
:102E3000FB181A781300DB009B1A9B0028337A6872
:102E4000D3187B617B681B681A001B23FB181B7857
:102E50009B00D2187B681B6819001B23FB181B788A
:102E60009B00CB181B8874490B409BB213807B6975
:102E70009B7A002B26D17B681B6850229B5A9BB201
:102E80001A007B691B78DB00D3181A007B681B686B
:102E9000D318654A944663441B889B059A0D7B6949
:102EA0009A617B699B69002B00D178E07B68186888
:102EB0007B6919697B699A887B699B699BB2FFF77B
:102EC000D1FC6CE07B681B681A007B691B789B0057
:102ED000D3181B881A004023134025D07B681B6839
:102EE00050229B5A9BB21A007B691B78DB00D318D7
:102EF0001A007B681B68D3184B4A944663441B88AE
:102F00009B059A0D7B699A617B699B69002B30D088
:102F10007B6818687B6919697B69DA887B699B69BA
:102F20009BB2FFF79FFC24E07B681B6850229B5AF2
:102F30009BB21A007B691B78DB00D3181A007B68F0
:102F40001B68D318394A944663441B889B059A0D25
:102F50007B699A617B699B69002B0AD07B68186842
:102F60007B6919697B691A897B699B699BB2FFF749
:102F700079FC7B681B681A007B691B789B00D21860
:102F80007B681B6819007B691B789B00CB181B882A
:102F900027490B409BB229490B439BB213807B68A6
:102FA0001B6850229B5A9BB21A007B691B78DB007E
:102FB000D3181A007B681B68D3181B4A94466344D5
:102FC0001B889B059A0D7B699A617B691A697B69ED
:102FD0009B69D2187B691A617B695B69002B07D1F9
:102FE0007B691A787B6811001800FDF769F908E021
:102FF0007B6919787B691A697B695B697868FFF777
:10300000D5F87B681B6844229B5A9AB20E23FB18A2
:10301000111C198013B2002B00DAA6E4002318005B
:10302000BD4609B090BDC046020400000604000081
:103030000F0F0000C080FFFF0F8FFFFF80C0FFFF5A
:1030400080B586B000AFF860080011007B600A23ED
:10305000FB18021C1A800823FB180A1C1A800A237A
:10306000FB181B88802213409BB2002B0DD00A2333
:10307000FB181B887F221A401300DB009B1A9B0061
:103080002833FA68D3187B610BE00A23FB181A88EF
:103090001300DB009B1A9B000933FF33FA68D31837
:1030A0007B610823FB181B88002B07D17B6900225A
:1030B0009A727B689AB27B699A800BE07B690122E5
:1030C0009A727B689AB27B69DA807B681B0C9AB231
:1030D0007B691A8100231800BD4606B080BD000040
:1030E00080B582B000AF78607B68002B01D10123EE
:1030F0007DE07B6841229B5CDBB2002B07D17B68C3
:103100004022002199547B681800FDF769FC7B6818
:103110004122242199547B681B687A6812681268DE
:1031200001218A431A607B681B687A6852683249B9
:103130000A401A617B681B687A68126892682F4996
:103140000A409A607B689B68002B14D07B68DB6820
:10315000012B08D17B681B687A689268802109027C
:103160000A439A6007E07B681B687A68926884214A
:1031700009020A439A607B68DB68022B04D17B68F2
:103180001B68802212015A607B681B687A6812688B
:1031900052681B490A435A607B681B687A68116948
:1031A0007A68526911437A68926912020A43DA60B6
:1031B0007B681B687A68D1697A68126A0A431A6068
:1031C0007B681B687A681268126801210A431A60DA
:1031D0007B6800225A647B684122202199547B68D5
:1031E00000221A637B6842220021995400231800B0
:1031F000BD4602B080BDC046FFFFFFF0FF7FFFFF6E
:103200000080000290B589B002AFF86008007A60D3
:1032100019000A23FB18021C1A800823FB180A1C39
:103220001A8000237B61FB6841229B5CDBB2202B70
:1032300000D0F3E0FB6840229B5C012B01D102230C
:10324000EDE0FB6840220121995401F091FB03005D
:103250007B6180231902F8687B690093192301229E
:1032600000F006F9031E01D00323D8E0FB684122D9
:1032700021219954FB68422210219954FB680022B5
:103280005A64FB687A685A62FB680822BA18128886
:103290005A85FB6800225A63FB685B8D9BB2FF2B4B
:1032A00012D9FB68FF221A85FB681B8DDAB28023D6
:1032B0005C040A23FB181988F86880239B0100939B
:1032C000230000F0E7F97AE0FB685B8D9AB2FB68B7
:1032D0001A85FB681B8DDAB280239C040A23FB1835
:1032E0001988F86880239B010093230000F0D2F92D
:1032F00065E07A69B96AFB68180000F0F2F8031E0D
:1033000007D0FB685B6C042B01D1012387E003230A
:1033100085E0FB681B68FA68526A501CF9684862CD
:1033200012789A62FB685B8D9BB2013B9AB2FB6894
:103330005A85FB681B8D013B9AB2FB681A85FB68B6
:103340001B8D002B3BD1FB685B8D9BB2002B36D0D5
:10335000BA6AF8687B69009313000022802100F0AC
:1033600087F8031E01D0032359E0FB685B8D9BB2F5
:10337000FF2B11D9FB68FF221A85FB681B8DDAB27F
:1033800080235C040A23FB181988F8680023009343
:10339000230000F07FF912E0FB685B8D9AB2FB68B6
:1033A0001A85FB681B8DDAB280239C040A23FB1864
:1033B0001988F86800230093230000F06BF9FB687C
:1033C0005B8D9BB2002B94D17A69B96AFB681800B7
:1033D00000F0C6F8031E07D0FB685B6C042B01D11C
:1033E00001231CE003231AE0FB681B682022DA613A
:1033F000FB681B68FA68126852680B490A405A60F9
:10340000FB68412220219954FB68422200219954F3
:10341000FB68402200219954002300E00223180099
:10342000BD4607B090BDC04600E800FE80B582B042
:1034300000AF78607B681B689B6902221340022BF7
:1034400003D17B681B6800229A627B681B689B69BA
:1034500001221340012B07D07B681B687A68126831
:10346000926901210A439A61C046BD4602B080BDFF
:1034700080B584B000AFF860B9603B60FB1D1A7086
:103480001BE03B68013318D03B68002B07D001F0EC
:103490006FFA0200BB69D21A3B689A420DD9FB68E9
:1034A000412220219954FB68422200219954FB6853
:1034B00040220021995403230FE0FB681B689B699D
:1034C000BA681A40BB68D31A5A425341DBB21A0099
:1034D000FB1D1B789A42D4D000231800BD4604B0CF
:1034E00080BD80B584B000AFF860B9607A602BE031
:1034F0007A68B968FB68180000F06EF8031E01D006
:10350000012329E0BB6801331ED0BB68002B07D024
:1035100001F02EFA02007B68D21ABB689A4213D9D6
:10352000FB685B6C20221A43FB685A64FB684122EB
:1035300020219954FB68422200219954FB684022C3
:1035400000219954032307E0FB681B689B69022252
:103550001340022BCCD100231800BD4604B080BD1F
:1035600080B584B000AFF860B9607A6028E07A680E
:10357000B968FB68180000F02FF8031E01D0012382
:1035800026E0BB68002B07D001F0F2F902007B684F
:10359000D21ABB689A4213D9FB685B6C20221A438B
:1035A000FB685A64FB68412220219954FB6842223F
:1035B00000219954FB68402200219954032307E01D
:1035C000FB681B689B6920221340202BCFD100236E
:1035D0001800BD4604B080BD80B584B000AFF8606F
:1035E000B9607A60FB681B689B6910221340102B3E
:1035F00048D11BE0BB68013318D0BB68002B07D053
:1036000001F0B6F902007B68D21ABB689A420DD964
:10361000FB68412220219954FB68422200219954E1
:10362000FB6840220021995403232CE0FB681B68AF
:103630009B6920221340202BDCD1FB681B681022E1
:10364000DA61FB681B682022DA61FB681800FFF76B
:10365000EDFEFB681B68FA68126852680C490A4064
:103660005A60FB6804225A64FB6841222021995465
:10367000FB68422200219954FB68402200219954A2
:10368000012300E000231800BD4604B080BDC04601
:1036900000E800FE80B586B000AFF86008001100B9
:1036A0007B600A23FB18021C1A800923FB180A1CE2
:1036B0001A7000237B61FB681B685B687B617B6918
:1036C0000F4A13407B610A23FB181B889B059A0D48
:1036D0000923FB181B781904FF231B040B401A4312
:1036E0007B681A433B6A13437A6913437B61FB6827
:1036F0001B687A695A60C046BD4606B080BDC046A8
:10370000009800FC80B582B000AF786039607B68BB
:1037100041229B5CDBB2202B38D17B6840229B5C32
:10372000012B01D1022332E07B6840220121995410
:103730007B684122242199547B681B687A6812684F
:10374000126801218A431A607B681B687A681268D4
:10375000126811490A401A607B681B687A6812680F
:1037600011683A680A431A607B681B687A681268B5
:10377000126801210A431A607B6841222021995472
:103780007B68402200219954002300E002231800A6
:10379000BD4602B080BDC046FFEFFFFF80B584B0DC
:1037A00000AF78600A4B0A4A926901210A439A6184
:1037B000074B9B6901221340FB60FB68054B054AE0
:1037C00011687A680A431A60C046BD4604B080BDDD
:1037D000001002400000014080B582B000AF786068
:1037E0007B68002B01D101233FE07B6841229B5C79
:1037F000DBB2002B07D17B684022002199547B6803
:103800001800FDF735F97B684122022199547B6845
:103810001B687A681268126801218A431A607B6803
:10382000180000F029F80300012B01D101231CE04E
:103830007B681B687A68126852680E490A405A60B1
:103840007B681B687A68126892682A218A439A60AA
:103850007B681B687A681268126801210A431A6043
:103860007B68180000F05EF903001800BD4602B046
:1038700080BDC046FFBFFFFF80B586B000AF786057
:1038800000233B611723FB1810221A701623FB1824
:1038900000221A700E23FB1800221A801423FB1832
:1038A00000221A807B689A687B681B691A437B68D0
:1038B0005B6913438022120213433B617B681B68E0
:1038C0007A68126812688F4911403A690A431A608F
:1038D00080231B013B617B689A697B68DB6913432A
:1038E0003A6913433B617B681A6A7B68DB68134360
:1038F0003A6913433B617B681B687A6812685268B7
:10390000814911403A690A435A607B681B687F4AC3
:10391000934225D17E4B1B6B03221340012B0FD00A
:1039200004D3022B11D0032B05D013E01723FB186F
:1039300000221A7064E01723FB1802221A705FE05D
:103940001723FB1804221A705AE01723FB180822C9
:103950001A7055E01723FB1810221A70C0464FE06A
:103960007B681B686B4A934232D1694B1A6BC02348
:103970009B02134080225202934219D080225202AD
:10398000934202D8002B09D01CE08022920293427D
:1039900013D0C0229202934205D013E01723FB18E4
:1039A00000221A702CE01723FB1802221A7027E05D
:1039B0001723FB1804221A7022E01723FB18082291
:1039C0001A701DE01723FB1810221A70C04617E06A
:1039D0007B681B68504A934204D11723FB180022CE
:1039E0001A700DE07B681B684C4A934204D1172380
:1039F000FB1800221A7003E01723FB1810221A701C
:103A00001723FB181B78022B1CD002DC002B05D0DF
:103A10004FE0042B27D0082B39D04AE000F058FEA5
:103A200003005A007B685B685B08D2187B685B68A0
:103A300019001000FCF744FB03001A001423FB18C4
:103A40001A803BE07B685B685B08354A9A187B68A4
:103A50005B6819001000FCF733FB03001A00142305
:103A6000FB181A802AE000F0A7FD03005A007B68CB
:103A70005B685B08D2187B685B6819001000FCF774
:103A80001FFB03001A001423FB181A8016E07B6842
:103A90005B685B08802252029A187B685B68190099
:103AA0001000FCF70DFB03001A001423FB181A800A
:103AB00004E01623FB1801221A70C0460E23FB18DF
:103AC0001422BA1812880F218A431A801423FB1873
:103AD0001B885B109BB20722134099B20E23FB1880
:103AE0000E22BA1812880A431A807B681B680E22BD
:103AF000BA181288DA601623FB181B781800BD4626
:103B000006B080BDF369FFEFFFC0FFFF0038014042
:103B1000001002400044004000480040004C0040BB
:103B20000024F40080B582B000AF78607B6800228A
:103B30005A647B681B681E4A934204D07B681B68EA
:103B40001C4A934227D17B681B681B6808221340DC
:103B5000082B0CD1FA239A0080239903786813006C
:103B6000002200F029F8031E01D003231CE07B682B
:103B70001B681B6804221340042B0CD1FA239A0003
:103B80008023D90378681300002200F015F8031E83
:103B900001D0032308E07B684122012199547B680E
:103BA00040220021995400231800BD4602B080BD78
:103BB000003801400044004080B586B000AFF86096
:103BC000B9603B60FB1D1A7000F0D2FE03007B6100
:103BD000FB1D1B78002B00D079E037E03B680133F8
:103BE00034D03B68002B07D000F0C2FE02007B6996
:103BF000D21A3B689A4229D9FB681B68FA68126896
:103C0000126880218A431A60FB681B68FA68126890
:103C1000126820218A431A60FB681B68FA681268E0
:103C2000126831490A401A60FB681B68FA6812681A
:103C3000926801218A439A60FB68412201219954CC
:103C4000FB68402200219954032349E0FB681B686C
:103C5000DB69BA681A40BB689A42BFD13FE03B6853
:103C6000013334D03B68002B07D000F081FE020006
:103C70007B69D21A3B689A4229D9FB681B68FA68AB
:103C80001268126880218A431A60FB681B68FA6810
:103C90001268126820218A431A60FB681B68FA6860
:103CA0001268126810490A401A60FB681B68FA68BB
:103CB0001268926801218A439A60FB6841220121BF
:103CC0009954FB68402200219954032308E0FB68C3
:103CD0001B68DB69BA681A40BB689A42BFD00023F0
:103CE0001800BD4606B080BDFFFEFFFF80B586B060
:103CF00000AF786000233B617B681B6801221340A2
:103D000000D18DE0C54B5B680C221340042B0ED014
:103D1000C24B5B680C221340082B16D1BF4B5A686C
:103D2000C0235B021A4080235B029A420DD1BB4B39
:103D30001A6880239B02134000D170E07B685B68A7
:103D4000002B00D06BE0012327E37B685B68012B2D
:103D500007D1B24BB14A1268802149020A431A6066
:103D60002FE07B685B68002B0CD1AC4BAB4A126830
:103D7000AB490A401A60A94BA84A1268A9490A40EF
:103D80001A601EE07B685B68052B0ED1A34BA34A2B
:103D900012688021C9020A431A60A04B9F4A126828
:103DA000802149020A431A600BE09C4B9B4A12682F
:103DB0009B490A401A60994B984A126899490A40EF
:103DC0001A607B685B68002B14D000F0D1FD030003
:103DD0003B6108E000F0CCFD02003B69D31A642B84
:103DE00001D90323D9E28D4B1A6880239B0213402B
:103DF000F0D015E000F0BCFD03003B6108E000F0EE
:103E0000B7FD02003B69D31A642B01D90323C4E236
:103E1000824B1A6880239B021340F0D100E0C04619
:103E20007B681B680222134000D16CE07B4B5B680F
:103E30000C2213400ED0794B5B680C221340082BE8
:103E40001FD1764B5A68C0235B021A4080231B02A5
:103E50009A4216D1714B1B680222134005D07B6831
:103E6000DB68012B01D0012397E26C4A6B4B1B6886
:103E7000F8218B4319007B681B69DB000B4313603F
:103E800041E07B68DB68002B24D0644B634A1268F6
:103E900001210A431A6000F06BFD03003B6108E05A
:103EA00000F066FD02003B69D31A022B01D90323FF
:103EB00073E25A4B1B6802221340F1D0574A574B0A
:103EC0001B68F8218B4319007B681B69DB000B43DF
:103ED000136018E0514B514A126801218A431A605D
:103EE00000F046FD03003B6108E000F041FD0200E8
:103EF0003B69D31A022B01D903234EE2474B1B68BF
:103F000002221340F1D17B681B680822134036D08F
:103F10007B68DB69002B19D0404B404A526A012173
:103F20000A435A6200F024FD03003B6108E000F000
:103F30001FFD02003B69D31A022B01D903232CE297
:103F4000364B5B6A02221340F1D018E0334B334A00
:103F5000526A01218A435A6200F00AFD03003B6164
:103F600008E000F005FD02003B69D31A022B01D9DD
:103F7000032312E2294B5B6A02221340F1D17B68D2
:103F80001B680422134000D1B6E01723FB1800225F
:103F90001A70224BDA6980235B05134011D11F4B45
:103FA0001E4AD269802149050A43DA611B4BDA694E
:103FB00080235B051340FB60FB681723FB1801227D
:103FC0001A70194B1A6880235B0013401AD1164BE4
:103FD000154A1268802149000A431A6000F0C8FCA3
:103FE00003003B6108E000F0C3FC02003B69D31A08
:103FF000642B01D90323D0E10B4B1A6880235B00AB
:104000001340F0D07B689B68012B0FD1034B034A10
:10401000126A01210A431A6236E0C04600100240CB
:10402000FFFFFEFFFFFFFBFF007000407B689B6807
:10403000002B0CD1C94BC94A126A01218A431A626A
:10404000C64BC64A126A04218A431A621CE07B6886
:104050009B68052B0CD1C14BC04A126A04210A434C
:104060001A62BE4BBD4A126A01210A431A620BE072
:10407000BA4BBA4A126A01218A431A62B74BB74A4D
:10408000126A04218A431A627B689B68002B14D051
:1040900000F06EFC03003B6109E000F069FC0200E7
:1040A0003B69D31AAE4A934201D9032375E1AB4B66
:1040B0001B6A02221340F0D013E000F059FC030009
:1040C0003B6109E000F054FC02003B69D31AA44AAA
:1040D000934201D9032360E1A04B1B6A02221340E3
:1040E000F0D11723FB181B78012B05D19B4B9B4A62
:1040F000D2699C490A40DA617B681B681022134030
:1041000063D07B685B69012B2AD1944B934A526B35
:1041100004210A435A63914B904A526B01210A438E
:104120005A6300F025FC03003B6108E000F020FC2E
:1041300002003B69D31A022B01D903232DE1874BDF
:104140005B6B02221340F1D0844A844B5B6BF821F5
:104150008B4319007B689B69DB000B43536334E09E
:104160007B685B69053311D17C4B7C4A526B04211F
:104170008A435A63794A794B5B6BF8218B43190068
:104180007B689B69DB000B4353631EE0734B734AF0
:10419000526B04210A435A63704B704A526B0121DF
:1041A0008A435A6300F0E4FB03003B6108E000F03F
:1041B000DFFB02003B69D31A022B01D90323ECE099
:1041C000664B5B6B02221340F1D17B681B68202297
:1041D00013405CD0614B5B680C2213400C2B0ED05B
:1041E0005E4B5B680C221340082B14D15B4B5A6862
:1041F000C0235B021A40C0235B029A420BD1574B8B
:104200005A6B80235B02134040D07B681B6A012BF2
:104210003CD00123C1E07B681B6A002B1BD04F4BB5
:104220004E4A526B802149020A435A6300F0A0FBB8
:1042300003003B6108E000F09BFB02003B69D31ADE
:10424000022B01D90323A8E0444B5A6B80235B0265
:104250001340F0D01BE0414B404A526B42490A40A8
:104260005A6300F085FB03003B6108E000F080FB2F
:1042700002003B69D31A022B01D903238DE0374B8F
:104280005A6B80235B021340F0D100E0C0467B688C
:104290005B6A002B00D17FE0304B5B680C2213403F
:1042A000082B00D176E07B685B6A022B4BD12B4B4D
:1042B0002A4A12682D490A401A6000F059FB03008F
:1042C0003B6108E000F054FB02003B69D31A022B6B
:1042D00001D9032361E0214B1A6880239B0413401A
:1042E000F0D11E4A1D4BDB6A0F218B4319007B68FE
:1042F0001B6B0B43D362194A184B5B681C4919406E
:104300007B68D86A7B689B6A03430B435360134BFB
:10431000124A1268802149040A431A6000F028FBFF
:1043200003003B6108E000F023FB02003B69D31A65
:10433000022B01D9032330E0084B1A6880239B0429
:104340001340F0D028E0054B044A126807490A40A0
:104350001A6000F00DFB03003B6114E00010024006
:1043600088130000FFFFFFEFFFFFFEFFFFFFFFFED0
:10437000FF7FC2FF00F0FCFA02003B69D31A022B58
:1043800001D9032309E0074B1A6880239B041340DB
:10439000F0D101E0012300E000231800BD4606B083
:1043A00080BDC0460010024080B584B000AF786088
:1043B00039600023FB607A4B1B6801221A403B687E
:1043C0009A4211D2764B764A126801218A43110033
:1043D0003A680A431A60724B1B6801221A403B6814
:1043E0009A4201D00123D7E07B681B680222134068
:1043F00009D06C4A6B4B5B68F0218B4319007B68DA
:104400009B680B4353607B681B680122134000D1FB
:1044100089E07B685B68012B07D1624B1A688023B7
:104420009B02134020D10123B6E07B685B68022B1E
:1044300007D15C4B1A6880239B04134014D10123DD
:10444000AAE07B685B68032B07D1564B5A6B80232D
:104450005B02134008D101239EE0524B1B680222ED
:10446000134001D1012397E04E4A4E4B5B68032174
:104470008B4319007B685B680B43536000F078FA4C
:104480000300FB607B685B68012B11D109E000F041
:104490006FFA0200FB68D31A434A934201D90323FF
:1044A0007AE0404B5B680C221340042BEFD13AE0DA
:1044B0007B685B68022B11D109E000F059FA020019
:1044C000FB68D31A384A934201D9032364E0354B81
:1044D0005B680C221340082BEFD124E07B685B68FB
:1044E000032B1BD109E000F043FA0200FB68D31A4A
:1044F0002D4A934201D903234EE02A4B5B680C22DC
:1045000013400C2BEFD10EE000F032FA0200FB68F2
:10451000D31A254A934201D903233DE0214B5B681E
:104520000C221340F0D11E4B1B6801221A403B683D
:104530009A4211D91A4B1A4A126801218A43110072
:104540003A680A431A60164B1B6801221A403B68FE
:104550009A4201D001231FE07B681B6804221340AC
:1045600008D0104A0F4B5B68104919407B68DB6824
:104570000B43536000F020F801000A4B5B681B09F5
:104580000F2213400A4AD35C0A00DA40094B1A6032
:10459000002000F0C5F900231800BD4604B080BD1E
:1045A000002002400010024088130000FFF8FFFFC7
:1045B000808000084400002080B58EB000AF142336
:1045C000FA18394B1000190010231A0003F0BAFC36
:1045D0003A1D364B1000190010231A0003F0B2FCEC
:1045E0000023FB620023BB6200237B6300237B620A
:1045F00000233B632E4B5B68FB62FB6A0C2213407B
:10460000082B06D00C2B43D0042B44D1294B3B6301
:1046100044E0FB6A9B0C0F2213401422BA18D35CAF
:104620007B62234BDB6A0F2213403A1DD35CBB62D3
:10463000FA6AC0235B021A4080235B029A4209D1C6
:10464000B96A1C48FBF73CFD03001A007B6A534320
:104650007B631AE0FA6AC0235B021A40C0235B0244
:104660009A4209D1B96A1448FBF72AFD03001A00DF
:104670007B6A53437B6308E0B96A0E48FBF720FD71
:1046800003001A007B6A53437B637B6B3B6305E04B
:10469000094B3B6302E0074B3B63C0463B6B180092
:1046A000BD460EB080BDC046D07F0008E07F000848
:1046B0000010024000127A00006CDC0280B500AFEE
:1046C000024B1B681800BD4680BDC0464400002058
:1046D00080B500AFFFF7F2FF0100064B5B681B0AD5
:1046E00007221340044AD35CD9400B001800BD4692
:1046F00080BDC046001002409080000880B586B0A2
:1047000000AF786000233B610023FB607B681A6880
:1047100080235B02134000D18EE01723FB18002298
:104720001A706E4BDA6980235B05134011D16B4B15
:104730006A4AD269802149050A43DA61674BDA691E
:1047400080235B051340BB60BB681723FB18012265
:104750001A70634B1A6880235B0013401AD1604BB8
:104760005F4A1268802149000A431A6000F000F98C
:1047700003003B6108E000F0FBF802003B69D31A3C
:10478000642B01D90323A4E0554B1A6880235B00F6
:104790001340F0D0514B1A6AC0239B001340FB60BA
:1047A000FB68002B34D07B685A68C0239B001A40FA
:1047B000FB689A422CD0494B1B6A4A4A1340FB6063
:1047C000464B464A126A802149020A431A62434B09
:1047D000424A126A44490A401A62404BFA681A6215
:1047E000FB680122134013D000F0C2F803003B61C4
:1047F00009E000F0BDF802003B69D31A3B4A93423E
:1048000001D9032365E0354B1B6A02221340F0D027
:10481000324A324B1B6A334919407B685B680B4351
:1048200013621723FB181B78012B05D12B4B2B4A46
:10483000D2692F490A40DA617B681B680122134064
:1048400009D0264A254B1B6B03218B4319007B683B
:104850009B680B4313637B681B680222134008D0DC
:104860001E4A1E4B1B6B234919407B68DB680B43B8
:1048700013637B681B682022134009D0174A174B2B
:104880001B6B10218B4319007B681B690B4313635F
:104890007B681A6880239B02134009D00F4A0F4B94
:1048A0001B6B80218B4319007B689B690B4313634F
:1048B0007B681A688023DB00134009D0074A074B46
:1048C0001B6B40218B4319007B685B690B431363AF
:1048D00000231800BD4606B080BDC046001002404F
:1048E00000700040FFFCFFFFFFFFFEFF8813000089
:1048F000FFFFFFEFFFFFFCFF80B500AF074B074A4C
:10490000126810210A431A60002000F009F8FCF731
:104910003DF800231800BD4680BDC046002002407F
:1049200080B582B000AF7860FFF7C8FE0200FA23BE
:1049300099001000FBF7C4FB0300180000F0A2FA76
:10494000796801235B420022180000F075FA002309
:104950001800BD4602B080BD80B500AF034B1B6898
:104960005A1C024B1A60C046BD4680BD580B002041
:1049700080B500AF024B1B681800BD4680BDC04625
:10498000580B002080B584B000AF78600023FB6036
:10499000FFF7EEFF0300FB60C046FFF7E9FF0200F0
:1049A000FB68D21A7B689A42F7D3C046BD4604B072
:1049B00080BD000080B586B000AF7860396000230C
:1049C0007B610023FB6000233B6155E13B681B6872
:1049D00001217A6991400A001340FB60FB68002BBB
:1049E00000D146E13B685B68022B03D03B685B6803
:1049F000122B23D17B69DA087B6808329200D358E6
:104A00003B617B69072213409B000F229A401300F1
:104A1000DA433B6913403B613B681A697B690721B4
:104A20000B409B009A4013003A6913433B617B693A
:104A3000DA087B68083292003969D1507B681B68BC
:104A40003B617B695B0003229A401300DA433B69B8
:104A500013403B613B685B6803221A407B695B0043
:104A60009A4013003A6913433B617B683A691A60C4
:104A70003B685B68012B0BD03B685B68022B07D05F
:104A80003B685B68112B03D03B685B68122B30D10D
:104A90007B689B683B617B695B0003229A40130043
:104AA000DA433B6913403B613B68DA687B695B0032
:104AB0009A4013003A6913433B617B683A699A60F4
:104AC0007B685B683B6101227B699A401300DA4393
:104AD0003B6913403B613B685B681B0901221A403C
:104AE0007B699A4013003A6913433B617B683A69DA
:104AF0005A607B68DB683B617B695B0003229A40FC
:104B00001300DA433B6913403B613B689A687B6959
:104B10005B009A4013003A6913433B617B683A6932
:104B2000DA603B685A6880235B05134000D1A0E03F
:104B3000574B574A926901210A439A61544B9B692A
:104B400001221340BB60BB68524A7B699B08023359
:104B50009B009B583B617B69032213409B000F2203
:104B60009A401300DA433B6913403B617A68902313
:104B7000DB059A4219D07B68474A934213D07B6881
:104B8000464A93420DD07B68454A934207D07B68E2
:104B9000444A934201D1042308E0052306E003239D
:104BA00004E0022302E0012300E000237A690321EC
:104BB0000A40920093403A6913433B6135497B694F
:104BC0009B0802339B003A695A50374B1B683B6184
:104BD000FB68DA433B6913403B613B685A688023BA
:104BE0005B02134003D03A69FB6813433B612E4BD1
:104BF0003A691A602C4B5B683B61FB68DA433B699E
:104C000013403B613B685A6880239B02134003D0EA
:104C10003A69FB6813433B61234B3A695A60224B64
:104C20009B683B61FB68DA433B6913403B613B682F
:104C30005A6880235B03134003D03A69FB6813432F
:104C40003B61194B3A699A60174BDB683B61FB6823
:104C5000DA433B6913403B613B685A6880239B03FE
:104C6000134003D03A69FB6813433B610E4B3A692A
:104C7000DA607B6901337B613B681A687B69DA40E3
:104C8000131E00D0A2E6C046BD4606B080BDC04699
:104C900000100240000001400004004800080048E5
:104CA000000C0048001000480004014080B582B0AC
:104CB00000AF786008001100BB1C021C1A807B1C2E
:104CC0000A1C1A707B1C1B78002B04D0BB1C1A8892
:104CD0007B689A6103E0BB1C1A887B689A62C046B5
:104CE000BD4602B080BD000080B582B000AF0200BA
:104CF000FB1D1A70064BFA1D127811001F220A4084
:104D0000012191400A001A60C046BD4602B080BD34
:104D100000E100E0B0B582B000AF02003960FB1DD9
:104D20001A70FB1D1B787F2B32D92F4CFB1D1B7873
:104D30001A000F231340083B99082B4AFB1D1B78D0
:104D400018000F230340083B9B0806339B00D31831
:104D500004331B68FA1D1278100003220240D200AF
:104D6000FF2090400200D2431A403B689B01FF2085
:104D70001840FB1D1B781D0003232B40DB009840CF
:104D800003001A438B1D9B00E31804331A6027E0CD
:104D9000164CFB1D1B785BB29B081449FA1D127858
:104DA00052B29208C03292005258F91D0978080098
:104DB00003210140C900FF2088400100C943114080
:104DC0003A689201FF201040FA1D12781500032264
:104DD0002A40D200904002000A43C0339B001A517F
:104DE000C046BD4602B0B0BD00ED00E000E100E00D
:104DF00080B582B000AF78607B68013B0C4A93427B
:104E000001D9012310E00B4B7A68013A5A60012363
:104E10005B4203211800FFF77DFF064B00229A60DA
:104E2000044B07221A6000231800BD4602B080BD63
:104E3000FFFFFF0010E000E080B584B000AFB96074
:104E40007A600F23FB18021C1A70BA680F23FB1834
:104E50001B785BB211001800FFF75CFFC046BD462F
:104E600004B080BD80B582B000AF0200FB1D1A7097
:104E7000FB1D1B785BB21800FFF736FFC046BD462E
:104E800002B080BD80B582B000AF78607B6818004A
:104E9000FFF7AEFF03001800BD4602B080BD000062
:104EA00080B582B000AF78607B68042B06D1084BD8
:104EB000074A126804210A431A6005E0044B044AB9
:104EC000126804218A431A60C046BD4602B080BD04
:104ED00010E000E080B500AF00F003F8C046BD462A
:104EE00080BD80B500AFC046BD4680BD80B500AF77
:104EF0001A4B1A4A126801210A431A60174B174AC3
:104F0000526817490A405A60144B144A12681549EE
:104F10000A401A60114B114A126813490A401A607C
:104F20000E4B0E4A526811490A405A600B4B0B4A0D
:104F3000D26A0F218A43DA62084B084A126B0C4985
:104F40000A401A63054B054A526B01218A435A6392
:104F5000024B00229A60C046BD4680BD0010024050
:104F60000CB8FF08FFFFF6FEFFFFFBFFFFFFC0FFCF
:104F70002CFEFCFF80B582B000AF0200BB1D1A8082
:104F8000BB1D1B881800FFF7FDFCC046BD4602B0E4
:104F900080BD000080B582B000AF00237B6002E0DE
:104FA0007B6801337B607B68034A9342F8DDC0462F
:104FB000BD4602B080BDC046E703000080B582B0A8
:104FC00000AF00237B6002E07B6801337B607B687D
:104FD000034A9342F8DDC046BD4602B080BDC046DC
:104FE0000F27000080B5574FBD4402AFF86008009E
:104FF00011007B60544B8122D2009446BC44634430
:10500000021C1A70514B8122D2009446BC44634466
:105010000A1C1A704C4B8122D2009446BC44634453
:105020001B78072B00D985E09A00494BD3181B68E1
:105030009F46FFF7AFFF7DE0FFF7C0FF434B8122A4
:10504000D2009446BC4463441B78002B03D1414BEF
:1050500000221A706EE03F4B40221A706AE03D4B0E
:105060001A78FF239B00FB181A70FF239B00FB1884
:10507000364A8121C9008C46BC44624412785A7079
:10508000FF239B00FA183448344B00930223782105
:10509000FEF7B8F84EE07B68314ABA1813602D4B22
:1050A0001A78304B8121C9008C46BC4463441A7085
:1050B00001238022D200BA1813601CE0284BFB1891
:1050C0001B685A1C264979180A601978254B8122D9
:1050D000D200BA18D2188023DB00FB181B68D31843
:1050E0000A1C1A708023DB00FB181B680133802226
:1050F000D200BA181360154B8122D2009446BC44EA
:1051000063441A788023DB00FB181B689A42D5DAC7
:105110000E4B8122D2009446BC4463441B7899B262
:105120001423FA180C480D4B00930B007821FEF75E
:1051300069F8C04601231800BD468123DB009D4469
:1051400080BDC046F0FBFFFF03FCFFFF02FCFFFF3A
:1051500098800008F0030020C40A002010270000F7
:10516000040400000CFCFFFF90B585B000AF786030
:105170000C0010001900FB1C221C1A70BB1C021C26
:105180001A707B1C0A1C1A70BB1C1C782023FB188D
:105190001B78E318DCB22300013BDCB27B683922C8
:1051A000995C7B683B229A5C0F23FB1819700E23D5
:1051B000FB181A700D23FB18BA1C12781A700C23F6
:1051C000FB18221C1A700E23FA180D23FB181278F4
:1051D0001B789A4215D30F23FA180C23FB18127868
:1051E0001B789A4201D8012320E00D23FA180C23E2
:1051F000FB1812781B789A4201D9012316E000238C
:1052000014E00F23FA180C23FB1812781B789A422B
:105210000BD80D23FA180C23FB1812781B789A422E
:1052200001D9012302E0002300E00023002B01D17B
:10523000002351E0FB1C1C787B1C1B78E318DCB2BC
:105240002300013BDCB27B683822995C7B683A2200
:105250009A5C0B23FB1819700A23FB181A70092398
:10526000FB18FA1C12781A700823FB18221C1A70FB
:105270000A23FA180923FB1812781B789A4215D3CF
:105280000B23FA180823FB1812781B789A4201D8CE
:10529000012320E00923FA180823FB1812781B7851
:1052A0009A4201D9012316E0002314E00B23FA18D7
:1052B0000823FB1812781B789A420BD80923FA1896
:1052C0000823FB1812781B789A4201D9012302E0C7
:1052D000002300E00023C0461800BD4605B090BD85
:1052E00090B585B000AFF860B960FB1D1A70BB685F
:1052F0009C68FB1D1A78F86800230121A047030071
:105300001800BD4605B090BD90B585B000AFF860FF
:10531000B960FB1D1A70BB689C68FB1D1A78F868A1
:1053200000230321A047C046BD4605B090BD90B5FF
:1053300083B000AF786039603B689C687868002370
:1053400000220421A047C046BD4603B090BD90B5E1
:1053500083B000AF786039603B689C687868002350
:1053600001220421A047C046BD4603B090BD90B5C0
:1053700085B000AFF860B960FB1D1A70BB689C680F
:10538000FB1D1A78F86800230221A047C046BD46DD
:1053900005B090BD90B585B000AFF860B960FB1D59
:1053A0001A70BB689C68FB1D1A78F86800230521F9
:1053B000A04703001800BD4605B090BD90B585B06C
:1053C00000AFF860B9603B60FB1D1A70BB689C6859
:1053D0003968FB1D1A78F8680B000621A047030006
:1053E0001800BD4605B090BD80B586B000AFF8602E
:1053F000B9607A601723FB1800221A701623FB1875
:105400007A6812781A701723FB181B78002B16D1B4
:105410001623FB181B78FF2B0CD01623FB181A78C9
:10542000B968FB681800FFF7B5FF031E00D091E0D4
:10543000002395E01723FB1801221A708AE0162337
:10544000FB181B78FF2B0CD11623FB181A78B968B0
:10545000FB681800FFF79EFF031E00D076E00023D4
:105460007EE01623FB181B78FE2B00D176E0162376
:10547000FB181B78EF2B69D81623FB181B78DF2B42
:105480000BD91623FB181B780F221340DAB2B96828
:10549000FB681800FFF76BFF58E01623FB181B781A
:1054A000CF2B0BD91623FB181B780F221340DAB22F
:1054B000B968FB681800FFF727FF47E01623FB18C1
:1054C0001B78BF2B30D9BA68FB6811001800FFF7B2
:1054D0002EFF1623FB181622BA1812780F210A4045
:1054E0001A701623FB181622BA18127812011A70B5
:1054F0001623FB181622BA18127802321A701623D5
:10550000FB181B789BB21800FFF734FDBA68FB68E4
:1055100011001800FFF71BFF1623FB181B789BB226
:105520001800FFF727FD11E01623FB181B78BD2B91
:105530000CD81623FB181B785BB2002B06DB162356
:10554000FB181B789BB21800FFF714FD1723FB18FC
:1055500000221A707B6801337B604FE7C04601234D
:105560001800BD4606B080BD80B584B000AFF860BD
:10557000080011007B600B23FB18021C1A700A2321
:10558000FB180A1C1A700B23FB181B78062B04D877
:105590009A00044BD3181B689F4601231800BD4690
:1055A00004B080BDB880000890B587B000AFF86047
:1055B000B9603B60FB1D1A70FB1D1B780A3B0B2B6F
:1055C0004CD89A002C4BD3181B689F46B968FB68CF
:1055D00002221800FFF784FE284AB968FB68180009
:1055E000FFF702FF3AE0BB685B687B61244AB96859
:1055F000FB681800FFF7F8FE7B691B7950225242C6
:105600001343DAB2B968FB681800FFF7C3FEB96844
:10561000FB6801221800FFF7AAFEBA68F9687B69E7
:10562000180000F0A4FF031E01D100231FE0B96899
:10563000FB6800221800FFF767FE0FE0114AB96807
:10564000FB681800FFF7D0FE012310E00E4AB9688E
:10565000FB681800FFF7C8FE012308E03C68FB1D4B
:105660001A78B968F868230001F06CF80300180094
:10567000BD4607B090BDC0461C810008D48000081C
:10568000FC800008048100081081000880B582B009
:1056900000AF78600A00FB1C1A70FB1C1B787A684C
:1056A000D3187B607B681B781800BD4602B080BDB4
:1056B00080B584B000AF78600A00FB1C1A70FB1C38
:1056C0001B787A68D3187B607B681A780E23FB18E6
:1056D0001A807B6801337B600E23FB180E22BA18F8
:1056E000128812021A807B681B7899B20E23FB186D
:1056F0000E22BA1812888A181A800E23FB181B88EB
:105700001800BD4604B080BD80B582B000AF78609F
:105710007B6800211800FFF7B9FF03001800BD46A1
:1057200002B080BD80B582B000AF78607B681800A1
:10573000FFF7EAFF0300012B05D0022B05D0002B59
:1057400005D1062304E0032302E0062300E003233F
:105750001800BD4602B080BD80B582B000AF786051
:105760007B6805211800FFF791FF03001800BD4674
:1057700002B080BD80B582B000AF78607B68062142
:105780001800FFF795FF03001800BD4602B080BD6A
:1057900080B582B000AF78607B6808211800FFF701
:1057A00087FF03001800BD4602B080BD80B582B0FF
:1057B00000AF78607B680A211800FFF767FF0300DD
:1057C0001800BD4602B080BD80B582B000AF7860E1
:1057D0007B680B211800FFF759FF03001800BD4636
:1057E00002B080BD80B582B000AF78607B680C21CC
:1057F0001800FFF74BFF03005BB21800BD4602B074
:1058000080BD80B582B000AF78607B680D21180044
:10581000FFF73CFF03005BB21800BD4602B080BD3D
:1058200080B582B000AF78607B680E211800FFF76A
:105830002DFF03005BB21800BD4602B080BD80B5ED
:1058400082B000AF78607B680F211800FFF71EFF61
:1058500003005BB21800BD4602B080BD80B582B0C7
:1058600000AF78607B6810211800FFF70FFF03007E
:105870005BB21800BD4602B080BD80B582B000AFFB
:10588000786039607B681800FFF74CFF03001A004E
:105890003B689B181800BD4602B080BD80B584B03F
:1058A00000AF786039607B689B681800FFF72CFFB9
:1058B000031E01D0022B1BD13B681A787B68DA7774
:1058C0003B6859787B68202299543B6803331B78E6
:1058D0005AB27B681A773B6804331B785AB27B68EC
:1058E0005A773B6805331B785AB27B689A7750E049
:1058F0000F23FB183A6812781A700F23FB181B78D5
:105900005BB20F2213405AB27B689A777B689B7F09
:105910005BB2DBB2023BDBB25AB27B689A770F23F1
:10592000FB180F22BA18127812091A700F23FB18ED
:1059300000229A567B685A770F23FB183A685278F0
:105940001A700F23FB181B780F221340D9B27B6803
:10595000202299540F23FB180F22BA18127812092B
:105960001A707B680F22BA181278DA770F23FB18A7
:105970003A6892781A700F23FB180F22BA1812781F
:1059800012091A700F23FB1800229A567B681A77A7
:10599000C046C046BD4604B080BD80B582B000AFF1
:1059A00078607B6800221A777B680022DA777B6850
:1059B0002022002199547B6800225A777B680022BC
:1059C0009A77C046BD4602B080BD90B587B000AFA3
:1059D00078600A00FB1C1A707B689B687B617B689F
:1059E0009B681022BC181800FFF78EFE030023707E
:1059F0007B689B680F22BC181800FFF793FE03001A
:105A000023701123FB18FF221A701023FB181B7838
:105A1000012B03D11123FB180F221A707B689B689E
:105A20001322BC181800FFF7C1FE030023707B6827
:105A30009B680E22BC181800FFF7C6FE03002370F7
:105A40007B689B680C22BC181800FFF7A1FE0300BE
:105A50002380FB1C1B78602B0FD90C23FB181B88A1
:105A6000002B0AD00C23FB181B887A69D3187B61A2
:105A70001323FB1861221A701FE07B689B680C22BD
:105A8000BC181800FFF776FE03002380FB1C1B7870
:105A9000402B0FD90C23FB181B88002B0AD00C239A
:105AA000FB181B887A69D3187B611323FB184122EA
:105AB0001A7002E07B6911337B61FA1C0E23FB181C
:105AC00012781B789A4205D97B681800FFF765FFAA
:105AD00000234CE01223FB181322BA1812781A7014
