:020000040800F2
:100000000040002051710008D51C0008DF1C0008CA
:1000100000000000000000000000000000000000E0
:10002000000000000000000000000000E51C0008C7
:100030000000000000000000EF1C0008F91C000890
:10004000A1710008A1710008A1710008A171000848
:10005000A1710008A1710008A1710008A171000838
:10006000A1710008A1710008A1710008A171000828
:10007000A1710008A1710008A1710008A171000818
:10008000A1710008A1710008A1710008A171000808
:10009000A1710008A1710008A1710008A1710008F8
:1000A000A1710008A1710008A1710008A1710008E8
:1000B000A1710008A1710008A17100080D1D0008C0
:1000C000002934D00123002210B488422CD301240B
:1000D0002407A14204D2814202D209011B01F8E7A0
:1000E000E400A14204D2814202D249005B00F8E759
:1000F000884201D3401A1A434C08A04202D3001B85
:100100005C0822438C08A04202D3001B9C082243B7
:10011000CC08A04202D3001BDC082243002803D0F5
:100120001B0901D00909E3E7101C10BC7047002827
:1001300001D00020C04307B4024802A14018029039
:1001400003BDC046D90000000029F0D003B5FFF779
:10015000B9FF0EBC4243891A1847C046002941D056
:1001600010B4041C4C40A44601230022002900D5F1
:100170004942002800D5404288422CD3012424075C
:10018000A14204D2814202D209011B01F8E7E40036
:10019000A14204D2814202D249005B00F8E78842C2
:1001A00001D3401A1A434C08A04202D3001B5C083A
:1001B00022438C08A04202D3001B9C082243CC0897
:1001C000A04202D3001BDC082243002803D01B09F5
:1001D00001D00909E3E7101C6446002C00D5404219
:1001E00010BC7047002806D003DB0020C043400845
:1001F00001E08020000607B4024802A140180290E6
:1002000003BDC046190000000029EBD003B5FFF77D
:10021000A7FF0EBC4243891A1847C0467047C04624
:1002200010B5064C2378002B07D1054B002B02D0CC
:10023000044800E000BF0123237010BD58010020D6
:100240000000000000720008084B10B5002B03D01E
:100250000749084800E000BF07480368002B03D0A7
:10026000064B002B00D0984710BDC0460000000090
:100270005C0100200072000858010020000000000E
:1002800080B586B000AF786000237B6100233B61BE
:1002900018E03B69EE229200944663441A007B68A2
:1002A0009B181B785BB2DBB21A007F231340FB6004
:1002B000FA687B699A4202DBFB6801337B613B6928
:1002C00001333B613B697F2BE3DD7B691800BD4651
:1002D00006B080BD80B584B000AF78607B682A4AE4
:1002E000944663441B785BB21B027A6827498C46AC
:1002F0006244127852B21343254A934212D0244AE0
:10030000934206DC234A934219D0234A93420CD0ED
:100310002DE0224A934205D0214A934202D0214A3D
:10032000934224D10423FB6024E07B688722D2001F
:10033000944663441B785BB2303BFB601AE07B68F9
:100340008722D200944663441B785BB2303B1A008C
:1003500013009B009B185B001A007B6812498C46B7
:1003600063441B785BB2303BD318FB6002E0002390
:10037000FB60C046FB68102B01DD0023FB60FB68BF
:100380001800BD4604B080BD3A0400003B040000E4
:10039000214B0000484300004E4800002E5400004E
:1003A000345400002E4B00003904000080B582B0A8
:1003B00000AF786039603B687A68D3181B785BB20D
:1003C0001B021B041A0C3B6801337968CB181B789D
:1003D0005BB21900FF230B4013431800BD4602B067
:1003E00080BD000080B582B000AF7860094B1B680B
:1003F0005A00084B1B685B10D31879681800FFF788
:10040000ADFE03001A00044B1A60C046BD4602B0A0
:1004100080BDC046900300209C03002080B586B0BC
:1004200000AF78607B68DB8819007B682B229B56C5
:10043000CB187B617B682C229B561A00254B5200FF
:10044000D35A1A007B695343DB127B617B695A10D4
:100450007B6901210B40D3187B617B690D2B02DC8A
:10046000D6235B017B611C4B1B68D6225200534391
:1004700079691800FFF772FE0300FB60FB689A03BE
:10048000164B1B6819001000FFF71AFE03001A0034
:100490007B685A617B681B7E19007B682A229B5609
:1004A000CB183B613B69402B01DD40233B613B693D
:1004B000002B01DA00233B613B69DAB2084B1B6871
:1004C000DBB25343DAB27B68DA76C046BD4606B08B
:1004D00080BDC046B0720008940300209003002045
:1004E0009803002080B584B000AF78607B68DB881B
:1004F000FB607B681B89BB60FA68BB689A420CDAB8
:100500007B68DB7F1A00FB689B18FB60FA68BB689E
:100510009A4212DDBB68FB600FE0FA68BB689A4242
:100520000BDD7B68DB7F1A00FB689B1AFB60FA68B7
:10053000BB689A4201DABB68FB60FB689AB27B68D1
:10054000DA80C046BD4604B080BD80B584B000AF3F
:10055000786039607B681B7E1A003B681B11D218DB
:100560003B680F210B40D31AFB60FB68002B01DABC
:100570000023FB60FB68402B01DD4023FB60FB6830
:10058000DAB27B681A76C046BD4604B080BD000072
:1005900080B584B000AF786039600023FB603B68B1
:1005A00003221340012B17D002DC002B05D037E0CB
:1005B000022B1BD0032B22D032E07B681F2213407A
:1005C0001A4AD35CFB607B6820221340002B26DD97
:1005D000FB685B42FB6022E07B682033DA00FC238F
:1005E0005B001340FF22D31AFB6019E07B681A01FD
:1005F00080239B001340FF22D31AFB6010E00C4BBA
:100600001B681B15FF3BFB60094B1A6813009B011D
:100610009B181133DB00DA08054B1A6000E0C04676
:10062000FB681800BD4604B080BDC046D07200080B
:10063000C403002080B582B000AF78607B682322BD
:100640009B5C18007B6822229B5C1900FFF7A0FFCF
:1006500001007B6825229B5C4B43DB1159B27B6810
:100660002B229954C046BD4602B080BD80B582B0F1
:1006700000AF78607B6827229B5C18007B6826228D
:100680009B5C1900FFF784FF01007B6829229B5CBB
:100690004B439B1159B27B682A229954C046BD46F0
:1006A00002B080BD80B584B000AF78607B689B7875
:1006B000FB60FB68002B27DDFB681F2B24DCFB683D
:1006C000DAB27B689A777B680022DA603C4AFB6882
:1006D0001B01D31801331A787B689A76384BFA6875
:1006E0001201D25C7B681A76354AFB681B01D3186D
:1006F00008331B68002B07D07B685B7F002B03D07F
:10070000FB68DAB27B685A777B68DB78092B06D105
:100710007B681B791B021A007B68DA6007E07B6844
:10072000DB78152B03D17B681A797B689A767B6816
:100730001B88002B40D07B681B8819007B689B7E40
:100740001A000F231A401F4B5200D35A4B43DB129F
:10075000BB60BB685B109AB2BB689BB201210B40C7
:100760009BB2D3189AB27B681A817B68DB78032B23
:1007700022D07B68DB78052B1ED07B689A7F7B6854
:100780005A777B681A897B68DA807B68DB689A0312
:100790007B681A617B6822229B5C032B03D87B68F1
:1007A0002322002199547B6826229B5C032B03D8CB
:1007B0007B68272200219954C046BD4604B080BD05
:1007C000900100209072000880B586B000AF78607C
:1007D0007B68DB787B617B681B793B617B682122CE
:1007E000002199547B682C22002199547B682C228B
:1007F00099567B682A2299547B682A2299567B68ED
:100800002B2299547B691D2B02D13B69002B03DC01
:100810007B681800FFF746FF7B69033B1B2B00D961
:1008200057E19A00AF4BD3181B689F463B69002BDA
:1008300000DC3DE13B69DAB27B68DA7738E13B699D
:10084000F0221340002B05DD3B691B11D9B27B68F8
:10085000242299543B690F221340002B07DD3B698A
:10086000DBB20F221340D9B27B68252299547B68F2
:100870001800FFF7DFFE2CE17B681800FFF7DAFEB7
:1008800027E13B69F0221340002B05DD3B691B117A
:10089000D9B27B68282299543B690F221340002B60
:1008A00007DD3B69DBB20F221340D9B27B682922F6
:1008B00099547B681800FFF7D9FE0AE18A4B1B6840
:1008C000042B00D1F6E03B697F2B04DC3B69DBB2F3
:1008D000DB18DAB200E0FF227B685A76EAE0834B4D
:1008E0001B68002B00DBE7E0814B3A691A60814B03
:1008F00000221A60E0E03B69402B00DD4023DAB2C1
:100900007B681A76E5E0794B1B68002B00DBD5E0AD
:10091000774B1B68002B04DA774B1B685A1C744B0F
:100920001A603B691A1113009B009B185B001900A9
:100930003B690F221340CA186E4B1A606D4B1B683F
:100940003F2B00DCBAE06B4B00221A60B6E03B693B
:10095000002B00DCB4E03B691F2B07DC674B3A69D6
:100960001A60664B1A68664B1A60A9E03B6918006A
:10097000FFF738FDA4E07B68DB881A003B69D31AD7
:10098000FB60FB68002B00DA00239AB27B68DA80F8
:100990009FE07B68DB881A003B69D318FB60FB682B
:1009A000584A934200DD574B9AB27B68DA8090E058
:1009B0003B69072B00DD85E03B69D9B27B682222C9
:1009C00099547FE03B69002B05D14F4B1B68D9B28E
:1009D0007B68202299547B6820229B5C1A004A4B3A
:1009E0001B689A4200DB6FE0404B1B68002B07DA64
:1009F0003E4B3A691A607B681B7F1A00434B1A60B2
:100A00007B681B7F1A00414B1B689A425CD1374BB5
:100A10001B68002B08D13C4B1B68DBB20133D9B2F9
:100A20007B682022995409E07B6820229B5C1A0095
:100A3000304B1A602E4B012252421A602B4B1B681E
:100A40005A1E2A4B1A603FE03B69072B3EDC3B698C
:100A5000D9B27B682622995438E07B681B7E1A0045
:100A60003B69D318BB60BB68402B00DD4023DAB282
:100A70007B681A762DE07B681B7E1A003B69D31ACF
:100A8000BB60BB68002B00DA0023DAB27B681A7601
:100A90001FE03B69002B1BDC7B6800221A7617E005
:100AA0003B695A1C154B1B685A43154B1A6010E0E2
:100AB000C0460EE0C0460CE0C0460AE0C04608E072
:100AC000C04606E0C04604E0C04602E0C04600E082
:100AD000C0467B681800FFF7A1FCC046BD4606B0C3
:100AE00080BDC046F07200088C010020BC030020CD
:100AF000A8030020B0030020A4030020B8030020B6
:100B0000B4030020FFFF0000AC030020C00300205E
:100B100080B586B000AF78607B68DB787B617B68EE
:100B20001B793B617B6821229B5C0133D9B27B68D6
:100B3000212299547B691D2B00D9C7E07B699A005B
:100B4000684BD3181B689F467B68DB881A003B699B
:100B5000D31AFB60FB68002B00DA00239AB27B6893
:100B6000DA80B3E07B68DB881A003B69D318FB604E
:100B7000FB685D4A934200DD5B4B9AB27B68DA808A
:100B8000A4E07B681800FFF7ADFC9FE07B682322A0
:100B90009A5C7B6824215B5CD318D9B27B682322E2
:100BA00099547B681800FFF745FD8FE07B681800BB
:100BB000FFF798FC3A697B6811001800FFF7C5FC45
:100BC00084E07B6823229A5C7B6824215B5CD318D9
:100BD000D9B27B68232299547B681800FFF72AFD5D
:100BE0003A697B6811001800FFF7AFFC6EE07B6884
:100BF00027229A5C7B6828215B5CD318D9B27B687A
:100C0000272299547B681800FFF730FD5EE03A69AF
:100C10007B6811001800FFF798FC57E07B682122E1
:100C20009B5C022B03D97B682122002199547B68AD
:100C300021229B5C002B03D17B682C22002199543C
:100C40007B6821229B5C012B05D13B691B1159B2AA
:100C50007B682C2299547B6821229B5C022B2ED12D
:100C60003B695BB20F22134059B27B682C22995426
:100C700025E07B6821229B5C1A003B699A4220DBBD
:100C80007B682122002199547B6800221A6118E0B8
:100C90007B6821229B5C1A003B699A4213D17B68D6
:100CA00000221A760FE07B6821229B5C1A003B69C8
:100CB0009A420AD17B681800FFF7F4FC05E0C046B1
:100CC00004E0C04602E0C04600E0C0467B69002B5D
:100CD00003DD7B681800FFF7A1FBC046BD4606B0E8
:100CE00080BDC04660730008FFFF000080B586B07D
:100CF00000AF00237B61714B1B68002B32DB6F4B15
:100D00001A686F4B1B689A4206DB6E4B00221A6012
:100D10006C4B1A68694B1A60684B1A686A4B1B68FF
:100D20009A4201DC01237B61644B1A68664B1A60AE
:100D300000233B610DE065493A69202013005B0008
:100D40009B181B01CB181B1800221A703B6901333A
:100D50003B615F4B1B683A699A42ECDB574B0122BF
:100D600052421A60574B1A685A4B1A60594B1B680B
:100D70005A1C544B1A60534B1B683F2B07DD524BD8
:100D80001B685A1C4D4B1A604E4B00221A60524B86
:100D90001A684D4B1B68D3181B789A014D4B1B6882
:100DA000D2184B4B1B6853439B00FB6000233B61F5
:100DB00079E03A6913005B009B181B01434A9B18BA
:100DC0003B60464B1A68FB68D3181B781B029AB22B
:100DD000F0231B0113409AB23B681A803B681A88C3
:100DE0003E4B1968FB680133CB181B789BB2134349
:100DF0009AB23B681A80394B1A68FB680233D318E1
:100E00001B781B09DAB23B689A703B689B785AB230
:100E1000324B1968FB68CB181B785BB210210B4072
:100E20005BB213435BB2DAB23B689A702B4B1A6821
:100E3000FB680233D3181B781A000F231340BB60E2
:100E4000264B1A68FB680333D3181B787B60FB685A
:100E50000433FB60BB680E2B08D17B681B1110228A
:100E60001343BB607B680F2213407B60BB68002B81
:100E700004D17B68002B01DD0E23BB60BB68DAB2B6
:100E80003B68DA707B68DAB23B681A713A69130022
:100E90005B009B181B010D4A9B181800FFF794FC80
:100EA0003B6901333B610A4B1B683A699A4200DA9D
:100EB0007FE77B691800BD4606B080BDA80300200F
:100EC00080010020B0030020A4030020C8030020FC
:100ED0008C010020AC0300207C0100207801002060
:100EE00080B582B000AF00237B60164B1B685A1E92
:100EF000144B1A60134B1B68002B08DC124B1A684A
:100F0000104B1A60FFF7F2FE03007B6014E0002331
:100F10003B600CE03A6813005B009B181B010B4A16
:100F20009B181800FFF7F4FD3B6801333B60084B4A
:100F30001B683A689A42EDDB7B681800BD4602B038
:100F400080BDC046B4030020B8030020C8030020C1
:100F50008C01002080B592B000AFF860B9607A6073
:100F60003B60BB68002B02D0FB68DB7E00E0002307
:100F7000BB63FB685B7E1A00BB6B53437B63FB6800
:100F80005B7E1A00FF239B1ABA6B53433B63FB68DB
:100F90001B693B64FB685B69FB62FB685B7FBB6250
:100FA000464ABB6A1B01D31808331B687B62434A5D
:100FB000BB6A1B01D31804331A687B6AD3183B62DF
:100FC0003E4ABB6A1B01D3180C331B68FB617B686C
:100FD0005B007B647A683B68D3185B00BB6162E0AE
:100FE0003A6C3B6A9A420FD37A6A8023DB019A42B9
:100FF00006D83B6A3B645AE03A6C7B6AD31A3B647E
:101000003A6C3B6A9A42F7D2BA697B6CD31A5B0896
:10101000FA6A5A433B6CD318FB63BB6B002B02DCB0
:10102000FB6B3B6443E0FA6B3B6A9A4237D93B6AFD
:10103000FB6334E03B6C9B0BFA69D3181B785BB203
:101040007B617B6C5A1C7A645A00B9688A185B0011
:10105000B968CB1800215B5E99B27B69386B43435A
:101060001B129BB2CB189BB21BB213807B6C5A1C19
:101070007A645A00B9688A185B00B968CB180021F5
:101080005B5E99B27B69786B43431B129BB2CB18B2
:101090009BB21BB213803A6CFB6AD3183B643A6C68
:1010A000FB6B9A42C6D37A6CBB699A4298D3FB68B1
:1010B0003A6C1A61C046BD4612B080BD9001002056
:1010C00090B587B000AF78607B681800FFF702F931
:1010D0000300FB60FB68002B02DC01235B4226E07F
:1010E000FB681C027B681800FFF7CAF80300634323
:1010F000114A944663447B6101233B6113E03A69E2
:1011000013001B019B1A5B000C331A007B68110053
:101110001800FFF74BF903005B007A69D3187B6175
:101120003B6901333B613B691F2BE8DD7B6918009C
:10113000BD4607B090BDC0463C04000080B58AB0F3
:1011400000AF786039607B681800FFF7C3F80200D1
:10115000844B1A60834B1B68002B05DC814B0022FB
:101160001A6001235B42F9E03B687F4A934202DC4C
:1011700002235B42F2E07D4B7A681A607C4B3A684E
:101180001A607A4B1B687B4A944663441B785BB2B7
:10119000DBB21A007F231A40774B1A60734B1B682F
:1011A000764A944663441B785BB2DBB21A007F2315
:1011B0001A40734B1A60724B1A686F4B1B689A4245
:1011C00002DB6F4B00221A60684B1B68EE22920014
:1011D0009A186C4B1A60654B1B686B4A9A186B4BDC
:1011E0001A60624B1B681800FFF74AF80200684B50
:1011F0001A60674B1B681A025A4B1B685343624ABA
:10120000944663447B6201233B628DE03B6A1A0192
:10121000604BD3187B61554B18683A6A13001B0169
:101220009B1A5B000C331900FFF7C0F803005B004A
:101230003B614E4B19683A6A13001B019B1A5B0015
:101240000E33CB181B785BB2DBB21A000F231340AE
:10125000FB60FB68DBB207221340DAB2FB68DBB24B
:1012600008210B40DBB2D31ADBB20833DAB27B6958
:101270005A703E4B19683A6A13001B019B1A5B00B7
:101280000F33CB181B785BB2DBB21A007F231340FD
:10129000BB60BB68402B00DD4023DAB27B691A706B
:1012A000324B18683A6A13001B019B1A5B0010331B
:1012B0001900FFF77BF803005B00FB612B4B1868FC
:1012C0003A6A13001B019B1A5B0012331900FFF7E7
:1012D0006DF803005B00BB61FA69BB69D2183B691A
:1012E0009A4203DD3A69FB69D31ABB61BB69032BE0
:1012F00003DC3B69FB610023BB61FB699B031A00B4
:101300007B695A60BB699B031A007B699A60174B23
:101310001A687B6AD2187B69DA607A6A3B69D318EB
:101320007B623B6A01333B623B6A1F2B00DC6DE74B
:101330000C4B1B68042B01DD174A00E0174A184BC1
:101340001A60084B1B68042B01DD012200E0022219
:10135000144B1A60002000F027F800231800BD4647
:101360000AB080BD8C0100203F1F000074010020E6
:1013700090030020B603000080010020B7030000A6
:10138000840100207C0100203C0400007801002042
:101390008801002090010020AB2000005F200000A9
:1013A000940300209803002080B584B000AF7860DB
:1013B000314B1B68002B5BDD304B1B687A689A420F
:1013C00001DB00237B602E4B7A681A602D4B0022D4
:1013D0001A602D4B01221A602C4B06221A607D20C8
:1013E000FFF700F82A4B012252421A60284B1A6874
:1013F000284B1A60284B294A1A600023FB602CE016
:10140000FA6813005B009B181B01254A9B18BB6000
:10141000FB68DAB2BB681A77BB6800229A77BB68B0
:101420009A7FBB685A77BB6800221A76FB68032252
:101430001340022B04DC012B08DA002B02D009E058
:10144000032B07D1BB6833225A7603E0BB68CC225A
:101450005A76C046FB680133FB60074B1B68FA688D
:101460009A42CDDBFFF73CFD0E4B00221A6000E0F4
:10147000C046BD4604B080BD8C0100208001002024
:10148000A8030020B0030020B4030020B80300200C
:10149000C0030020BC030020C4030020EFCDAB003C
:1014A000C8030020A003002080B586B000AF78609C
:1014B0003960254B1B68002B42DD00237B613BE03C
:1014C000224B1A68224B1B68D31A3B613A693B686E
:1014D0009A4201DD3B683B610023FB600EE0FA6845
:1014E00013005B009B181B011A4A98183B697A6924
:1014F0007968FFF72FFDFB680133FB60124B1B6817
:10150000FA689A42EBDB124B1A683B69D218104B0F
:101510001A600F4B1A680D4B1B689A4204D1FFF7F3
:10152000DFFC0B4B00221A607A693B69D3187B61A0
:101530003A683B69D31A3B603B68002BC0DC00E093
:10154000C046BD4606B080BD8C0100209C03002033
:10155000A0030020C803002080B500AF0C490D4B4C
:101560000022180004F064FB0B4A0A4B110018001B
:1015700004F08FFB094A074B1100180005F06EFDBF
:10158000044B180004F0A6FBC046BD4680BDC04613
:1015900000000020EC08002054000020340000204F
:1015A00080B584B000AF78607B681B680E4A9342B8
:1015B00015D10E4B0D4AD269802109040A43DA6124
:1015C0000A4BDA6980231B041340FB60FB6800228E
:1015D00000211F2004F08EFA1F2004F0A1FAC0465B
:1015E000BD4604B080BDC046005C00400010024013
:1015F00080B582B000AF78607A6887239B00D258AC
:101600007B68ED33FF331900100004F0B7FBC046D0
:10161000BD4602B080BD90B583B000AF78600A00CF
:10162000FB1C1A707A6887239B00D458FB1C1A781D
:1016300078688C2359001300DB009B1A9B00C318A9
:101640005B181A68FB1C1B781900200004F0F2FBE1
:10165000C046BD4603B090BD80B582B000AF786093
:101660000A00FB1C1A707A6887239B00D058FB1C69
:101670001A7879681300DB009B1A9B00CB1838336B
:101680001A68FB1C1B78190004F03EFCC046BD46DE
:1016900002B080BD80B582B000AF78607A688723E1
:1016A0009B00D358180004F03DFDC046BD4602B073
:1016B00080BD80B584B000AF78600F23FB18012295
:1016C0001A707B689B68022B04D10F23FB18012240
:1016D0001A7004E00F23FB1801221A70C0467A68C2
:1016E00087239B00D2580F23FB181B78190010008A
:1016F00004F0E1FC7A6887239B00D358180004F0BB
:10170000A7FCC046BD4604B080BD000080B582B0D5
:1017100000AF78607A6887239B00D358180004F0E4
:10172000DAFC7B689B69002B05D0054B044A1269E3
:1017300006210A431A61C046BD4602B080BDC046BC
:1017400000ED00E080B582B000AF78607B689B69F7
:10175000002B07D0094B094A126906218A431A61F6
:1017600000F09EF97A6887239B00D358180004F094
:10177000C8FCC046BD4602B080BDC04600ED00E0DA
:1017800080B582B000AF78602E4A87239B007968CD
:10179000D1507A6888239B002A49D150294B2A4A84
:1017A0001A60284B08225A60264B02229A60254B69
:1017B0000022DA60234B02221A61224B00229A6136
:1017C000204B0022DA611F4B00221A621D4B1800C9
:1017D00000F0F7FC031E01D000F0F0FC7A688823CB
:1017E0009B00D05818230022002102F0A7FD7A6840
:1017F00088239B00D05858230022802102F09EFDB0
:101800007A6888239B00D058C0230022812102F0EF
:1018100095FD7A6888239B00D05888235B000022BE
:10182000012102F08BFD7A6888239B00D058802329
:101830005B000022822102F081FD00231800BD46DA
:1018400002B080BD100B0020005C004080B582B06B
:1018500000AF78607A6888239B00D358180000F0A6
:10186000A1FD00231800BD4602B080BD90B583B035
:1018700000AF78600C0010001900FB1C221C1A70CD
:10188000BB1C021C1A703B000A1C1A807A68882351
:101890009B00D058BB1C1C783B001A88FB1C197895
:1018A000230000F0EDFE00231800BD4603B090BDFC
:1018B00080B582B000AF78600A00FB1C1A707A68AD
:1018C00088239B00D258FB1C1B781900100001F0E4
:1018D00051FA00231800BD4602B080BD80B582B029
:1018E00000AF78600A00FB1C1A707A6888239B009E
:1018F000D258FB1C1B781900100001F0A1FF002337
:101900001800BD4602B080BD80B582B000AF7860DF
:101910000A00FB1C1A707A6888239B00D258FB1CB3
:101920001B781900100002F03DF800231800BD4696
:1019300002B080BD80B584B000AF78600A00FB1CA7
:101940001A707A6888239B00D358FB60FB1C1B78B5
:101950005BB2002B0DDAFB1C1B787F221A40F96862
:101960002A201300DB009B1A9B00CB181B181B7846
:101970000DE0FB1C1B787F221A40F8688523590074
:101980001300DB009B1A9B00C3185B181B78180020
:10199000BD4604B080BD80B582B000AF78600A005B
:1019A000FB1C1A707A6888239B00D258FB1C1B789A
:1019B0001900100000F036FE00231800BD4602B0EA
:1019C00080BD90B585B000AFF86008007A6019005E
:1019D0000B23FB18021C1A700823FB180A1C1A8020
:1019E000FA6888239B00D0580823FB181C887A6863
:1019F0000B23FB181978230001F056FD0023180073
:101A0000BD4605B090BD90B585B000AFF860080048
:101A10007A6019000B23FB18021C1A700823FB18AC
:101A20000A1C1A80FA6888239B00D0580823FB18E8
:101A30001C887A680B23FB181978230001F084FBBB
:101A400000231800BD4605B090BD80B582B000AF40
:101A500078600A00FB1C1A707A6888239B00D258B1
:101A6000FB1C1B781900100001F004FD0300180096
:101A7000BD4602B080BD000080B582B000AF786086
:101A8000024B1800BD4602B080BDC046C80600200B
:101A900080B582B000AF7860C046BD4602B080BD60
:101AA00080B500AF00F064FAC046BD4680BD0000BE
:101AB00080B582B000AF02003960FB1D1A703B6830
:101AC00012221A80024B1800BD4602B080BDC046EB
:101AD0001C00002080B582B000AF02003960FB1D01
:101AE0001A703B6804221A80024B1800BD4602B0EF
:101AF00080BDC0463000002080B582B000AF02003B
:101B00003960FB1D1A70FB1D1B78002B06D13A684B
:101B10000849094B180004F0C6FF05E03A6805497A
:101B2000054B180004F0BFFF024B1800BD4602B081
:101B300080BDC046300D00201872000880B582B00C
:101B400000AF02003960FB1D1A703A680449054B6A
:101B5000180004F0A8FF024B1800BD4602B080BD7B
:101B6000300D00203072000880B582B000AF020056
:101B70003960FB1D1A70FB1D1B78002B06D13A68DB
:101B80000849094B180004F08EFF05E03A68054942
:101B9000054B180004F087FF024B1800BD4602B049
:101BA00080BDC046300D00204472000880B582B070
:101BB00000AF02003960FB1D1A70FB1D1B78002B63
:101BC00006D13A680849094B180004F06CFF05E09B
:101BD0003A680549054B180004F065FF024B1800F0
:101BE000BD4602B080BDC046300D002054720008D2
:101BF00080B582B000AF02003960FB1D1A70FB1D7A
:101C00001B78002B06D13A680849094B180004F0EC
:101C10004AFF05E03A680549054B180004F043FF08
:101C2000024B1800BD4602B080BDC046300D0020FA
:101C30006072000880B500AF0749084B0022180009
:101C400005F028FA064A054B1100180005F03EFA87
:101C500000231800BD4680BD340F0020EC08002092
:101C6000300F002080B500AF00231800BD4680BDB6
:101C700080B582B000AF39601100FB1D021C1A70E4
:101C80003B1D0A1C1A80FB1D1B78232B04D89A00CD
:101C9000044BD3181B689F46C04600231800BD465E
:101CA00002B080BDD873000880B582B000AF786004
:101CB00039607A68064B1100180005F007FA044BEA
:101CC000180005F017FA00231800BD4602B080BDC9
:101CD000EC08002080B500AFC046BD4680BD80B591
:101CE00000AFFEE780B500AFC046BD4680BD80B501
:101CF00000AFC046BD4680BD80B500AF03F090FC8C
:101D000003F046FFC046BD4680BD000080B500AF71
:101D1000034B180000F05EFBC046BD4680BDC046C8
:101D2000100B002080B582B000AF124B114A9269AF
:101D300001210A439A610F4B9B69012213407B608A
:101D40007B6805235B4200220021180003F0D2FECD
:101D500002235B4200220021180003F0CBFE012386
:101D60005B4200220021180003F0C4FEC046BD46BD
:101D700002B080BD0010024080B588B000AF78602E
:101D80007B681B68144A934221D1144B134AD269D1
:101D9000802189050A43DA61104BDA6980239B05AB
:101DA0001340BB60BB680C23FB1830221A600C2365
:101DB000FB1803225A600C23FB1800229A600C23A4
:101DC000FA189023DB051100180003F03FFCC04611
:101DD000BD4608B080BDC0460074004000100240FF
:101DE00080B588B000AF78607B681B68264A934254
:101DF00045D1264B254A92698021C9010A439A613F
:101E0000224B9A698023DB011340BB60BB680C2323
:101E1000FB18802252001A600C23FB1802225A6021
:101E20000C23FB1800229A600C23FB180322DA60B3
:101E30000C23FB1801221A610C23FA189023DB05EE
:101E40001100180003F002FC0C23FB18C0221A60DA
:101E50000C23FB1802225A600C23FB1800229A6004
:101E60000C23FB180322DA600C23FB1800221A61F2
:101E70000C23FB18064A1900100003F0E7FBC046CC
:101E8000BD4608B080BDC046003801400010024089
:101E90000004004880B582B000AF03F091FB00F071
:101EA00067F800F023F900F0F3F8FFF755FB00F0B6
:101EB000BFF8284B1800FFF703F903001AB2264BAE
:101EC0001A80264A234B11001800FFF737F9002328
:101ED0007B6007E0224B7A6852000021D1527B6878
:101EE00001337B607B681F4A9342F3D91E4B02216A
:101EF000180003F044FD80231A01194B110018004B
:101F0000FFF7D2FA00237B601FE07B685A00144B76
:101F10005200D35E002B06DD134B01220121180075
:101F200003F010FD05E0104B00220121180003F022
:101F300009FD00233B6002E03B6801333B603B68E6
:101F4000952BF9DD7B6801337B607B68074A934200
:101F5000DBD9BCE768740008380F002080BB0000A4
:101F6000500F0020FF03000000040048FF010000A4
:101F700080B598B000AF2C23FB1820221A602C23C8
:101F8000FB1801221A622C23FB1800225A622C2310
:101F9000FB18180002F00EFD031E01D000F00EF930
:101FA0001C23FB1807221A601C23FB1803225A600B
:101FB0001C23FB1800229A601C23FB180022DA6005
:101FC0001C23FB180121180003F052F8031E01D056
:101FD00000F0F4F83B00154A1A603B0000229A60BA
:101FE0003B0000229A613B00180003F0EBF9031E4E
:101FF00001D000F0E3F803F0C5F90200FA239900DC
:102000001000FEF75DF80300180003F099FD0420AE
:1020100003F0A4FD01235B4200220021180003F01D
:1020200069FDC046BD4618B080BDC0460100020033
:1020300080B582B000AF144B144A1A60124B1800DE
:1020400002F0CBF9031E01D000F0B8F83B000022EB
:102050001A603B0000225A6039000B4B0022180026
:1020600002F0DEF9031E01D000F0A8F83900064B9B
:102070001022180002F0D4F9031E01D000F09EF8DF
:10208000C046BD4602B080BD3C0F00200074004039
:1020900080B500AF134B144A1A60124B96221202FD
:1020A0005A60104B802252059A600E4B0022DA6073
:1020B0000C4B00221A610B4B0C225A61094B002277
:1020C0009A61084B0022DA61064B00221A62054B26
:1020D000180002F0E5F9031E01D000F06FF8C046C9
:1020E000BD4680BD501700200038014080B588B043
:1020F00000AF2F4B2E4A52698021C9030A435A610F
:102100002B4B5A698023DB031340BB60BB68284B11
:10211000274A5269802189020A435A61244B5A692D
:1021200080239B0213407B607B68214B204A5269CD
:102130008021C9020A435A611D4B5A698023DB0280
:1021400013403B603B680C23FB1801221A600C23F0
:10215000FB1800225A600C23FB1800229A600C2303
:10216000FA189023DB051100180003F06FFA0C2316
:10217000FB18104A1A600C23FB1801225A600C232A
:10218000FB1800229A600C23FB180022DA600C2353
:10219000FB18094A1900100003F058FA0549064BCC
:1021A0000022180003F0CEFBC046BD4608B080BD3B
:1021B00000100240070400000004004880B500AF92
:1021C000FEE790B585B000AF78600023FB60002388
:1021D000BB607B68002B01D10123DEE07A68EA2333
:1021E000FF33D35CDBB2002B08D17A68F4235B00A9
:1021F0000021D1547B681800FFF7D2F97A68EA23EE
:10220000FF330321D1540023FB6043E07968FA686F
:1022100029201300DB009B1A9B00CB181B180122FE
:102220001A70FB68DCB27968FA6828201300DB00BA
:102230009B1A9B00CB181B18221C1A707968FA682D
:102240002B201300DB009B1A9B00CB181B180022CD
:102250001A707968FA681300DB009B1A9B00CB1890
:10226000343300221A607968FA681300DB009B1A85
:102270009B00CB18383300221A607968FA68130083
:10228000DB009B1A9B00CB183C3300221A60FB68D2
:102290000133FB607B685A68FB689A42B6D800231A
:1022A000FB604EE07868FA680A23FF3319001300D8
:1022B000DB009B1A9B00C3185B1800221A70FB6896
:1022C000DCB27868FA68842359001300DB009B1A9B
:1022D0009B00C3185B18221C1A707868FA680C23DC
:1022E000FF3319001300DB009B1A9B00C3185B1817
:1022F00000221A707868FA688A2359001300DB00FC
:102300009B1A9B00C3185B1800221A607868FA6851
:102310008C2359001300DB009B1A9B00C3185B1829
:1023200000221A607868FA688E2359001300DB00D7
:102330009B1A9B00C3185B1800221A60FB680133CC
:10234000FB607B685A68FB689A42ABD87B681B6865
:102350004022012199527B681B684022002199523A
:102360007B681B684422002199527B681B685022BD
:1023700000219952BF231B02BB607B681B68BA68AF
:1023800091B2402299527B682422002199547A68A4
:10239000EA23FF330121D15400231800BD4605B0C4
:1023A00090BD000080B582B000AF78607B681A688D
:1023B0007B681B6858215B5A9BB205490B4399B255
:1023C0005823D15200231800BD4602B080BDC0463C
:1023D0000080FFFF80B584B000AF78600023FB6011
:1023E0007B681B6844229B5A9BB21A0080231B0205
:1023F0001A4080231B029A4203D17B68180001F027
:1024000025FC7B681B6844229B5A9BB21A008023E0
:10241000DB001A408023DB009A4214D17B681A68E3
:102420007B681B6844215B5A9BB277490B4099B289
:102430004423D1527B681800FFF73BF97B680021E9
:10244000180000F0EFF87B681B6844229B5A9BB28F
:102450001A008023DB011A408023DB019A420BD152
:102460007B681A687B681B6844215B5A9BB267498A
:102470000B4099B24423D1527B681B6844229B5A7B
:102480009BB21A0080239B011A4080239B019A4231
:102490000BD17B681A687B681B6844215B5A9BB22E
:1024A0005B490B4099B24423D1527B681B6844229C
:1024B0009B5A9BB21A0080235B011A4080235B0168
:1024C0009A4224D17B681A687B681B6840215B5A5A
:1024D0009BB204218B4399B24023D152BD231B02EE
:1024E000FB607B681B68FA6891B2402299527B6856
:1024F0001800FFF727F97B681A687B681B6844217E
:102500005B5A9BB243490B4099B24423D1527B683A
:102510001B6844229B5A9BB21A0080231B011A405D
:1025200080231B019A4234D17B681A687B681B6840
:1025300044215B5A9BB238490B4099B24423D15293
:102540007B681A687B681B6840215B5A9BB2082134
:102550000B4399B24023D1527B681A687B681B6891
:1025600040215B5A9BB204210B4399B24023D152C4
:102570007B681B6844229B5A9BB21A0080235B0134
:102580001A4080235B019A4203D07B681800FFF752
:10259000BDF87B681B6844229B5A9BB21A008023BB
:1025A0009B001A4080239B009A420FD17B681A68D7
:1025B0007B681B6844215B5A9BB218490B4099B257
:1025C0004423D1527B681800FFF764F87B681B68CE
:1025D00044229B5A9BB21A0080235B001A4080233E
:1025E0005B009A420BD17B681A687B681B684421A8
:1025F0005B5A9BB20A490B4099B24423D152C04660
:10260000BD4604B080BDC046FFFBFFFFFFBFFFFF1C
:10261000FFDFFFFFFFEFFFFFFFF7FFFFFFFDFFFF04
:10262000FFFEFFFF80B582B000AF78600A00FB1CA0
:102630001A707A68F4235B00D35C012B01D102236A
:1026400019E07A68F4235B000121D154FB1C1B784C
:10265000002B05D17B681B684C228021995204E035
:102660007B68FA1C242112785A547A68F4235B00A0
:102670000021D15400231800BD4602B080BD0000E7
:1026800090B587B000AF78600C0010001900FB1CFB
:10269000221C1A703B00021C1A80BB1C0A1C1A70F8
:1026A0001123FB1800221A70FB1C1B785BB2002B55
:1026B0000CDAFB1C1B787F221A401300DB009B1AEC
:1026C0009B0028337A68D3187B610CE0FB1C1B78D5
:1026D0007F221A401300DB009B1A9B000933FF3353
:1026E0007A68D3187B61FB1C1B787F221340DAB217
:1026F0007B691A70FB1C1B785BB2DBB2DB09DBB2B7
:102700001A007B695A703B001A887B69DA607B6922
:10271000BA1C1278DA707A68F4235B00D35C012B60
:1027200001D102230FE37A68F4235B000121D15425
:102730007B69DB78012B4CD002DC002B05D060E0FC
:10274000022B1AD0032B2CD05BE07B681B681A008D
:102750007B691B789B00D2187B681B6819007B691A
:102760001B789B00CB181B88B6490B409BB280217D
:1027700089000B439BB2138043E07B681B681A00FF
:102780007B691B789B00D2187B681B6819007B69EA
:102790001B789B00CB181B88AA490B409BB2138067
:1027A0002FE07B681B681A007B691B789B00D2189E
:1027B0007B681B6819007B691B789B00CB181B8802
:1027C000A0490B409BB2C021C9000B439BB21380B0
:1027D00017E07B681B681A007B691B789B00D21886
:1027E0007B681B6819007B691B789B00CB181B88D2
:1027F00094490B409BB28021C9000B439BB21380CC
:10280000C0467B681B681A007B691B789B00D21846
:102810007B681B6819007B691B789B00CB181B88A1
:1028200089490B4099B27B691B789BB20B439BB2E1
:1028300086490B439BB213807B699B7A002B00D0A7
:1028400014E17B695B78002B55D07B681B685022B4
:102850009B5A9BB21A007B691B78DB00D3181A00C5
:102860007B681B68D3188022D200944663441A0008
:102870007B699B885B089BB2DB189BB213807B68EB
:102880001B681A007B691B789B00D3181B881A00F1
:102890004023134015D07B681B681A007B691B78A6
:1028A0009B00D2187B681B6819007B691B789B0012
:1028B000CB181B8864490B409BB265490B439BB204
:1028C00013807B681B681A007B691B789B00D318F8
:1028D0001B88604A13409CB2202363409CB27B68F3
:1028E0001B681A007B691B789B00D318574A224348
:1028F00092B21A801FE27B681B6850229B5A9BB2DF
:102900001A007B691B78DB00D3181A007B681B68F0
:10291000D318514A944663441A007B699B885B082C
:102920009BB2DB189BB213807B681B6850229B5ABA
:102930009BB21A007B691B78DB00D3181A007B68F6
:102940001B68D318454A94466344FB607B69DB6887
:102950003E2B1CD97B69DB685A091223FB181A80AD
:102960007B69DB681F22134006D11223FB181A88EB
:102970001223FB18013A1A801223FB181B889B02B2
:102980009BB2374A13439AB2FB681A8018E07B69FE
:10299000DB685A081223FB181A807B69DB68012266
:1029A000134006D01223FB181A881223FB18013299
:1029B0001A801223FB181B889B029AB2FB681A80AC
:1029C0007B681B681A007B691B789B00D3181B88E7
:1029D0001A008023DB01134015D07B681B681A00A6
:1029E0007B691B789B00D2187B681B6819007B6988
:1029F0001B789B00CB181B8813490B409BB21949CD
:102A00000B439BB213807B681B681A007B691B78A1
:102A10009B00D3181B88144A13409CB280235B018F
:102A200063409CB280239B0163409CB27B681B681F
:102A30001A007B691B789B00D318044A224392B288
:102A40001A8078E18F89FFFF0F0F00008080FFFF61
:102A5000C080FFFFBF8FFFFF0404000006040000DA
:102A60000080FFFF80C0FFFF8FBFFFFF7B681B68F8
:102A70001A007B691B789B00D2187B681B681900C1
:102A80007B691B789B00CB181B88B1490B409BB21C
:102A9000B0490B439BB213807B681B6850229B5A42
:102AA0009BB21A007B691B78DB00D3181A007B6885
:102AB0001B68D3188022D200944663441A007B69B5
:102AC000DB885B089BB2DB189BB213807B681B68BA
:102AD00050229B5A9BB21A007B691B78DB00D318EB
:102AE0001A007B681B68D3189B4A944663441A00FB
:102AF0007B691B895B089BB2DB189BB213807B69E7
:102B00005B78002B00D08FE07B681B681A007B6924
:102B10001B789B00D3181B881A008023DB0113400D
:102B200015D07B681B681A007B691B789B00D21844
:102B30007B681B6819007B691B789B00CB181B887E
:102B400086490B409BB286490B439BB213807B683E
:102B50001B681A007B691B789B00D3181B881A001E
:102B60004023134015D07B681B681A007B691B78D3
:102B70009B00D2187B681B6819007B691B789B003F
:102B8000CB181B8875490B409BB276490B439BB20F
:102B900013807B681B681A007B691B789B00D21826
:102BA0007B681B6819007B691B789B00CB181B880E
:102BB0006A490B409BB26B490B439BB213807B6805
:102BC0001B681A007B691B789B00D3181B88664A18
:102BD00013409CB280235B0163409CB280239B0125
:102BE00063409CB27B681B681A007B691B789B0062
:102BF000D3185E4A224392B21A807B681B681A007F
:102C00007B691B789B00D3181B88594A13409CB2E0
:102C10007B681B681A007B691B789B00D318534A9A
:102C2000224392B21A8086E07B681B681A007B6997
:102C30001B789B00D3181B881A008023DB011340EC
:102C400015D07B681B681A007B691B789B00D21823
:102C50007B681B6819007B691B789B00CB181B885D
:102C60003E490B409BB23E490B439BB213807B68AD
:102C70001B681A007B691B789B00D3181B881A00FD
:102C80004023134015D07B681B681A007B691B78B2
:102C90009B00D2187B681B6819007B691B789B001E
:102CA000CB181B882D490B409BB22E490B439BB27E
:102CB00013807B681B681A007B691B789B00D21805
:102CC0007B681B6819007B691B789B00CB181B88ED
:102CD00022490B409BB222490B439BB213807B6875
:102CE0001B681A007B691B789B00D3181B88204A3D
:102CF00013409CB27B681B681A007B691B789B00A1
:102D0000D3181A4A224392B21A807B681B681A00B1
:102D10007B691B789B00D3181B88134A13409CB215
:102D20007B681B681A007B691B789B00D3180F4ACD
:102D3000224392B21A807A68F4235B000021D154B6
:102D40001123FB181B781800BD4607B090BDC04684
:102D50000F0E00008081FFFF040400000F0F000031
:102D600080C0FFFFC080FFFF8FBFFFFF8080FFFF9D
:102D7000BF8FFFFF90B585B000AF78600A00FB1CE5
:102D80001A70FB1C1B785BB2002B0CDAFB1C1B7847
:102D90007F221A401300DB009B1A9B0028337A68BD
:102DA000D318FB600CE0FB1C1B787F221A40130039
:102DB000DB009B1A9B000933FF337A68D318FB6052
:102DC000FB1C1B787F221340DAB2FB681A70FB1CD5
:102DD0001B785BB2DBB2DB09DBB21A00FB685A700E
:102DE0007A68F4235B00D35C012B01D102239AE1C2
:102DF0007A68F4235B000121D154FB689B7A002B95
:102E000000D076E0FB685B78002B38D07B681B68CD
:102E10001A00FB681B789B00D3181B881A004023FC
:102E2000134015D07B681B681A00FB681B789B0059
:102E3000D2187B681B681900FB681B789B00CB18B5
:102E40001B88BB490B409BB2BA490B439BB2138012
:102E50007B681B681A00FB681B789B00D3181B88D3
:102E6000B54A13409CB27B681B681A00FB681B784C
:102E70009B00D318B14A224392B21A804DE17B687D
:102E80001B681A00FB681B789B00D3181B881A006C
:102E90008023DB01134015D07B681B681A00FB6898
:102EA0001B789B00D2187B681B681900FB681B7895
:102EB0009B00CB181B889E490B409BB2A0490B433B
:102EC0009BB213807B681B681A00FB681B789B0011
:102ED000D3181B889B4A13409CB27B681B681A005E
:102EE000FB681B789B00D318944A224392B21A8045
:102EF00013E1FB685B78002B00D087E07B681B68E0
:102F00001A00FB681B789B00D3181B881A008023CB
:102F1000DB01134015D07B681B681A00FB681B7827
:102F20009B00D2187B681B681900FB681B789B000C
:102F3000CB181B887E490B409BB281490B439BB247
:102F400013807B681B681A00FB681B789B00D318F2
:102F50001B881A004023134015D07B681B681A0099
:102F6000FB681B789B00D2187B681B681900FB6804
:102F70001B789B00CB181B886D490B409BB26D4999
:102F80000B439BB213807B681B681A00FB681B789D
:102F90009B00D2187B681B681900FB681B789B009C
:102FA000CB181B8862490B409BB262490B439BB212
:102FB00013807B681B681A00FB681B789B00D31882
:102FC0001B88604A13409CB27B681B681A00FB6830
:102FD0001B789B00D318594A224392B21A807B680F
:102FE0001B681A00FB681B789B00D3181B88524A89
:102FF00013409CB27B681B681A00FB681B789B001F
:10300000D3184E4A224392B21A8086E07B681B682E
:103010001A00FB681B789B00D3181B881A008023BA
:10302000DB01134015D07B681B681A00FB681B7816
:103030009B00D2187B681B681900FB681B789B00FB
:10304000CB181B883A490B409BB23D490B439BB2BE
:1030500013807B681B681A00FB681B789B00D318E1
:103060001B881A004023134015D07B681B681A0088
:10307000FB681B789B00D2187B681B681900FB68F3
:103080001B789B00CB181B8829490B409BB2294910
:103090000B439BB213807B681B681A00FB681B788C
:1030A0009B00D2187B681B681900FB681B789B008B
:1030B000CB181B881E490B409BB221490B439BB286
:1030C00013807B681B681A00FB681B789B00D31871
:1030D0001B88194A13409CB27B681B681A00FB6866
:1030E0001B789B00D318154A224392B21A807B6842
:1030F0001B681A00FB681B789B00D3181B88114AB9
:1031000013409CB27B681B681A00FB681B789B000D
:10311000D3180A4A224392B21A807A68F4235B00D9
:103120000021D15400231800BD4605B090BDC04613
:103130000F0F0000C080FFFFBF8FFFFF8080FFFFE9
:1031400080C0FFFF8FBFFFFF90B58BB000AFF8606E
:103150007A603B600B23FB180A1C1A700B23FB18C8
:103160001B787F221A401300DB009B1A9B00093357
:10317000FF33FA68D318FB61FB697A681A61FB694F
:103180003A685A61FB6900229A61FB6900225A7011
:103190000B23FB181B787F221340DAB2FB691A70ED
:1031A000FA68F4235B00D35C012B01D1022352E1C6
:1031B000FA68F4235B000121D154FB695A69FB6969
:1031C000DB689A4209D9FB69DB683B60FB695A6995
:1031D0003B68D21AFB695A6105E0FB695B693B6099
:1031E000FB6900225A61FB699B7A002B47D1FB687F
:1031F0001B6850229B5A9BB21A00FB691B78DB00AC
:10320000D3181A00FB681B68D318954A9446634488
:10321000BB613B683E2B1AD93B685A092623FB1831
:103220001A803B681F22134006D12623FB181A88F8
:103230002623FB18013A1A802623FB181B889B02C1
:103240009BB2884A13439AB2BB691A80DFE03B689D
:103250005A082623FB181A803B680122134006D027
:103260002623FB181A882623FB1801321A802623EE
:10327000FB181B889B029AB2BB691A80C7E0FB69E6
:103280005B78002B47D1FB681B6850229B5A9BB28E
:103290001A00FB691B78DB00D3181A00FB681B6857
:1032A000D318714A944663447B613B683E2B1AD91C
:1032B0003B685A092423FB181A803B681F221340DD
:1032C00006D12423FB181A882423FB18013A1A80FC
:1032D0002423FB181B889B029BB2624A13439AB2B9
:1032E0007B691A802FE03B685A082423FB181A8058
:1032F0003B680122134006D02423FB181A8824239C
:10330000FB1801321A802423FB181B889B029AB2F7
:103310007B691A8017E0FB695B78012B13D1FB688E
:103320001B6850229B5A9BB21A00FB691B78DB007A
:10333000D3181A00FB681B68D3184B4A94466344A1
:103340003A6892B21A80FB695B78002B47D1FB6820
:103350001B6850229B5A9BB21A00FB691B78DB004A
:10336000D3181A00FB681B68D3183D4A944663447F
:103370003B613B683E2B1AD93B685A092223FB1854
:103380001A803B681F22134006D12223FB181A889B
:103390002223FB18013A1A802223FB181B889B0268
:1033A0009BB2304A13439AB23B691A802FE03B68C4
:1033B0005A082223FB181A803B680122134006D0CA
:1033C0002223FB181A882223FB1801321A80222399
:1033D000FB181B889B029AB23B691A8017E0FB69B5
:1033E0005B78012B13D1FB681B6850229B5A9BB260
:1033F0001A00FB691B78DB00D3181A00FB681B68F6
:10340000D318194A944663443A6892B21A80FB680A
:103410001B681A00FB691B789B00D3181B88134A92
:1034200013409CB280235B0163409CB280239B01CC
:1034300063409CB2FB681B681A00FB691B789B0009
:10344000D3180B4A224392B21A80FA68F4235B0025
:103450000021D15400231800BD460BB090BDC046DA
:10346000060400000080FFFF020400008FBFFFFF82
:103470008080FFFF80B582B000AF78600A00FB1C3F
:103480001A70FB1C1B787F221A4078689023590021
:103490001300DB009B1A9B00C3185B181B689BB2D0
:1034A0001800BD4602B080BD90B58BB000AFF8608B
:1034B0007A603B600B23FB180A1C1A702623FB184A
:1034C00000221A800B23FB181B787F221A4013005E
:1034D000DB009B1A9B002833FA68D318FB61FB6959
:1034E0007A681A61FB693A685A61FB6900229A613D
:1034F000FB6901225A700B23FB181B787F221340B3
:10350000DAB2FB691A70FA68F4235B00D35C012B12
:1035100001D102237FE1FA68F4235B000121D15439
:10352000FB695A69FB69DB689A4209D9FB69DB6868
:103530003B60FB695A693B68D21AFB695A6105E036
:10354000FB695B693B60FB6900225A61FB699B7AFE
:10355000002B1ED1FB681868FB691969FB699A8802
:103560003B689BB200F0FCFAFB681B6850229B5A38
:103570009BB21A00FB691B78DB00D3181A00FB68AA
:103580001B68D318A64A944663443A6892B21A80DC
:103590001FE1FB681B681A00FB691B789B00D318AE
:1035A0001B881A004023134069D0FB695B78002B0D
:1035B00047D1FB681B6850229B5A9BB21A00FB69DB
:1035C0001B78DB00D3181A00FB681B68D318954AD8
:1035D00094466344BB613B683E2B1AD93B685A0949
:1035E0002423FB181A803B681F22134006D1242392
:1035F000FB181A882423FB18013A1A802423FB188D
:103600001B889B029BB2884A13439AB2BB691A80FB
:103610002FE03B685A082423FB181A803B680122DC
:10362000134006D02423FB181A882423FB180132E8
:103630001A802423FB181B889B029AB2BB691A804C
:1036400017E0FB695B78012B13D1FB681B685022E4
:103650009B5A9BB21A00FB691B78DB00D3181A0037
:10366000FB681B68D3186E4A944663443A6892B26A
:103670001A802623FB18FA6912891A8068E0FB6910
:103680005B78002B47D1FB681B6850229B5A9BB28A
:103690001A00FB691B78DB00D3181A00FB681B6853
:1036A000D3185F4A944663447B613B683E2B1AD92A
:1036B0003B685A092223FB181A803B681F221340DB
:1036C00006D12223FB181A882223FB18013A1A80FC
:1036D0002223FB181B889B029BB2534A13439AB2C6
:1036E0007B691A802FE03B685A082223FB181A8056
:1036F0003B680122134006D02223FB181A8822239C
:10370000FB1801321A802223FB181B889B029AB2F5
:103710007B691A8017E0FB695B78012B13D1FB688A
:103720001B6850229B5A9BB21A00FB691B78DB0076
:10373000D3181A00FB681B68D318394A94466344AF
:103740003A6892B21A802623FB18FA69D2881A8046
:10375000FB681868FB6919693B689CB22623FB1853
:103760001A88230000F0FCF9FB695B78002B16D166
:10377000FB681B681A00FB691B789B00D218FB686A
:103780001B681900FB691B789B00CB181B88274915
:103790000B409BB226490B439BB2138019E0FB6997
:1037A0005B78012B15D1FB681B681A00FB691B783D
:1037B0009B00D218FB681B681900FB691B789B00F3
:1037C000CB181B8819490B409BB21A490B439BB27B
:1037D0001380FB681B681A00FB691B789B00D318D9
:1037E0001B88154A13409CB2102363409CB22023CF
:1037F00063409CB2FB681B681A00FB691B789B0046
:10380000D3180E4A224392B21A80FA68F4235B005E
:103810000021D15400231800BD460BB090BDC04616
:1038200002040000060400000080FFFF0F0F0000EC
:10383000C080FFFF80C0FFFFBF8FFFFF8080FFFFC2
:1038400090B585B000AF78600A00FB1C1A707A68EA
:10385000F4235B00D35C012B01D1022396E07A684C
:10386000F4235B000121D154FB1C1B785BB2002BBD
:103870000CDAFB1C1B787F221A401300DB009B1A1A
:103880009B0028337A68D318FB600AE0FB1C1A7887
:103890001300DB009B1A9B000933FF337A68D318AF
:1038A000FB60FB6801229A70FB1C1B787F2213408F
:1038B000DAB2FB681A70FB1C1B785BB2DBB2DB0967
:1038C000DBB21A00FB685A70FB681B78002B1FD113
:1038D0007B681B681A00FB681B789B00D3181B8849
:1038E0001A002C4B1A40140080235B0163401C001B
:1038F000102363401C007B681B681A00FB681B7860
:103900009B00D318A2B224490A4392B21A8037E02E
:10391000FB685B78002B19D07B681B681A00FB687A
:103920001B789B00D3181B881C4A13409CB21023A1
:1039300063409CB27B681B681A00FB681B789B0085
:10394000D318154A224392B21A8019E07B681B688B
:103950001A00FB681B789B00D3181B88104A134081
:103960009CB280235B0163409CB27B681B681A0099
:10397000FB681B789B00D318074A224392B21A8037
:103980007A68F4235B000021D15400231800BD465F
:1039900005B090BDBFBF00008080FFFFBF8FFFFF5D
:1039A0008FBFFFFF90B585B000AF78600A00FB1CA9
:1039B0001A70FB1C1B785BB2002B0CDAFB1C1B780B
:1039C0007F221A401300DB009B1A9B0028337A6881
:1039D000D318FB600AE0FB1C1A781300DB009B1A6B
:1039E0009B000933FF337A68D318FB60FB68002221
:1039F0009A70FB1C1B787F221340DAB2FB681A70A6
:103A0000FB1C1B785BB2DBB2DB09DBB21A00FB6884
:103A10005A707A68F4235B00D35C012B01D1022336
:103A20008EE07A68F4235B000121D154FB685B7857
:103A3000002B3ED07B681B681A00FB681B789B003C
:103A4000D3181B881A004023134015D07B681B68CD
:103A50001A00FB681B789B00D2187B681B68190052
:103A6000FB681B789B00CB181B8837490B409BB227
:103A700036490B439BB213807B681B681A00FB68B6
:103A80001B789B00D3181B88314A13409CB210232B
:103A900063409CB2202363409CB27B681B681A0081
:103AA000FB681B789B00D3182A4A224392B21A80E3
:103AB00040E07B681B681A00FB681B789B00D318EA
:103AC0001B881A008023DB01134015D07B681B681C
:103AD0001A00FB681B789B00D2187B681B681900D2
:103AE000FB681B789B00CB181B8817490B409BB2C7
:103AF00019490B439BB213807B681B681A00FB6853
:103B00001B789B00D3181B88144A13409CB2802357
:103B10005B0163409CB280239B0163409CB27B6845
:103B20001B681A00FB681B789B00D318094A2243C4
:103B300092B21A807A68F4235B000021D1540023EA
:103B40001800BD4605B090BD0F0F0000C080FFFFFC
:103B5000BF8FFFFF8080FFFF80C0FFFF8FBFFFFF91
:103B600080B588B000AFF860B9601900BB1D1A803D
:103B70003B1D0A1C1A803B1D1B8801335B087B61BF
:103B8000BB1D1A88FB68D3188022D2009446634478
:103B9000BB617B69FB6120E0BB681A781223FB18CC
:103BA0001A80BB680133BB60BB681B789BB21B02E9
:103BB00099B21023FB181222BA1812880A431A80ED
:103BC000BB699A1CBA611022BA1812881A80BB68A5
:103BD0000133BB60FB69013BFB61FB69002BDBD15F
:103BE000C046BD4608B080BD80B588B000AFF86063
:103BF000B9601900BB1D1A803B1D0A1C1A803B1DB1
:103C00001B8801335B087B61BB1D1A88FB68D318D6
:103C10008022D20094466344BB617B69FB610DE066
:103C2000BB685A1CBA60BA69911CB96112881A80C3
:103C3000BB680133BB60FB69013BFB61FB69002B87
:103C4000EED1C046BD4608B080BD000090B589B039
:103C500000AF78601E23FB1800221A800C23FB188B
:103C600000221A804BE30E23FB181B889BB2DAB2AA
:103C70001B23FB180F210A401A701B23FB181B780B
:103C8000002B00D039E10E23FB181B889BB21A00D1
:103C9000102313404CD17B681B6819007B681B689C
:103CA0001B88C74A13409BB20B807B6828337B611B
:103CB0007B681B6850229B5A9BB21A007B691B7859
:103CC000DB00D3181A007B681B68D318BD4A9446E2
:103CD00063441B889B059A0D7B699A617B691A690D
:103CE0007B699B69D2187B691A617B680021180087
:103CF000FDF7B2FC7B6824229B5CDBB2002B00D179
:103D0000FDE27B695B69002B00D0F8E27B681B68F1
:103D10007A682421525CD2B2802149420A43D2B24D
:103D200091B24C2299527B68242200219954E6E2F8
:103D30007B680933FF337B617B681B681A880C231F
:103D4000FB181A800C23FB181B889BB21A008023D7
:103D50001B01134031D07B681B6850229B5A9BB2D9
:103D60001A007B691B78DB00D3181A007B681B687C
:103D7000D318954A944663441B889B059A0D7B692A
:103D80009A617B6818687B68ED33FF3319007B69A3
:103D90009A887B699B699BB2FFF726FF7B681B684B
:103DA00019007B681B681B88884A13409BB20B80F4
:103DB0007B681800FDF71CFCA1E20C23FB181B8894
:103DC0009BB21BB2002B00DB99E27B681B681900D9
:103DD0007B681B681B887D4A13409BB20B807B6805
:103DE0001B6850229B5A9BB21A007B691B78DB0030
:103DF000D3181A007B681B68D318734A944663442F
:103E00001B889B059A0D7B699A617B699B69002BD6
:103E100011D07B6818687B6919697B699A887B690E
:103E20009B699BB2FFF7E0FE7B691A697B699B691E
:103E3000D2187B691A617B6800211800FDF7EBFB43
:103E40007B681B6850229B5A9BB21A007B681B68D8
:103E5000D3185D4A944663443B617B69DB683E2B23
:103E60001CD97B69DB685A091C23FB181A807B6903
:103E7000DB681F22134006D11C23FB181A881C2361
:103E8000FB18013A1A801C23FB181B889B029BB26B
:103E90004F4A13439AB23B691A8018E07B69DB688A
:103EA0005A081C23FB181A807B69DB680122134027
:103EB00006D01C23FB181A881C23FB1801321A8019
:103EC0001C23FB181B889B029AB23B691A807B68F3
:103ED0001B681B883F4A13409CB280235B016340F0
:103EE0009CB280239B0163409CB27B681B681A00D4
:103EF000394B23439BB2138001E27B681B681A0095
:103F00001B23FB181B789B00D3181A880C23FB1863
:103F10001A800C23FB181B889BB21BB2002B00DB02
:103F2000FAE07B681B681A001B23FB181B789B00B8
:103F3000D2187B681B6819001B23FB181B789B0099
:103F4000CB181B8821490B409BB213801B23FB1805
:103F50001A781300DB009B1A9B000933FF337A6841
:103F6000D3187B617B699B7A002B37D17B681B68F8
:103F700050229B5A9BB21A007B691B78DB00D31836
:103F80001A007B681B68D3180F4A944663441A884A
:103F90001E23FB189205920D1A801E23FB181B8806
:103FA000002B00D18CE07B6818687B6919697B69FC
:103FB0009A881E23FB181B88FFF716FE80E0C04678
:103FC0000F8FFFFF02040000060400008F0F0000A7
:103FD0000080FFFF8FBFFFFF8080FFFF7B681B68B3
:103FE0001A007B691B789B00D3181B881A0080235A
:103FF000DB01134027D07B681B6850229B5A9BB281
:104000001A007B691B78DB00D3181A007B681B68D9
:10401000D318C44A944663441A881E23FB18920599
:10402000920D1A801E23FB181B88002B32D07B6850
:1040300018687B6919697B69DA881E23FB181B885D
:10404000FFF7D2FD26E07B681B6850229B5A9BB28B
:104050001A007B691B78DB00D3181A007B681B6889
:10406000D318B14A944663441A881E23FB1892055C
:10407000920D1A801E23FB181B88002B0AD07B6828
:1040800018687B6919697B691A891E23FB181B88CC
:10409000FFF7AAFD7B681B681A007B691B789B00F1
:1040A000D2187B681B6819007B691B789B00CB18B2
:1040B0001B889E490B409BB29D490B439BB21380CA
:1040C0007B699A691E23FB181B88D2187B699A6149
:1040D0007B691A691E23FB181B88D2187B691A6139
:1040E0007B695B69002B06D01E23FB181A887B694D
:1040F000DB689A4207D27B691A787B681100180046
:10410000FDF789FA08E07B6919787B691A697B6990
:104110005B697868FFF718F80C23FB181B889BB2C3
:104120001A008023134000D1E9E01B23FB181A7802
:104130001300DB009B1A9B0028337A68D3187B613D
:104140007B681B681A001B23FB181B789B00D21886
:104150007B681B6819001B23FB181B789B00CB187E
:104160001B8874490B409BB213807B699B7A002BA0
:1041700026D17B681B6850229B5A9BB21A007B6930
:104180001B78DB00D3181A007B681B68D318654ABC
:10419000944663441B889B059A0D7B699A617B69F1
:1041A0009B69002B00D178E07B6818687B691969EE
:1041B0007B699A887B699B699BB2FFF7D1FC6CE0B5
:1041C0007B681B681A007B691B789B00D3181B88CF
:1041D0001A004023134025D07B681B6850229B5A4D
:1041E0009BB21A007B691B78DB00D3181A007B682E
:1041F0001B68D3184B4A944663441B889B059A0D51
:104200007B699A617B699B69002B30D07B68186859
:104210007B6919697B69DA887B699B699BB2FFF7C7
:104220009FFC24E07B681B6850229B5A9BB21A00BB
:104230007B691B78DB00D3181A007B681B68D318D6
:10424000394A944663441B889B059A0D7B699A61A1
:104250007B699B69002B0AD07B6818687B691969A8
:104260007B691A897B699B699BB2FFF779FC7B6844
:104270001B681A007B691B789B00D2187B681B683F
:1042800019007B691B789B00CB181B8827490B40C2
:104290009BB229490B439BB213807B681B68502259
:1042A0009B5A9BB21A007B691B78DB00D3181A005B
:1042B0007B681B68D3181B4A944663441B889B0584
:1042C0009A0D7B699A617B691A697B699B69D2182F
:1042D0007B691A617B695B69002B07D17B691A785E
:1042E0007B6811001800FDF7B7F908E07B691978C1
:1042F0007B691A697B695B697868FFF7D5F87B6829
:104300001B6844229B5A9AB20E23FB18111C198079
:1043100013B2002B00DAA6E400231800BD4609B052
:1043200090BDC04602040000060400000F0F00000C
:10433000C080FFFF0F8FFFFF80C0FFFF80B586B0FA
:1043400000AFF860080011007B600A23FB18021C14
:104350001A800823FB180A1C1A800A23FB181B88E2
:10436000802213409BB2002B0DD00A23FB181B8820
:104370007F221A401300DB009B1A9B002833FA6847
:10438000D3187B610BE00A23FB181A881300DB00AB
:104390009B1A9B000933FF33FA68D3187B6108230B
:1043A000FB181B88002B07D17B6900229A727B685F
:1043B0009AB27B699A800BE07B6901229A727B68D2
:1043C0009AB27B69DA807B681B0C9AB27B691A818E
:1043D00000231800BD4606B080BD80B582B000AF96
:1043E00078607B68002B01D1012315E07B681B7985
:1043F000DBB2002B06D17B6800225A717B68180063
:10440000FDF7BAFC7B6802221A717B6800221A61F0
:104410007B6801221A7100231800BD4602B080BDDE
:1044200080B586B000AFF860B9607A6000237B6128
:1044300000233B61FB685B79012B01D1022329E05A
:10444000FB6801225A71FB6802221A71FB681B6823
:104450001B687B61114A7B689A401300DA437B69D1
:1044600013407B61BB681A68BB685B6813433B61A0
:104470003A697B689A4013007A6913437B61FB6851
:104480001B687A691A60FB6801221A71FB680022B6
:104490005A7100231800BD4606B080BDFE0F000013
:1044A00080B582B000AF78607B68002B01D101231A
:1044B0003FE07B6841229B5CDBB2002B07D17B682D
:1044C0004022002199547B681800FDF789FC7B6825
:1044D0004122022199547B681B687A68126812682D
:1044E00001218A431A607B68180000F029F8030054
:1044F000012B01D101231CE07B681B687A681268DC
:1045000052680E490A405A607B681B687A681268D4
:1045100092682A218A439A607B681B687A681268CD
:10452000126801210A431A607B68180000F05EF9E6
:1045300003001800BD4602B080BDC046FFBFFFFFAC
:1045400080B586B000AF786000233B611723FB186D
:1045500010221A701623FB1800221A700E23FB1863
:1045600000221A801423FB1800221A807B689A68A4
:104570007B681B691A437B685B69134380221202C4
:1045800013433B617B681B687A68126812688F4925
:1045900011403A690A431A6080231B013B617B6822
:1045A0009A697B68DB6913433A6913433B617B6813
:1045B0001A6A7B68DB6813433A6913433B617B6883
:1045C0001B687A6812685268814911403A690A4347
:1045D0005A607B681B687F4A934225D17E4B1B6BD8
:1045E00003221340012B0FD004D3022B11D0032B35
:1045F00005D013E01723FB1800221A7064E017237C
:10460000FB1802221A705FE01723FB1804221A70AD
:104610005AE01723FB1808221A7055E01723FB18DD
:1046200010221A70C0464FE07B681B686B4A9342A9
:1046300032D1694B1A6BC0239B0213408022520275
:10464000934219D080225202934202D8002B09D003
:104650001CE080229202934213D0C0229202934225
:1046600005D013E01723FB1800221A702CE0172343
:10467000FB1802221A7027E01723FB1804221A7075
:1046800022E01723FB1808221A701DE01723FB18DD
:1046900010221A70C04617E07B681B68504A93428C
:1046A00004D11723FB1800221A700DE07B681B68E9
:1046B0004C4A934204D11723FB1800221A7003E0DE
:1046C0001723FB1810221A701723FB181B78022BD4
:1046D0001CD002DC002B05D04FE0042B27D0082B88
:1046E00039D04AE000F058FE03005A007B685B684E
:1046F0005B08D2187B685B6819001000FBF7E0FCD0
:1047000003001A001423FB181A803BE07B685B68E7
:104710005B08354A9A187B685B6819001000FBF744
:10472000CFFC03001A001423FB181A802AE000F0C3
:10473000A7FD03005A007B685B685B08D2187B68A2
:104740005B6819001000FBF7BBFC03001A00142380
:10475000FB181A8016E07B685B685B0880225202B7
:104760009A187B685B6819001000FBF7A9FC03002E
:104770001A001423FB181A8004E01623FB180122E8
:104780001A70C0460E23FB181422BA1812880F2183
:104790008A431A801423FB181B885B109BB20722E4
:1047A000134099B20E23FB180E22BA1812880A433E
:1047B0001A807B681B680E22BA181288DA601623EA
:1047C000FB181B781800BD4606B080BDF369FFEFEB
:1047D000FFC0FFFF003801400010024000440040CD
:1047E00000480040004C00400024F40080B582B036
:1047F00000AF78607B6800225A647B681B681E4AA1
:10480000934204D07B681B681C4A934227D17B6883
:104810001B681B6808221340082B0CD1FA239A004E
:104820008023990378681300002200F029F8031E02
:1048300001D003231CE07B681B681B680422134023
:10484000042B0CD1FA239A008023D9037868130033
:10485000002200F015F8031E01D0032308E07B6856
:104860004122012199547B68402200219954002360
:104870001800BD4602B080BD003801400044004031
:1048800080B586B000AFF860B9603B60FB1D1A7060
:1048900000F0D2FE03007B61FB1D1B78002B00D0D3
:1048A00079E037E03B68013334D03B68002B07D018
:1048B00000F0C2FE02007B69D21A3B689A4229D9F5
:1048C000FB681B68FA681268126880218A431A60C4
:1048D000FB681B68FA681268126820218A431A6014
:1048E000FB681B68FA681268126831490A401A604E
:1048F000FB681B68FA681268926801218A439A6013
:10490000FB68412201219954FB68402200219954FF
:10491000032349E0FB681B68DB69BA681A40BB687F
:104920009A42BFD13FE03B68013334D03B68002B53
:1049300007D000F081FE02007B69D21A3B689A42E0
:1049400029D9FB681B68FA681268126880218A43BB
:104950001A60FB681B68FA681268126820218A4393
:104960001A60FB681B68FA681268126810490A40EE
:104970001A60FB681B68FA681268926801218A4312
:104980009A60FB68412201219954FB684022002172
:104990009954032308E0FB681B68DB69BA681A4076
:1049A000BB689A42BFD000231800BD4606B080BD48
:1049B000FFFEFFFF80B586B000AF786000233B614B
:1049C0007B681B680122134000D18DE0C54B5B68FA
:1049D0000C221340042B0ED0C24B5B680C221340F8
:1049E000082B16D1BF4B5A68C0235B021A408023A4
:1049F0005B029A420DD1BB4B1A6880239B02134085
:104A000000D170E07B685B68002B00D06BE0012375
:104A100027E37B685B68012B07D1B24BB14A126870
:104A2000802149020A431A602FE07B685B68002BF3
:104A30000CD1AC4BAB4A1268AB490A401A60A94B87
:104A4000A84A1268A9490A401A601EE07B685B68A0
:104A5000052B0ED1A34BA34A12688021C9020A4339
:104A60001A60A04B9F4A1268802149020A431A60CB
:104A70000BE09C4B9B4A12689B490A401A60994B79
:104A8000984A126899490A401A607B685B68002B53
:104A900014D000F0D1FD03003B6108E000F0CCFD34
:104AA00002003B69D31A642B01D90323D9E28D4B51
:104AB0001A6880239B021340F0D015E000F0BCFD83
:104AC00003003B6108E000F0B7FD02003B69D31A28
:104AD000642B01D90323C4E2824B1A6880239B0212
:104AE0001340F0D100E0C0467B681B6802221340EF
:104AF00000D16CE07B4B5B680C2213400ED0794BED
:104B00005B680C221340082B1FD1764B5A68C023D8
:104B10005B021A4080231B029A4216D1714B1B681C
:104B20000222134005D07B68DB68012B01D00123F2
:104B300097E26C4A6B4B1B68F8218B4319007B682A
:104B40001B69DB000B43136041E07B68DB68002BD3
:104B500024D0644B634A126801210A431A6000F0B2
:104B60006BFD03003B6108E000F066FD02003B695D
:104B7000D31A022B01D9032373E25A4B1B6802227A
:104B80001340F1D0574A574B1B68F8218B4319004B
:104B90007B681B69DB000B43136018E0514B514AE3
:104BA000126801218A431A6000F046FD03003B6150
:104BB00008E000F041FD02003B69D31A022B01D945
:104BC00003234EE2474B1B6802221340F1D17B685E
:104BD0001B680822134036D07B68DB69002B19D094
:104BE000404B404A526A01210A435A6200F024FDB8
:104BF00003003B6108E000F01FFD02003B69D31A8F
:104C0000022B01D903232CE2364B5B6A02221340AC
:104C1000F1D018E0334B334A526A01218A435A6279
:104C200000F00AFD03003B6108E000F005FD020012
:104C30003B69D31A022B01D9032312E2294B5B6A89
:104C400002221340F1D17B681B680422134000D17B
:104C5000B6E01723FB1800221A70224BDA69802372
:104C60005B05134011D11F4B1E4AD26980214905B3
:104C70000A43DA611B4BDA6980235B051340FB6052
:104C8000FB681723FB1801221A70194B1A6880233E
:104C90005B0013401AD1164B154A12688021490057
:104CA0000A431A6000F0C8FC03003B6108E000F012
:104CB000C3FC02003B69D31A642B01D90323D0E162
:104CC0000B4B1A6880235B001340F0D07B689B6815
:104CD000012B0FD1034B034A126A01210A431A62C6
:104CE00036E0C04600100240FFFFFEFFFFFFFBFF63
:104CF000007000407B689B68002B0CD1C94BC94AEF
:104D0000126A01218A431A62C64BC64A126A0421FA
:104D10008A431A621CE07B689B68052B0CD1C14B4F
:104D2000C04A126A04210A431A62BE4BBD4A126A83
:104D300001210A431A620BE0BA4BBA4A126A0121F6
:104D40008A431A62B74BB74A126A04218A431A622D
:104D50007B689B68002B14D000F06EFC03003B6165
:104D600009E000F069FC02003B69D31AAE4A9342A5
:104D700001D9032375E1AB4B1B6A02221340F0D02B
:104D800013E000F059FC03003B6109E000F054FC23
:104D900002003B69D31AA44A934201D9032360E17C
:104DA000A04B1B6A02221340F0D11723FB181B787B
:104DB000012B05D19B4B9B4AD2699C490A40DA6181
:104DC0007B681B681022134063D07B685B69012BF2
:104DD0002AD1944B934A526B04210A435A63914B54
:104DE000904A526B01210A435A6300F025FC0300EC
:104DF0003B6108E000F020FC02003B69D31A022B63
:104E000001D903232DE1874B5B6B02221340F1D0C4
:104E1000844A844B5B6BF8218B4319007B689B6948
:104E2000DB000B43536334E07B685B69053311D1CE
:104E30007C4B7C4A526B04218A435A63794A794BF2
:104E40005B6BF8218B4319007B689B69DB000B438C
:104E500053631EE0734B734A526B04210A435A6337
:104E6000704B704A526B01218A435A6300F0E4FB95
:104E700003003B6108E000F0DFFB02003B69D31A4E
:104E8000022B01D90323ECE0664B5B6B022213403B
:104E9000F1D17B681B68202213405CD0614B5B68BA
:104EA0000C2213400C2B0ED05E4B5B680C2213407F
:104EB000082B14D15B4B5A68C0235B021A40C023F5
:104EC0005B029A420BD1574B5A6B80235B02134013
:104ED00040D07B681B6A012B3CD00123C1E07B687A
:104EE0001B6A002B1BD04F4B4E4A526B802149024C
:104EF0000A435A6300F0A0FB03003B6108E000F0A6
:104F00009BFB02003B69D31A022B01D90323A8E0C3
:104F1000444B5A6B80235B021340F0D01BE0414BA3
:104F2000404A526B42490A405A6300F085FB030035
:104F30003B6108E000F080FB02003B69D31A022BC2
:104F400001D903238DE0374B5A6B80235B0213405A
:104F5000F0D100E0C0467B685B6A002B00D17FE0A7
:104F6000304B5B680C221340082B00D176E07B6845
:104F70005B6A022B4BD12B4B2A4A12682D490A40FF
:104F80001A6000F059FB03003B6108E000F054FB9D
:104F900002003B69D31A022B01D9032361E0214BA4
:104FA0001A6880239B041340F0D11E4A1D4BDB6A14
:104FB0000F218B4319007B681B6B0B43D362194A8B
:104FC000184B5B681C4919407B68D86A7B689B6AF0
:104FD00003430B435360134B124A12688021490468
:104FE0000A431A6000F028FB03003B6108E000F070
:104FF00023FB02003B69D31A022B01D9032330E0C3
:10500000084B1A6880239B041340F0D028E0054B1E
:10501000044A126807490A401A6000F00DFB0300B9
:105020003B6114E00010024088130000FFFFFFEF17
:10503000FFFFFEFFFFFFFFFEFF7FC2FF00F0FCFA55
:1050400002003B69D31A022B01D9032309E0074B65
:105050001A6880239B041340F0D101E0012300E093
:1050600000231800BD4606B080BDC04600100240B7
:1050700080B584B000AF786039600023FB607A4B64
:105080001B6801221A403B689A4211D2764B764A3D
:10509000126801218A4311003A680A431A60724B70
:1050A0001B6801221A403B689A4201D00123D7E0D5
:1050B0007B681B680222134009D06C4A6B4B5B680B
:1050C000F0218B4319007B689B680B4353607B681E
:1050D0001B680122134000D189E07B685B68012BCB
:1050E00007D1624B1A6880239B02134020D1012311
:1050F000B6E07B685B68022B07D15C4B1A688023A3
:105100009B04134014D10123AAE07B685B68032B46
:1051100007D1564B5A6B80235B02134008D1012301
:105120009EE0524B1B680222134001D1012397E0FD
:105130004E4A4E4B5B6803218B4319007B685B68CA
:105140000B43536000F078FA0300FB607B685B68F8
:10515000012B11D109E000F06FFA0200FB68D31AAD
:10516000434A934201D903237AE0404B5B680C2207
:105170001340042BEFD13AE07B685B68022B11D11E
:1051800009E000F059FA0200FB68D31A384A93424A
:1051900001D9032364E0354B5B680C221340082BD4
:1051A000EFD124E07B685B68032B1BD109E000F0A2
:1051B00043FA0200FB68D31A2D4A934201D9032314
:1051C0004EE02A4B5B680C2213400C2BEFD10EE013
:1051D00000F032FA0200FB68D31A254A934201D943
:1051E00003233DE0214B5B680C221340F0D11E4BA2
:1051F0001B6801221A403B689A4211D91A4B1A4A7D
:10520000126801218A4311003A680A431A60164B5A
:105210001B6801221A403B689A4201D001231FE01B
:105220007B681B680422134008D0104A0F4B5B6850
:10523000104919407B68DB680B43536000F020F88D
:1052400001000A4B5B681B090F2213400A4AD35C1A
:105250000A00DA40094B1A60002000F0C5F900236B
:105260001800BD4604B080BD00200240001002407E
:1052700088130000FFF8FFFF40CD00084400002025
:1052800080B58EB000AF1423FA18394B1000190006
:1052900010231A0001F0AAFF3A1D364B1000190026
:1052A00010231A0001F0A2FF0023FB620023BB625F
:1052B00000237B6300237B6200233B632E4B5B68F0
:1052C000FB62FB6A0C221340082B06D00C2B43D048
:1052D000042B44D1294B3B6344E0FB6A9B0C0F2217
:1052E00013401422BA18D35C7B62234BDB6A0F2273
:1052F00013403A1DD35CBB62FA6AC0235B021A40BA
:1053000080235B029A4209D1B96A1C48FAF7D8FE99
:1053100003001A007B6A53437B631AE0FA6AC023D6
:105320005B021A40C0235B029A4209D1B96A144851
:10533000FAF7C6FE03001A007B6A53437B6308E05A
:10534000B96A0E48FAF7BCFE03001A007B6A5343A1
:105350007B637B6B3B6305E0094B3B6302E0074BE0
:105360003B63C0463B6B1800BD460EB080BDC046D7
:1053700070720008807200080010024000127A006B
:10538000006CDC0280B500AF024B1B681800BD4604
:1053900080BDC0464400002080B500AFFFF7F2FF9B
:1053A0000100064B5B681B0A07221340044AD35CCA
:1053B000D9400B001800BD4680BDC0460010024019
:1053C00050CD000880B586B000AF786000233B6107
:1053D0000023FB607B681A6880235B02134000D1C6
:1053E0008EE01723FB1800221A706E4BDA698023B7
:1053F0005B05134011D16B4B6A4AD2698021490584
:105400000A43DA61674BDA6980235B051340BB60AE
:10541000BB681723FB1801221A70634B1A6880239C
:105420005B0013401AD1604B5F4A1268802149002B
:105430000A431A6000F000F903003B6108E000F045
:10544000FBF802003B69D31A642B01D90323A4E0C3
:10545000554B1A6880235B001340F0D0514B1A6AF9
:10546000C0239B001340FB60FB68002B34D07B689B
:105470005A68C0239B001A40FB689A422CD0494BC3
:105480001B6A4A4A1340FB60464B464A126A802117
:1054900049020A431A62434B424A126A44490A408B
:1054A0001A62404BFA681A62FB680122134013D05B
:1054B00000F0C2F803003B6109E000F0BDF8020013
:1054C0003B69D31A3B4A934201D9032365E0354B2C
:1054D0001B6A02221340F0D0324A324B1B6A334916
:1054E00019407B685B680B4313621723FB181B781A
:1054F000012B05D12B4B2B4AD2692F490A40DA6187
:105500007B681B680122134009D0264A254B1B6B80
:1055100003218B4319007B689B680B4313637B68F3
:105520001B680222134008D01E4A1E4B1B6B2349E6
:1055300019407B68DB680B4313637B681B68202280
:10554000134009D0174A174B1B6B10218B431900CE
:105550007B681B690B4313637B681A6880239B027B
:10556000134009D00F4A0F4B1B6B80218B4319004E
:105570007B689B690B4313637B681A688023DB009D
:10558000134009D0074A074B1B6B40218B4319007E
:105590007B685B690B43136300231800BD4606B0AC
:1055A00080BDC0460010024000700040FFFCFFFFBD
:1055B000FFFFFEFF88130000FFFFFFEFFFFFFCFF70
:1055C00080B500AF074B074A126810210A431A60E2
:1055D000002000F009F8FCF7A5FB00231800BD46E9
:1055E00080BDC0460020024080B582B000AF786028
:1055F000FFF7C8FE0200FA2399001000FAF760FDD9
:105600000300180000F09CFA796801235B42002235
:10561000180000F06FFA00231800BD4602B080BDEC
:1056200080B500AF034B1B685A1C024B1A60C04682
:10563000BD4680BD9817002080B500AF024B1B68A7
:105640001800BD4680BDC0469817002080B586B0C2
:1056500000AF7860396000237B610023FB6000238A
:105660003B6155E13B681B6801217A6991400A0062
:105670001340FB60FB68002B00D146E13B685B6890
:10568000022B03D03B685B68122B23D17B69DA08BD
:105690007B6808329200D3583B617B690722134034
:1056A0009B000F229A401300DA433B6913403B6191
:1056B0003B681A697B6907210B409B009A401300E5
:1056C0003A6913433B617B69DA087B6808329200D0
:1056D0003969D1507B681B683B617B695B000322A1
:1056E0009A401300DA433B6913403B613B685B68B7
:1056F00003221A407B695B009A4013003A69134306
:105700003B617B683A691A603B685B68012B0BD090
:105710003B685B68022B07D03B685B68112B03D0AA
:105720003B685B68122B30D17B689B683B617B696F
:105730005B0003229A401300DA433B6913403B614C
:105740003B68DA687B695B009A4013003A6913434F
:105750003B617B683A699A607B685B683B610122C8
:105760007B699A401300DA433B6913403B613B6815
:105770005B681B0901221A407B699A4013003A6951
:1057800013433B617B683A695A607B68DB683B6125
:105790007B695B0003229A401300DA433B691340A4
:1057A0003B613B689A687B695B009A4013003A69E9
:1057B00013433B617B683A69DA603B685A6880232F
:1057C0005B05134000D1A0E0574B574A9269012175
:1057D0000A439A61544B9B6901221340BB60BB682A
:1057E000524A7B699B0802339B009B583B617B6953
:1057F000032213409B000F229A401300DA433B69B7
:1058000013403B617A689023DB059A4219D07B688C
:10581000474A934213D07B68464A93420DD07B6837
:10582000454A934207D07B68444A934201D10423FE
:1058300008E0052306E0032304E0022302E001233D
:1058400000E000237A6903210A40920093403A69FC
:1058500013433B6135497B699B0802339B003A69DE
:105860005A50374B1B683B61FB68DA433B69134076
:105870003B613B685A6880235B02134003D03A695E
:10588000FB6813433B612E4B3A691A602C4B5B68F3
:105890003B61FB68DA433B6913403B613B685A68F4
:1058A00080239B02134003D03A69FB6813433B619A
:1058B000234B3A695A60224B9B683B61FB68DA4391
:1058C0003B6913403B613B685A6880235B0313408C
:1058D00003D03A69FB6813433B61194B3A699A60FC
:1058E000174BDB683B61FB68DA433B6913403B6164
:1058F0003B685A6880239B03134003D03A69FB68D6
:1059000013433B610E4B3A69DA607B6901337B617B
:105910003B681A687B69DA40131E00D0A2E6C046D5
:10592000BD4606B080BDC0460010024000000140E8
:105930000004004800080048000C0048001000481F
:105940000004014080B582B000AF7860080011000B
:10595000BB1C021C1A807B1C0A1C1A707B1C1B7847
:10596000002B04D0BB1C1A887B689A6103E0BB1C27
:105970001A887B689A62C046BD4602B080BD80B579
:1059800082B000AF78600A00BB1C1A807B685A693D
:10599000BB1C1B885A407B685A61C046BD4602B09A
:1059A00080BD000080B582B000AF0200FB1D1A7000
:1059B000064BFA1D127811001F220A400121914066
:1059C0000A001A60C046BD4602B080BD00E100E09A
:1059D000B0B582B000AF02003960FB1D1A70FB1D2C
:1059E0001B787F2B32D92F4CFB1D1B781A000F23FD
:1059F0001340083B99082B4AFB1D1B7818000F2306
:105A00000340083B9B0806339B00D31804331B68F4
:105A1000FA1D1278100003220240D200FF209040AD
:105A20000200D2431A403B689B01FF201840FB1D37
:105A30001B781D0003232B40DB00984003001A4312
:105A40008B1D9B00E31804331A6027E0164CFB1DE6
:105A50001B785BB29B081449FA1D127852B2920867
:105A6000C03292005258F91D097808000321014004
:105A7000C900FF2088400100C94311403A689201E3
:105A8000FF201040FA1D1278150003222A40D20090
:105A9000904002000A43C0339B001A51C046BD46E5
:105AA00002B0B0BD00ED00E000E100E080B582B0E2
:105AB00000AF78607B68013B0C4A934201D9012317
:105AC00010E00B4B7A68013A5A6001235B420321D4
:105AD0001800FFF77DFF064B00229A60044B072257
