:020000040800F2
:100000000040002005440008591500086315000849
:1000100000000000000000000000000000000000E0
:10002000000000000000000000000000691500084A
:100030000000000000000000731500087D15000896
:10004000554400085544000855440008554400082C
:10005000554400085544000855440008554400081C
:1000600055440008554400089115000855440008FF
:1000700055440008554400085544000855440008FC
:1000800055440008554400085544000855440008EC
:1000900055440008554400085544000855440008DC
:1000A00055440008554400085544000855440008CC
:1000B00055440008554400085544000855440008BC
:1000C000002934D00123002210B488422CD301240B
:1000D0002407A14204D2814202D209011B01F8E7A0
:1000E000E400A14204D2814202D249005B00F8E759
:1000F000884201D3401A1A434C08A04202D3001B85
:100100005C0822438C08A04202D3001B9C082243B7
:10011000CC08A04202D3001BDC082243002803D0F5
:100120001B0901D00909E3E7101C10BC7047002827
:1001300001D00020C04307B4024802A14018029039
:1001400003BDC046D90000000029F0D003B5FFF779
:10015000B9FF0EBC4243891A1847C046002941D056
:1001600010B4041C4C40A44601230022002900D5F1
:100170004942002800D5404288422CD3012424075C
:10018000A14204D2814202D209011B01F8E7E40036
:10019000A14204D2814202D249005B00F8E78842C2
:1001A00001D3401A1A434C08A04202D3001B5C083A
:1001B00022438C08A04202D3001B9C082243CC0897
:1001C000A04202D3001BDC082243002803D01B09F5
:1001D00001D00909E3E7101C6446002C00D5404219
:1001E00010BC7047002806D003DB0020C043400845
:1001F00001E08020000607B4024802A140180290E6
:1002000003BDC046190000000029EBD003B5FFF77D
:10021000A7FF0EBC4243891A1847C0467047C04624
:1002200010B5064C2378002B07D1054B002B02D0CC
:10023000044800E000BF0123237010BD68000020C7
:1002400000000000D84C0008084B10B5002B03D06C
:100250000749084800E000BF07480368002B03D0A7
:10026000064B002B00D0984710BDC0460000000090
:100270006C000020D84C000868000020000000003E
:1002800080B586B000AF786000237B6100233B61BE
:1002900018E03B69EE229200944663441A007B68A2
:1002A0009B181B785BB2DBB21A007F231340FB6004
:1002B000FA687B699A4202DBFB6801337B613B6928
:1002C00001333B613B697F2BE3DD7B691800BD4651
:1002D00006B080BD80B584B000AF78607B682A4AE4
:1002E000944663441B785BB21B027A6827498C46AC
:1002F0006244127852B21343254A934212D0244AE0
:10030000934206DC234A934219D0234A93420CD0ED
:100310002DE0224A934205D0214A934202D0214A3D
:10032000934224D10423FB6024E07B688722D2001F
:10033000944663441B785BB2303BFB601AE07B68F9
:100340008722D200944663441B785BB2303B1A008C
:1003500013009B009B185B001A007B6812498C46B7
:1003600063441B785BB2303BD318FB6002E0002390
:10037000FB60C046FB68102B01DD0023FB60FB68BF
:100380001800BD4604B080BD3A0400003B040000E4
:10039000214B0000484300004E4800002E5400004E
:1003A000345400002E4B00003904000080B582B0A8
:1003B00000AF786039603B687A68D3181B785BB20D
:1003C0001B021B041A0C3B6801337968CB181B789D
:1003D0005BB21900FF230B4013431800BD4602B067
:1003E00080BD000080B582B000AF7860094B1B680B
:1003F0005A00084B1B685B10D31879681800FFF788
:10040000ADFE03001A00044B1A60C046BD4602B0A0
:1004100080BDC046A0020020AC02002080B586B09E
:1004200000AF78607B68DB8819007B682B229B56C5
:10043000CB187B617B682C229B561A00254B5200FF
:10044000D35A1A007B695343DB127B617B695A10D4
:100450007B6901210B40D3187B617B690D2B02DC8A
:10046000D6235B017B611C4B1B68D6225200534391
:1004700079691800FFF772FE0300FB60FB689A03BE
:10048000164B1B6819001000FFF71AFE03001A0034
:100490007B685A617B681B7E19007B682A229B5609
:1004A000CB183B613B69402B01DD40233B613B693D
:1004B000002B01DA00233B613B69DAB2084B1B6871
:1004C000DBB25343DAB27B68DA76C046BD4606B08B
:1004D00080BDC046484D0008A4020020A0020020B4
:1004E000A802002080B584B000AF78607B68DB880C
:1004F000FB607B681B89BB60FA68BB689A420CDAB8
:100500007B68DB7F1A00FB689B18FB60FA68BB689E
:100510009A4212DDBB68FB600FE0FA68BB689A4242
:100520000BDD7B68DB7F1A00FB689B1AFB60FA68B7
:10053000BB689A4201DABB68FB60FB689AB27B68D1
:10054000DA80C046BD4604B080BD80B584B000AF3F
:10055000786039607B681B7E1A003B681B11D218DB
:100560003B680F210B40D31AFB60FB68002B01DABC
:100570000023FB60FB68402B01DD4023FB60FB6830
:10058000DAB27B681A76C046BD4604B080BD000072
:1005900080B584B000AF786039600023FB603B68B1
:1005A00003221340012B17D002DC002B05D037E0CB
:1005B000022B1BD0032B22D032E07B681F2213407A
:1005C0001A4AD35CFB607B6820221340002B26DD97
:1005D000FB685B42FB6022E07B682033DA00FC238F
:1005E0005B001340FF22D31AFB6019E07B681A01FD
:1005F00080239B001340FF22D31AFB6010E00C4BBA
:100600001B681B15FF3BFB60094B1A6813009B011D
:100610009B181133DB00DA08054B1A6000E0C04676
:10062000FB681800BD4604B080BDC046684D000898
:10063000D402002080B582B000AF78607B682322AE
:100640009B5C18007B6822229B5C1900FFF7A0FFCF
:1006500001007B6825229B5C4B43DB1159B27B6810
:100660002B229954C046BD4602B080BD80B582B0F1
:1006700000AF78607B6827229B5C18007B6826228D
:100680009B5C1900FFF784FF01007B6829229B5CBB
:100690004B439B1159B27B682A229954C046BD46F0
:1006A00002B080BD80B584B000AF78607B689B7875
:1006B000FB60FB68002B27DDFB681F2B24DCFB683D
:1006C000DAB27B689A777B680022DA603C4AFB6882
:1006D0001B01D31801331A787B689A76384BFA6875
:1006E0001201D25C7B681A76354AFB681B01D3186D
:1006F00008331B68002B07D07B685B7F002B03D07F
:10070000FB68DAB27B685A777B68DB78092B06D105
:100710007B681B791B021A007B68DA6007E07B6844
:10072000DB78152B03D17B681A797B689A767B6816
:100730001B88002B40D07B681B8819007B689B7E40
:100740001A000F231A401F4B5200D35A4B43DB129F
:10075000BB60BB685B109AB2BB689BB201210B40C7
:100760009BB2D3189AB27B681A817B68DB78032B23
:1007700022D07B68DB78052B1ED07B689A7F7B6854
:100780005A777B681A897B68DA807B68DB689A0312
:100790007B681A617B6822229B5C032B03D87B68F1
:1007A0002322002199547B6826229B5C032B03D8CB
:1007B0007B68272200219954C046BD4604B080BD05
:1007C000A0000020284D000880B586B000AF7860FA
:1007D0007B68DB787B617B681B793B617B682122CE
:1007E000002199547B682C22002199547B682C228B
:1007F00099567B682A2299547B682A2299567B68ED
:100800002B2299547B691D2B02D13B69002B03DC01
:100810007B681800FFF746FF7B69033B1B2B00D961
:1008200057E19A00AF4BD3181B689F463B69002BDA
:1008300000DC3DE13B69DAB27B68DA7738E13B699D
:10084000F0221340002B05DD3B691B11D9B27B68F8
:10085000242299543B690F221340002B07DD3B698A
:10086000DBB20F221340D9B27B68252299547B68F2
:100870001800FFF7DFFE2CE17B681800FFF7DAFEB7
:1008800027E13B69F0221340002B05DD3B691B117A
:10089000D9B27B68282299543B690F221340002B60
:1008A00007DD3B69DBB20F221340D9B27B682922F6
:1008B00099547B681800FFF7D9FE0AE18A4B1B6840
:1008C000042B00D1F6E03B697F2B04DC3B69DBB2F3
:1008D000DB18DAB200E0FF227B685A76EAE0834B4D
:1008E0001B68002B00DBE7E0814B3A691A60814B03
:1008F00000221A60E0E03B69402B00DD4023DAB2C1
:100900007B681A76E5E0794B1B68002B00DBD5E0AD
:10091000774B1B68002B04DA774B1B685A1C744B0F
:100920001A603B691A1113009B009B185B001900A9
:100930003B690F221340CA186E4B1A606D4B1B683F
:100940003F2B00DCBAE06B4B00221A60B6E03B693B
:10095000002B00DCB4E03B691F2B07DC674B3A69D6
:100960001A60664B1A68664B1A60A9E03B6918006A
:10097000FFF738FDA4E07B68DB881A003B69D31AD7
:10098000FB60FB68002B00DA00239AB27B68DA80F8
:100990009FE07B68DB881A003B69D318FB60FB682B
:1009A000584A934200DD574B9AB27B68DA8090E058
:1009B0003B69072B00DD85E03B69D9B27B682222C9
:1009C00099547FE03B69002B05D14F4B1B68D9B28E
:1009D0007B68202299547B6820229B5C1A004A4B3A
:1009E0001B689A4200DB6FE0404B1B68002B07DA64
:1009F0003E4B3A691A607B681B7F1A00434B1A60B2
:100A00007B681B7F1A00414B1B689A425CD1374BB5
:100A10001B68002B08D13C4B1B68DBB20133D9B2F9
:100A20007B682022995409E07B6820229B5C1A0095
:100A3000304B1A602E4B012252421A602B4B1B681E
:100A40005A1E2A4B1A603FE03B69072B3EDC3B698C
:100A5000D9B27B682622995438E07B681B7E1A0045
:100A60003B69D318BB60BB68402B00DD4023DAB282
:100A70007B681A762DE07B681B7E1A003B69D31ACF
:100A8000BB60BB68002B00DA0023DAB27B681A7601
:100A90001FE03B69002B1BDC7B6800221A7617E005
:100AA0003B695A1C154B1B685A43154B1A6010E0E2
:100AB000C0460EE0C0460CE0C0460AE0C04608E072
:100AC000C04606E0C04604E0C04602E0C04600E082
:100AD000C0467B681800FFF7A1FCC046BD4606B0C3
:100AE00080BDC046884D00089C000020CC0200203C
:100AF000B8020020C0020020B4020020C80200207A
:100B0000C4020020FFFF0000BC020020D002002031
:100B100080B586B000AF78607B68DB787B617B68EE
:100B20001B793B617B6821229B5C0133D9B27B68D6
:100B3000212299547B691D2B00D9C7E07B699A005B
:100B4000684BD3181B689F467B68DB881A003B699B
:100B5000D31AFB60FB68002B00DA00239AB27B6893
:100B6000DA80B3E07B68DB881A003B69D318FB604E
:100B7000FB685D4A934200DD5B4B9AB27B68DA808A
:100B8000A4E07B681800FFF7ADFC9FE07B682322A0
:100B90009A5C7B6824215B5CD318D9B27B682322E2
:100BA00099547B681800FFF745FD8FE07B681800BB
:100BB000FFF798FC3A697B6811001800FFF7C5FC45
:100BC00084E07B6823229A5C7B6824215B5CD318D9
:100BD000D9B27B68232299547B681800FFF72AFD5D
:100BE0003A697B6811001800FFF7AFFC6EE07B6884
:100BF00027229A5C7B6828215B5CD318D9B27B687A
:100C0000272299547B681800FFF730FD5EE03A69AF
:100C10007B6811001800FFF798FC57E07B682122E1
:100C20009B5C022B03D97B682122002199547B68AD
:100C300021229B5C002B03D17B682C22002199543C
:100C40007B6821229B5C012B05D13B691B1159B2AA
:100C50007B682C2299547B6821229B5C022B2ED12D
:100C60003B695BB20F22134059B27B682C22995426
:100C700025E07B6821229B5C1A003B699A4220DBBD
:100C80007B682122002199547B6800221A6118E0B8
:100C90007B6821229B5C1A003B699A4213D17B68D6
:100CA00000221A760FE07B6821229B5C1A003B69C8
:100CB0009A420AD17B681800FFF7F4FC05E0C046B1
:100CC00004E0C04602E0C04600E0C0467B69002B5D
:100CD00003DD7B681800FFF7A1FBC046BD4606B0E8
:100CE00080BDC046F84D0008FFFF000080B586B00B
:100CF00000AF00237B61714B1B68002B32DB6F4B15
:100D00001A686F4B1B689A4206DB6E4B00221A6012
:100D10006C4B1A68694B1A60684B1A686A4B1B68FF
:100D20009A4201DC01237B61644B1A68664B1A60AE
:100D300000233B610DE065493A69202013005B0008
:100D40009B181B01CB181B1800221A703B6901333A
:100D50003B615F4B1B683A699A42ECDB574B0122BF
:100D600052421A60574B1A685A4B1A60594B1B680B
:100D70005A1C544B1A60534B1B683F2B07DD524BD8
:100D80001B685A1C4D4B1A604E4B00221A60524B86
:100D90001A684D4B1B68D3181B789A014D4B1B6882
:100DA000D2184B4B1B6853439B00FB6000233B61F5
:100DB00079E03A6913005B009B181B01434A9B18BA
:100DC0003B60464B1A68FB68D3181B781B029AB22B
:100DD000F0231B0113409AB23B681A803B681A88C3
:100DE0003E4B1968FB680133CB181B789BB2134349
:100DF0009AB23B681A80394B1A68FB680233D318E1
:100E00001B781B09DAB23B689A703B689B785AB230
:100E1000324B1968FB68CB181B785BB210210B4072
:100E20005BB213435BB2DAB23B689A702B4B1A6821
:100E3000FB680233D3181B781A000F231340BB60E2
:100E4000264B1A68FB680333D3181B787B60FB685A
:100E50000433FB60BB680E2B08D17B681B1110228A
:100E60001343BB607B680F2213407B60BB68002B81
:100E700004D17B68002B01DD0E23BB60BB68DAB2B6
:100E80003B68DA707B68DAB23B681A713A69130022
:100E90005B009B181B010D4A9B181800FFF794FC80
:100EA0003B6901333B610A4B1B683A699A4200DA9D
:100EB0007FE77B691800BD4606B080BDB802002000
:100EC00090000020C0020020B4020020D8020020C0
:100ED0009C000020BC0200208C0000208800002024
:100EE00080B582B000AF00237B60164B1B685A1E92
:100EF000144B1A60134B1B68002B08DC124B1A684A
:100F0000104B1A60FFF7F2FE03007B6014E0002331
:100F10003B600CE03A6813005B009B181B010B4A16
:100F20009B181800FFF7F4FD3B6801333B60084B4A
:100F30001B683A689A42EDDB7B681800BD4602B038
:100F400080BDC046C4020020C8020020D802002094
:100F50009C00002080B592B000AFF860B9607A6064
:100F60003B60BB68002B02D0FB68DB7E00E0002307
:100F7000BB63FB685B7E1A00BB6B53437B63FB6800
:100F80005B7E1A00FF239B1ABA6B53433B63FB68DB
:100F90001B693B64FB685B69FB62FB685B7FBB6250
:100FA000464ABB6A1B01D31808331B687B62434A5D
:100FB000BB6A1B01D31804331A687B6AD3183B62DF
:100FC0003E4ABB6A1B01D3180C331B68FB617B686C
:100FD0005B007B647A683B68D3185B00BB6162E0AE
:100FE0003A6C3B6A9A420FD37A6A8023DB019A42B9
:100FF00006D83B6A3B645AE03A6C7B6AD31A3B647E
:101000003A6C3B6A9A42F7D2BA697B6CD31A5B0896
:10101000FA6A5A433B6CD318FB63BB6B002B02DCB0
:10102000FB6B3B6443E0FA6B3B6A9A4237D93B6AFD
:10103000FB6334E03B6C9B0BFA69D3181B785BB203
:101040007B617B6C5A1C7A645A00B9688A185B0011
:10105000B968CB1800215B5E99B27B69386B43435A
:101060001B129BB2CB189BB21BB213807B6C5A1C19
:101070007A645A00B9688A185B00B968CB180021F5
:101080005B5E99B27B69786B43431B129BB2CB18B2
:101090009BB21BB213803A6CFB6AD3183B643A6C68
:1010A000FB6B9A42C6D37A6CBB699A4298D3FB68B1
:1010B0003A6C1A61C046BD4612B080BDA000002047
:1010C00090B587B000AF78607B681800FFF702F931
:1010D0000300FB60FB68002B02DC01235B4226E07F
:1010E000FB681C027B681800FFF7CAF80300634323
:1010F000114A944663447B6101233B6113E03A69E2
:1011000013001B019B1A5B000C331A007B68110053
:101110001800FFF74BF903005B007A69D3187B6175
:101120003B6901333B613B691F2BE8DD7B6918009C
:10113000BD4607B090BDC0463C04000080B58AB0F3
:1011400000AF786039607B681800FFF7C3F80200D1
:10115000844B1A60834B1B68002B05DC814B0022FB
:101160001A6001235B42F9E03B687F4A934202DC4C
:1011700002235B42F2E07D4B7A681A607C4B3A684E
:101180001A607A4B1B687B4A944663441B785BB2B7
:10119000DBB21A007F231A40774B1A60734B1B682F
:1011A000764A944663441B785BB2DBB21A007F2315
:1011B0001A40734B1A60724B1A686F4B1B689A4245
:1011C00002DB6F4B00221A60684B1B68EE22920014
:1011D0009A186C4B1A60654B1B686B4A9A186B4BDC
:1011E0001A60624B1B681800FFF74AF80200684B50
:1011F0001A60674B1B681A025A4B1B685343624ABA
:10120000944663447B6201233B628DE03B6A1A0192
:10121000604BD3187B61554B18683A6A13001B0169
:101220009B1A5B000C331900FFF7C0F803005B004A
:101230003B614E4B19683A6A13001B019B1A5B0015
:101240000E33CB181B785BB2DBB21A000F231340AE
:10125000FB60FB68DBB207221340DAB2FB68DBB24B
:1012600008210B40DBB2D31ADBB20833DAB27B6958
:101270005A703E4B19683A6A13001B019B1A5B00B7
:101280000F33CB181B785BB2DBB21A007F231340FD
:10129000BB60BB68402B00DD4023DAB27B691A706B
:1012A000324B18683A6A13001B019B1A5B0010331B
:1012B0001900FFF77BF803005B00FB612B4B1868FC
:1012C0003A6A13001B019B1A5B0012331900FFF7E7
:1012D0006DF803005B00BB61FA69BB69D2183B691A
:1012E0009A4203DD3A69FB69D31ABB61BB69032BE0
:1012F00003DC3B69FB610023BB61FB699B031A00B4
:101300007B695A60BB699B031A007B699A60174B23
:101310001A687B6AD2187B69DA607A6A3B69D318EB
:101320007B623B6A01333B623B6A1F2B00DC6DE74B
:101330000C4B1B68042B01DD174A00E0174A184BC1
:101340001A60084B1B68042B01DD012200E0022219
:10135000144B1A60002000F027F800231800BD4647
:101360000AB080BD9C0000203F1F000084000020C8
:10137000A0020020B603000090000020B703000088
:10138000940000208C0000203C0400008800002015
:1013900098000020A0000020AB2000005F2000008B
:1013A000A4020020A802002080B584B000AF7860BD
:1013B000314B1B68002B5BDD304B1B687A689A420F
:1013C00001DB00237B602E4B7A681A602D4B0022D4
:1013D0001A602D4B01221A602C4B06221A607D20C8
:1013E000FFF700F82A4B012252421A60284B1A6874
:1013F000284B1A60284B294A1A600023FB602CE016
:10140000FA6813005B009B181B01254A9B18BB6000
:10141000FB68DAB2BB681A77BB6800229A77BB68B0
:101420009A7FBB685A77BB6800221A76FB68032252
:101430001340022B04DC012B08DA002B02D009E058
:10144000032B07D1BB6833225A7603E0BB68CC225A
:101450005A76C046FB680133FB60074B1B68FA688D
:101460009A42CDDBFFF73CFD0E4B00221A6000E0F4
:10147000C046BD4604B080BD9C0000209000002006
:10148000B8020020C0020020C4020020C8020020D0
:10149000D0020020CC020020D4020020EFCDAB000F
:1014A000D8020020B002002080B586B000AF78607E
:1014B0003960254B1B68002B42DD00237B613BE03C
:1014C000224B1A68224B1B68D31A3B613A693B686E
:1014D0009A4201DD3B683B610023FB600EE0FA6845
:1014E00013005B009B181B011A4A98183B697A6924
:1014F0007968FFF72FFDFB680133FB60124B1B6817
:10150000FA689A42EBDB124B1A683B69D218104B0F
:101510001A600F4B1A680D4B1B689A4204D1FFF7F3
:10152000DFFC0B4B00221A607A693B69D3187B61A0
:101530003A683B69D31A3B603B68002BC0DC00E093
:10154000C046BD4606B080BD9C000020AC02002015
:10155000B0020020D802002080B500AFC046BD46D2
:1015600080BD80B500AFFEE780B500AFC046BD4688
:1015700080BD80B500AFC046BD4680BD80B500AF20
:1015800002F07AF902F0EEFEC046BD4680BD0000D2
:1015900080B500AF034B180002F0DCFBC046BD462F
:1015A00080BDC046E805002080B582B000AF124B78
:1015B000114A926901210A439A610F4B9B690122EA
:1015C00013407B607B6805235B42002200211800EA
:1015D00002F07AFE02235B4200220021180002F092
:1015E00073FE01235B4200220021180002F06CFE12
:1015F000C046BD4602B080BD0010024080B588B034
:1016000000AF78607B681B68274A934247D1274B1D
:10161000264AD269802189050A43DA61234BDA69B7
:1016200080239B051340BB60BB680C23FB18302252
:101630001A600C23FB1803225A600C23FB180022AB
:101640009A600C23FA189023DB051100180002F0B1
:1016500041F9174B174A1A60154B10225A60144B68
:1016600000229A60124B8022DA60114B00221A612C
:101670000F4B00225A610E4B20229A610C4B002224
:10168000DA610B4B180002F0D1FA031E01D000F012
:10169000B7FA7B68064A9A60054B7A685A62C04678
:1016A000BD4608B080BDC046007400400010024036
:1016B000E80500203000024080B584B000AF7860BB
:1016C0007B681B68094A93420BD1094B084AD269CF
:1016D00010210A43DA61064BDB6910221340FB60DC
:1016E000FB68C046BD4604B080BDC0460010004047
:1016F0000010024080B588B000AF78607B681B683E
:10170000184A93422AD1184B174A92698021C9017D
:101710000A439A61144B9A698023DB011340BB6032
:10172000BB680C23FB18C022D2001A600C23FB18E4
:1017300002225A600C23FB1801229A600C23FB182A
:101740000322DA600C23FB1801221A610C23FA1819
:101750009023DB051100180002F0BCF8C046BD461E
:1017600008B080BD003801400010024080B584B050
:1017700000AF78607B681B680A4A93420DD10A4B20
:10178000094AD269802109040A43DA61064BDA6901
:1017900080231B041340FB60FB68C046BD4604B0B9
:1017A00080BDC046005C00400010024080B584B09F
:1017B00000AF78601C4B180000F02CFA0023FB608F
:1017C00007E01A4BFA6852000021D152FB6801333E
:1017D000FB60FB68164A9342F3D98023DA00134B6F
:1017E00011001800FFF760FE0023FB6014E0FB68A7
:1017F0005A000E4B5200D35E1B111BB2DBB29BB2E0
:101800000C4A944663449BB219B20B4BFA685200DF
:10181000D152FB680133FB60FB68054A9342E6D96D
:10182000C046BD4604B080BDF04C00082406002030
:10183000FF030000FF7F0000E40E002080B584B0AD
:1018400002AF01F0E9FF00F059F800F095F900F05F
:1018500075F900F049F900F0B1F800F0E5F800F092
:1018600013F91E4B01228021180002F0AFF91C4B26
:101870001800FFF725FC03001AB21A4B1A801A4A07
:10188000174B11001800FFF759FC642002F00AF80A
:1018900080231901154A1648002300930B000021EC
:1018A00000F056FA134B1B68124A126812680121A5
:1018B0000A431A6000237B60084B8021180002F065
:1018C000A2F9642001F0EEFF7B6801337B607A6847
:1018D000094B1100180000F09DF9EDE700080048E1
:1018E000704E0008E405002080BB0000E40E0020DC
:1018F000940E0020A80E0020F44C000880B598B08B
:1019000000AF2C23FB1820221A602C23FB18012285
:101910001A622C23FB1800225A622C23FB18180091
:1019200001F074F9031E01D000F06AF91C23FB18C2
:1019300007221A601C23FB1803225A601C23FB1881
:1019400000229A601C23FB180022DA601C23FB187B
:101950000121180001F0B8FC031E01D000F050F97D
:101960003B00154A1A603B0000229A603B000022AF
:101970009A613B00180001F051FE031E01D000F0F7
:101980003FF901F02BFE0200FA2399001000FEF748
:1019900097FB0300180002F0BDFC042002F0C8FC15
:1019A00001235B4200220021180002F08DFCC0469A
:1019B000BD4618B080BDC0460100020080B582B0AF
:1019C00000AF174B174A1A60154B180000F04CF97E
:1019D000031E01D000F014F93B0004221A603B0002
:1019E00000225A6039000E4B0022180000F070F9F6
:1019F000031E01D000F004F93B0000221A603B00F6
:101A000002225A603900064B1022180000F060F9DB
:101A1000031E01D000F0F4F8C046BD4602B080BD00
:101A2000940E00200074004080B582B000AF144BCB
:101A3000144A1A60124B00225A60114B00229A601D
:101A40000F4BFA229200DA600D4B180000F0BEFA3C
:101A5000031E01D000F0D4F83B0020221A603B00A6
:101A600000225A603A00064B1100180000F054FBA7
:101A7000031E01D000F0C4F8C046BD4602B080BDD0
:101A8000A80E00200010004080B500AF144B154A8E
:101A90001A60134BE12252025A60114B00229A60E5
:101AA0000F4B0022DA600E4B00221A610C4B0C2205
:101AB0005A610B4B00229A61094B0022DA61084BF4
:101AC00000221A62064B00225A62054B180000F0F1
:101AD00067FB031E01D000F093F8C046BD4680BDF1
:101AE000240E00200038014080B500AF114B124A8F
:101AF0001A60104B08225A600E4B02229A600D4B5E
:101B00000022DA600B4B02221A610A4B00229A6112
:101B1000084B0022DA61074B00221A62054B1800BD
:101B200000F084FF031E01D000F06AF8C046BD46F5
:101B300080BDC046E4160020005C004080B582B045
:101B400000AF0C4B0B4A526901210A435A61094B01
:101B50005B69012213407B607B68002200210A2020
:101B600002F0B2FB0A2002F0C5FBC046BD4602B03F
:101B700080BDC0460010024080B588B000AF1E4B4B
:101B80001D4A5269802189020A435A611A4B5A69D7
:101B900080239B021340BB60BB68174B164A5269F7
:101BA000802109030A435A61134B5A6980231B039E
:101BB00013407B607B68114B0022C021180002F0AB
:101BC00005F80C23FB18C0221A600C23FB18012215
:101BD0005A600C23FB1800229A600C23FB18002289
:101BE000DA600C23FB18054A1900100001F072FEA0
:101BF000C046BD4608B080BD001002400008004845
:101C000080B500AF024B180000F004F8FEE7C046B4
:101C1000004D00080FB480B5A2B000AF9423FB18AC
:101C20008022BA1813608023FB181A689023FB18CF
:101C300019683B00180002F055FC03008422BA1812
:101C400013608423FB181B689AB2390005480A23E5
:101C500000F0FEFAC046BD4622B080BC08BC04B00D
:101C60001847C046240E002080B582B000AF7860CF
:101C70007B68002B01D1012315E07B681B79DBB267
:101C8000002B06D17B6800225A717B681800FFF791
:101C9000B5FC7B6802221A717B6800221A617B689E
:101CA00001221A7100231800BD4602B080BD80B524
:101CB00082B000AF7860C046BD4602B080BD80B53E
:101CC00082B000AF7860C046BD4602B080BD000063
:101CD00080B586B000AFF860B9607A6000237B61A0
:101CE00000233B61FB685B79012B01D1022329E0D2
:101CF000FB6801225A71FB6802221A71FB681B689B
:101D00001B687B61114A7B689A401300DA437B6948
:101D100013407B61BB681A68BB685B6813433B6117
:101D20003A697B689A4013007A6913437B61FB68C8
:101D30001B687A691A60FB6801221A71FB6800222D
:101D40005A7100231800BD4606B080BDFE0F00008A
:101D500080B586B000AFF860B9607A603B60002360
:101D60007B61FB685B79012B01D1022393E0FB6867
:101D700001225A71FB6802221A71BB68002B2BD119
:101D8000FB689B68464A9A62FB689B68454ADA6230
:101D9000FB689B68444A1A63FB681B68FA68126810
:101DA0001268802149010A431A603B6A042B09D05A
:101DB000082B0CD0002B00D03AE0FB681B680833DE
:101DC0007B6135E0FB681B680C337B6130E0FB68AE
:101DD0001B6810337B612BE0FB68DB68334A9A6237
:101DE000FB68DB68324ADA62FB68DB68314A1A63F7
:101DF000FB681B68FA6812681268802149050A436B
:101E00001A603B6A042B09D0082B0CD0002B00D0A1
:101E10000EE0FB681B6814337B6109E0FB681B68FC
:101E200018337B6104E0FB681B681C337B61C04690
:101E3000BB68002B10D1FB681B68FA681268126837
:101E4000802189010A431A60FB68986879683B68B9
:101E50007A6901F035FF0FE0FB681B68FA681268C9
:101E60001268802189050A431A60FB68D86879687E
:101E70003B687A6901F024FFFB681B68FA68126806
:101E800011680120BA68904002000A431A60FB689A
:101E900000225A7100231800BD4606B080BDC0461E
:101EA000B91E0008DD1E0008FB1E00082B1F0008DD
:101EB0004F1F00086D1F000880B584B000AF786028
:101EC0007B685B6AFB60FB681800FFF76FFCFB68D0
:101ED00001221A71C046BD4604B080BD80B584B0F1
:101EE00000AF78607B685B6AFB60FB681800FFF7F7
:101EF000DEFEC046BD4604B080BD80B584B000AFF4
:101F000078607B685B6AFB60FB681B6904221A438C
:101F1000FB681A61FB681800FFF7D1FEFB6801221D
:101F20001A71C046BD4604B080BD80B584B000AF14
:101F300078607B685B6AFB60FB68180000F02EF835
:101F4000FB6801221A71C046BD4604B080BD80B551
:101F500084B000AF78607B685B6AFB60FB68180048
:101F600000F024F8C046BD4604B080BD80B584B002
:101F700000AF78607B685B6AFB60FB681B690422CA
:101F80001A43FB681A61FB68180000F017F8FB6839
:101F900001221A71C046BD4604B080BD80B582B032
:101FA00000AF7860C046BD4602B080BD80B582B04B
:101FB00000AF7860C046BD4602B080BD80B582B03B
:101FC00000AF7860C046BD4602B080BD80B582B02B
:101FD00000AF78607B68002B01D101231EE07B6895
:101FE00039229B5CDBB2002B07D17B6838220021B1
:101FF00099547B681800FFF75FFB7B683922022148
:1020000099547B681A687B6804331900100000F04B
:1020100009F87B6839220121995400231800BD4634
:1020200002B080BD80B584B000AF78603960002315
:10203000FB607B681B68FB607B68304A934208D07A
:102040007A688023DB059A4203D07B682C4A93424E
:1020500008D1FB6870229343FB603B685B68FA68B9
:102060001343FB607B68254A934218D07A6880232B
:10207000DB059A4213D07B68214A93420FD07B68DC
:10208000204A93420BD07B681F4A934207D07B685B
:102090001E4A934203D07B681D4A934208D1FB68D5
:1020A0001C4A1340FB603B68DB68FA681343FB6023
:1020B0007B68FA681A603B689A687B68DA623B68FA
:1020C0001A687B689A627B680C4A93420BD07B68E3
:1020D0000D4A934207D07B680C4A934203D07B6839
:1020E0000B4A934203D13B681A697B681A637B6889
:1020F00001225A61C046BD4604B080BD002C01409B
:102100000004004000200040004001400044014025
:1021100000480140FFFCFFFF80B582B000AF78604F
:1021200039607B6838229B5C012B01D1022332E0AD
:102130007B683822012199547B6839220221995405
:102140007B681B687A681268526870218A435A60FB
:102150007B681B687A68126851683A6812680A439B
:102160005A607B681B687A681268926880218A438B
:102170009A607B681B687A68126891683A6852684E
:102180000A439A607B683922012199547B6838227E
:102190000021995400231800BD4602B080BD000004
:1021A00080B582B000AF78607B68002B01D101233D
:1021B00047E07B6869229B5CDBB2002B07D17B6820
:1021C0006822002199547B681800FFF793FA7B6816
:1021D0006922242199547B681B687A681268126806
:1021E00001218A431A607B68180000F0C7F80300D9
:1021F000012B01D1012324E07B685B6A002B03D013
:102200007B68180000F076FA7B681B687A681268B1
:1022100052680E490A405A607B681B687A681268E7
:1022200092682A218A439A607B681B687A681268E0
:10223000126801210A431A607B68180000F006FB4F
:1022400003001800BD4602B080BDC046FFB7FFFFC7
:1022500080B586B000AFF860B9603B60BB1D1A80E6
:10226000FB6869229B5CDBB2202B00D080E0BB685E
:10227000002B03D0BB1D1B88002B01D1012378E06C
:10228000FB689A6880235B019A4209D1FB681B694D
:10229000002B05D1BB680122134001D0012368E067
:1022A000FB6868229B5C012B01D1022361E0FB6883
:1022B000682201219954FB680022DA66FB686922D2
:1022C00021219954FB68BA1D502112885A52FB688B
:1022D000BA1D522112885A5231E0FB6852229B5A91
:1022E000013B99B2FB68522299523B68F868002280
:1022F000802100F0F9FA031E01D0032339E0FB68C6
:102300009A6880235B019A4211D1FB681B69002BFC
:102310000DD1BB687B61FB681B687A691288D205A6
:10232000D20D92B21A85BB680233BB6007E0FB682E
:102330001A68BB68591CB9601B789BB21385FB688F
:1023400052229B5A002BC8D13B68F86800224021DA
:1023500000F0CAFA031E01D003230AE0FB686922D9
:1023600020219954FB68682200219954002300E041
:1023700002231800BD4606B080BD000090B587B0AE
:1023800000AF78600023FB601723FB1810221A703F
:102390000A23FB1800221A801423FB1800221A803B
:1023A0001323FB1800221A707B689A687B681B69EC
:1023B0001A437B685B691A437B68DB691343FB60E4
:1023C0007B681B687A6812681268C0491140FA6815
:1023D0000A431A607B681B687A6812685268BC49B5
:1023E00011407A68D2680A435A607B689A697B68B0
:1023F0001B6A1343FB607B681B687A6812689268EB
:10240000B4491140FA680A439A607B681B68B24A73
:10241000934225D1B14B1B6B03221340012B0FD0EC
:1024200004D3022B11D0032B05D013E01723FB1884
:1024300000221A7064E01723FB1802221A705FE072
:102440001723FB1804221A705AE01723FB180822DE
:102450001A7055E01723FB1810221A70C0464FE07F
:102460007B681B689E4A934232D19C4B1A6BC023F7
:102470009B02134080225202934219D080225202C2
:10248000934202D8002B09D01CE080229202934292
:1024900013D0C0229202934205D013E01723FB18F9
:1024A00000221A702CE01723FB1802221A7027E072
:1024B0001723FB1804221A7022E01723FB180822A6
:1024C0001A701DE01723FB1810221A70C04617E07F
:1024D0007B681B68834A934204D11723FB180022B0
:1024E0001A700DE07B681B687F4A934204D1172362
:1024F000FB1800221A7003E01723FB1810221A7031
:102500007B68DA6980231B029A4200D07BE01723A4
:10251000FB181B78022B1CD002DC002B05D04FE0EF
:10252000042B27D0082B39D04AE001F061F80300D2
:102530005A007B685B685B08D2187B685B6819008F
:102540001000FDF7BDFD03001A001423FB181A80CC
:102550003BE07B685B685B08644A9A187B685B6851
:1025600019001000FDF7ACFD03001A001423FB183E
:102570001A802AE000F0B0FF03005A007B685B6815
:102580005B08D2187B685B6819001000FDF798FDA6
:1025900003001A001423FB181A8016E07B685B689E
:1025A0005B08802252029A187B685B681900100051
:1025B000FDF786FD03001A001423FB181A8004E0BF
:1025C0001323FB1801221A70C0460A23FB18142299
:1025D000BA1812880F218A431A801423FB181B880B
:1025E0005B109BB20722134099B20A23FB180A2200
:1025F000BA1812880A431A807B681B680A22BA1824
:102600001288DA605BE01723FB181B78022B1BD0C3
:1026100002DC002B05D04DE0042B26D0082B37D050
:1026200048E07B681C6800F0E3FF02007B685B68A1
:102630005B08D2187B685B6819001000FDF740FD4D
:1026400003009BB2E3603AE07B681C687B685B68D0
:102650005B08274A9A187B685B6819001000FDF731
:102660002FFD03009BB2E36029E07B681C6800F04B
:1026700033FF02007B685B685B08D2187B685B688D
:1026800019001000FDF71CFD03009BB2E36016E08B
:102690007B681C687B685B685B08802212029A1862
:1026A0007B685B6819001000FDF70AFD03009BB210
:1026B000E36004E01323FB1801221A70C0461323C1
:1026C000FB181B781800BD4607B090BDF369FFEFFB
:1026D000FFCFFFFFFFF4FFFF003801400010024072
:1026E0000044004000480040004C00400024F4003A
:1026F00000127A0080B582B000AF78607B685B6AB8
:10270000012213400AD07B681B687A6812685268FD
:10271000454911407A68926A0A435A607B685B6A4D
:10272000022213400AD07B681B687A6812685268DC
:102730003E4911407A68D26A0A435A607B685B6AF4
:10274000042213400AD07B681B687A6812685268BA
:10275000374911407A68126B0A435A607B685B6A9A
:10276000082213400AD07B681B687A681268526896
:10277000304911407A68526B0A435A607B685B6A41
:10278000102213400AD07B681B687A68126892682E
:10279000294911407A68926B0A439A607B685B6AA8
:1027A000202213400AD07B681B687A6812689268FE
:1027B000224911407A68D26B0A439A607B685B6A4F
:1027C000402213401BD07B681B687A6812685268ED
:1027D0001B4911407A68126C0A435A607B681A6C74
:1027E00080235B039A420AD17B681B687A6812686F
:1027F0005268144911407A68526C0A435A607B68E7
:102800005B6A802213400AD07B681B687A68126872
:1028100052680D4911407A68926C0A435A60C0466A
:10282000BD4602B080BDC046FFFFFDFFFFFFFEFFBB
:10283000FFFFFBFFFF7FFFFFFFEFFFFFFFDFFFFF5C
:10284000FFFFEFFFFFFF9FFFFFFFF7FF80B582B0A5
:1028500000AF78607B680022DA667B681B68204ADC
:10286000934204D07B681B681E4A934227D17B6841
:102870001B681B6808221340082B0CD1FA239A000E
:102880008023990378681300002200F02DF8031EBE
:1028900001D0032320E07B681B681B6804221340DF
:1028A000042B0CD1FA239A008023D90378681300F3
:1028B000002200F019F8031E01D003230CE07B680E
:1028C0006922202199547B686A22202199547B68CF
:1028D00068220021995400231800BD4602B080BD33
:1028E000003801400044004080B586B000AFF86079
:1028F000B9603B60FB1D1A7000F0CAFF03007B61EA
:10290000FB1D1B78002B00D081E03BE03B680133CE
:1029100038D03B68002B07D000F0BAFF02007B697B
:10292000D21A3B689A422DD9FB681B68FA68126874
:10293000126880218A431A60FB681B68FA68126873
:10294000126820218A431A60FB681B68FA681268C3
:10295000126835490A401A60FB681B68FA681268F9
:10296000926801218A439A60FB6869222021995468
:10297000FB686A2220219954FB686822002199543F
:1029800003234DE0FB681B68DB69BA681A40BB682B
:102990009A42BBD143E03B68013338D03B68002BFF
:1029A00007D000F075FF02007B69D21A3B689A429B
:1029B0002DD9FB681B68FA681268126880218A4367
:1029C0001A60FB681B68FA681268126820218A4343
:1029D0001A60FB681B68FA681268126812490A409C
:1029E0001A60FB681B68FA681268926801218A43C2
:1029F0009A60FB68692220219954FB686A22202191
:102A00009954FB68682200219954032308E0FB686D
:102A10001B68DB69BA681A40BB689A42BBD00023C6
:102A20001800BD4606B080BDFFFEFFFF90B585B023
:102A300000AF78600023FB600023BB607B68002B45
:102A400001D10123DEE07A68EA23FF33D35CDBB2F5
:102A5000002B08D17A68F4235B000021D1547B68F5
:102A60001800FEF783FE7A68EA23FF330321D1546E
:102A70000023FB6043E07968FA6829201300DB003B
:102A80009B1A9B00CB181B1801221A70FB68DCB242
:102A90007968FA6828201300DB009B1A9B00CB188A
:102AA0001B18221C1A707968FA682B201300DB00AF
:102AB0009B1A9B00CB181B1800221A707968FA68C1
:102AC0001300DB009B1A9B00CB18343300221A60E2
:102AD0007968FA681300DB009B1A9B00CB18383327
:102AE00000221A607968FA681300DB009B1A9B00C9
:102AF000CB183C3300221A60FB680133FB607B6813
:102B00005A68FB689A42B6D80023FB604EE07868AA
:102B1000FA680A23FF3319001300DB009B1A9B009D
:102B2000C3185B1800221A70FB68DCB27868FA6878
:102B3000842359001300DB009B1A9B00C3185B1809
:102B4000221C1A707868FA680C23FF3319001300EE
:102B5000DB009B1A9B00C3185B1800221A70786870
:102B6000FA688A2359001300DB009B1A9B00C318E4
:102B70005B1800221A607868FA688C2359001300E9
:102B8000DB009B1A9B00C3185B1800221A60786850
:102B9000FA688E2359001300DB009B1A9B00C318B0
:102BA0005B1800221A60FB680133FB607B685A687F
:102BB000FB689A42ABD87B681B684022012199527E
:102BC0007B681B684022002199527B681B68442265
:102BD000002199527B681B68502200219952BF2323
:102BE0001B02BB607B681B68BA6891B24022995295
:102BF0007B682422002199547A68EA23FF3301215B
:102C0000D15400231800BD4605B090BD80B586B0F4
:102C100000AF786000233B617B681B680122134092
:102C200000D18DE0C54B5B680C221340042B0ED005
:102C3000C24B5B680C221340082B16D1BF4B5A685D
:102C4000C0235B021A4080235B029A420DD1BB4B2A
:102C50001A6880239B02134000D170E07B685B6898
:102C6000002B00D06BE0012327E37B685B68012B1E
:102C700007D1B24BB14A1268802149020A431A6057
:102C80002FE07B685B68002B0CD1AC4BAB4A126821
:102C9000AB490A401A60A94BA84A1268A9490A40E0
:102CA0001A601EE07B685B68052B0ED1A34BA34A1C
:102CB00012688021C9020A431A60A04B9F4A126819
:102CC000802149020A431A600BE09C4B9B4A126820
:102CD0009B490A401A60994B984A126899490A40E0
:102CE0001A607B685B68002B14D000F0D1FD0300F4
:102CF0003B6108E000F0CCFD02003B69D31A642B75
:102D000001D90323D9E28D4B1A6880239B0213401B
:102D1000F0D015E000F0BCFD03003B6108E000F0DE
:102D2000B7FD02003B69D31A642B01D90323C4E227
:102D3000824B1A6880239B021340F0D100E0C0460A
:102D40007B681B680222134000D16CE07B4B5B6800
:102D50000C2213400ED0794B5B680C221340082BD9
:102D60001FD1764B5A68C0235B021A4080231B0296
:102D70009A4216D1714B1B680222134005D07B6822
:102D8000DB68012B01D0012397E26C4A6B4B1B6877
:102D9000F8218B4319007B681B69DB000B43136030
:102DA00041E07B68DB68002B24D0644B634A1268E7
:102DB00001210A431A6000F06BFD03003B6108E04B
:102DC00000F066FD02003B69D31A022B01D90323F0
:102DD00073E25A4B1B6802221340F1D0574A574BFB
:102DE0001B68F8218B4319007B681B69DB000B43D0
:102DF000136018E0514B514A126801218A431A604E
:102E000000F046FD03003B6108E000F041FD0200D8
:102E10003B69D31A022B01D903234EE2474B1B68AF
:102E200002221340F1D17B681B680822134036D080
:102E30007B68DB69002B19D0404B404A526A012164
:102E40000A435A6200F024FD03003B6108E000F0F1
:102E50001FFD02003B69D31A022B01D903232CE288
:102E6000364B5B6A02221340F1D018E0334B334AF1
:102E7000526A01218A435A6200F00AFD03003B6155
:102E800008E000F005FD02003B69D31A022B01D9CE
:102E9000032312E2294B5B6A02221340F1D17B68C3
:102EA0001B680422134000D1B6E01723FB18002250
:102EB0001A70224BDA6980235B05134011D11F4B36
:102EC0001E4AD269802149050A43DA611B4BDA693F
:102ED00080235B051340FB60FB681723FB1801226E
:102EE0001A70194B1A6880235B0013401AD1164BD5
:102EF000154A1268802149000A431A6000F0C8FC94
:102F000003003B6108E000F0C3FC02003B69D31AF8
:102F1000642B01D90323D0E10B4B1A6880235B009B
:102F20001340F0D07B689B68012B0FD1034B034A01
:102F3000126A01210A431A6236E0C04600100240BC
:102F4000FFFFFEFFFFFFFBFF007000407B689B68F8
:102F5000002B0CD1C94BC94A126A01218A431A625B
:102F6000C64BC64A126A04218A431A621CE07B6877
:102F70009B68052B0CD1C14BC04A126A04210A433D
:102F80001A62BE4BBD4A126A01210A431A620BE063
:102F9000BA4BBA4A126A01218A431A62B74BB74A3E
:102FA000126A04218A431A627B689B68002B14D042
:102FB00000F06EFC03003B6109E000F069FC0200D8
:102FC0003B69D31AAE4A934201D9032375E1AB4B57
:102FD0001B6A02221340F0D013E000F059FC0300FA
:102FE0003B6109E000F054FC02003B69D31AA44A9B
:102FF000934201D9032360E1A04B1B6A02221340D4
:10300000F0D11723FB181B78012B05D19B4B9B4A52
:10301000D2699C490A40DA617B681B681022134020
:1030200063D07B685B69012B2AD1944B934A526B26
:1030300004210A435A63914B904A526B01210A437F
:103040005A6300F025FC03003B6108E000F020FC1F
:1030500002003B69D31A022B01D903232DE1874BD0
:103060005B6B02221340F1D0844A844B5B6BF821E6
:103070008B4319007B689B69DB000B43536334E08F
:103080007B685B69053311D17C4B7C4A526B042110
:103090008A435A63794A794B5B6BF8218B43190059
:1030A0007B689B69DB000B4353631EE0734B734AE1
:1030B000526B04210A435A63704B704A526B0121D0
:1030C0008A435A6300F0E4FB03003B6108E000F030
:1030D000DFFB02003B69D31A022B01D90323ECE08A
:1030E000664B5B6B02221340F1D17B681B68202288
:1030F00013405CD0614B5B680C2213400C2B0ED04C
:103100005E4B5B680C221340082B14D15B4B5A6852
:10311000C0235B021A40C0235B029A420BD1574B7B
:103120005A6B80235B02134040D07B681B6A012BE3
:103130003CD00123C1E07B681B6A002B1BD04F4BA6
:103140004E4A526B802149020A435A6300F0A0FBA9
:1031500003003B6108E000F09BFB02003B69D31ACF
:10316000022B01D90323A8E0444B5A6B80235B0256
:103170001340F0D01BE0414B404A526B42490A4099
:103180005A6300F085FB03003B6108E000F080FB20
:1031900002003B69D31A022B01D903238DE0374B80
:1031A0005A6B80235B021340F0D100E0C0467B687D
:1031B0005B6A002B00D17FE0304B5B680C22134030
:1031C000082B00D176E07B685B6A022B4BD12B4B3E
:1031D0002A4A12682D490A401A6000F059FB030080
:1031E0003B6108E000F054FB02003B69D31A022B5C
:1031F00001D9032361E0214B1A6880239B0413400B
:10320000F0D11E4A1D4BDB6A0F218B4319007B68EE
:103210001B6B0B43D362194A184B5B681C4919405E
:103220007B68D86A7B689B6A03430B435360134BEC
:10323000124A1268802149040A431A6000F028FBF0
:1032400003003B6108E000F023FB02003B69D31A56
:10325000022B01D9032330E0084B1A6880239B041A
:103260001340F0D028E0054B044A126807490A4091
:103270001A6000F00DFB03003B6114E000100240F7
:1032800088130000FFFFFFEFFFFFFEFFFFFFFFFEC1
:10329000FF7FC2FF00F0FCFA02003B69D31A022B49
:1032A00001D9032309E0074B1A6880239B041340CC
:1032B000F0D101E0012300E000231800BD4606B074
:1032C00080BDC0460010024080B584B000AF786079
:1032D00039600023FB607A4B1B6801221A403B686F
:1032E0009A4211D2764B764A126801218A43110024
:1032F0003A680A431A60724B1B6801221A403B6805
:103300009A4201D00123D7E07B681B680222134058
:1033100009D06C4A6B4B5B68F0218B4319007B68CA
:103320009B680B4353607B681B680122134000D1EC
:1033300089E07B685B68012B07D1624B1A688023A8
:103340009B02134020D10123B6E07B685B68022B0F
:1033500007D15C4B1A6880239B04134014D10123CE
:10336000AAE07B685B68032B07D1564B5A6B80231E
:103370005B02134008D101239EE0524B1B680222DE
:10338000134001D1012397E04E4A4E4B5B68032165
:103390008B4319007B685B680B43536000F078FA3D
:1033A0000300FB607B685B68012B11D109E000F032
:1033B0006FFA0200FB68D31A434A934201D90323F0
:1033C0007AE0404B5B680C221340042BEFD13AE0CB
:1033D0007B685B68022B11D109E000F059FA02000A
:1033E000FB68D31A384A934201D9032364E0354B72
:1033F0005B680C221340082BEFD124E07B685B68EC
:10340000032B1BD109E000F043FA0200FB68D31A3A
:103410002D4A934201D903234EE02A4B5B680C22CC
:1034200013400C2BEFD10EE000F032FA0200FB68E3
:10343000D31A254A934201D903233DE0214B5B680F
:103440000C221340F0D11E4B1B6801221A403B682E
:103450009A4211D91A4B1A4A126801218A43110063
:103460003A680A431A60164B1B6801221A403B68EF
:103470009A4201D001231FE07B681B68042213409D
:1034800008D0104A0F4B5B68104919407B68DB6815
:103490000B43536000F020F801000A4B5B681B09E6
:1034A0000F2213400A4AD35C0A00DA40094B1A6023
:1034B000002000F0C5F900231800BD4604B080BD0F
:1034C000002002400010024088130000FFF8FFFFB8
:1034D00048A700080000002080B58EB000AF14237C
:1034E000FA18394B1000190010231A0000F0D8FF09
:1034F0003A1D364B1000190010231A0000F0D0FFBF
:103500000023FB620023BB6200237B6300237B62FA
:1035100000233B632E4B5B68FB62FB6A0C2213406B
:10352000082B06D00C2B43D0042B44D1294B3B63F2
:1035300044E0FB6A9B0C0F2213401422BA18D35CA0
:103540007B62234BDB6A0F2213403A1DD35CBB62C4
:10355000FA6AC0235B021A4080235B029A4209D1B7
:10356000B96A1C48FCF7ACFD03001A007B6A5343A0
:103570007B631AE0FA6AC0235B021A40C0235B0235
:103580009A4209D1B96A1448FCF79AFD03001A005F
:103590007B6A53437B6308E0B96A0E48FCF790FDF1
:1035A00003001A007B6A53437B637B6B3B6305E03C
:1035B000094B3B6302E0074B3B63C0463B6B180083
:1035C000BD460EB080BDC046084D0008184D00082D
:1035D0000010024000127A00006CDC0280B500AFDF
:1035E000024B1B681800BD4680BDC046000000208D
:1035F00080B500AFFFF7F2FF0100064B5B681B0AC6
:1036000007221340044AD35CD9400B001800BD4682
:1036100080BDC0460010024058A7000880B586B0A3
:1036200000AF786000233B610023FB607B681A6871
:1036300080235B02134000D18EE01723FB18002289
:103640001A706E4BDA6980235B05134011D16B4B06
:103650006A4AD269802149050A43DA61674BDA690F
:1036600080235B051340BB60BB681723FB18012256
:103670001A70634B1A6880235B0013401AD1604BA9
:103680005F4A1268802149000A431A6000F000F97D
:1036900003003B6108E000F0FBF802003B69D31A2D
:1036A000642B01D90323A4E0554B1A6880235B00E7
:1036B0001340F0D0514B1A6AC0239B001340FB60AB
:1036C000FB68002B34D07B685A68C0239B001A40EB
:1036D000FB689A422CD0494B1B6A4A4A1340FB6054
:1036E000464B464A126A802149020A431A62434BFA
:1036F000424A126A44490A401A62404BFA681A6206
:10370000FB680122134013D000F0C2F803003B61B4
:1037100009E000F0BDF802003B69D31A3B4A93422E
:1037200001D9032365E0354B1B6A02221340F0D018
:10373000324A324B1B6A334919407B685B680B4342
:1037400013621723FB181B78012B05D12B4B2B4A37
:10375000D2692F490A40DA617B681B680122134055
:1037600009D0264A254B1B6B03218B4319007B682C
:103770009B680B4313637B681B680222134008D0CD
:103780001E4A1E4B1B6B234919407B68DB680B43A9
:1037900013637B681B682022134009D0174A174B1C
:1037A0001B6B10218B4319007B681B690B43136350
:1037B0007B681A6880239B02134009D00F4A0F4B85
:1037C0001B6B80218B4319007B689B690B43136340
:1037D0007B681A688023DB00134009D0074A074B37
:1037E0001B6B40218B4319007B685B690B431363A0
:1037F00000231800BD4606B080BDC0460010024040
:1038000000700040FFFCFFFFFFFFFEFF8813000079
:10381000FFFFFFEFFFFFFCFF80B500AF074B074A3C
:10382000126810210A431A60002000F009F8FDF721
:10383000BBFE00231800BD4680BDC04600200240EC
:1038400080B582B000AF7860FFF7C8FE0200FA23AF
:1038500099001000FCF734FC0300180000F05AFD3A
:10386000796801235B420022180000F02DFD00233F
:103870001800BD4602B080BD80B500AF034B1B6889
:103880005A1C024B1A60C046BD4680BD0419002078
:1038900080B500AF024B1B681800BD4680BDC04616
:1038A0000419002080B584B000AF78600023FB606D
:1038B000FFF7EEFF0300FB60C046FFF7E9FF0200E1
:1038C000FB68D21A7B689A42F7D3C046BD4604B063
:1038D00080BD000080B586B000AF786039600023FD
:1038E0007B610023FB6000233B6155E13B681B6863
:1038F00001217A6991400A001340FB60FB68002BAC
:1039000000D146E13B685B68022B03D03B685B68F3
:10391000122B23D17B69DA087B6808329200D358D6
:103920003B617B69072213409B000F229A401300E2
:10393000DA433B6913403B613B681A697B690721A5
:103940000B409B009A4013003A6913433B617B692B
:10395000DA087B68083292003969D1507B681B68AD
:103960003B617B695B0003229A401300DA433B69A9
:1039700013403B613B685B6803221A407B695B0034
:103980009A4013003A6913433B617B683A691A60B5
:103990003B685B68012B0BD03B685B68022B07D050
:1039A0003B685B68112B03D03B685B68122B30D1FE
:1039B0007B689B683B617B695B0003229A40130034
:1039C000DA433B6913403B613B68DA687B695B0023
:1039D0009A4013003A6913433B617B683A699A60E5
:1039E0007B685B683B6101227B699A401300DA4384
:1039F0003B6913403B613B685B681B0901221A402D
:103A00007B699A4013003A6913433B617B683A69CA
:103A10005A607B68DB683B617B695B0003229A40EC
:103A20001300DA433B6913403B613B689A687B694A
:103A30005B009A4013003A6913433B617B683A6923
:103A4000DA603B685A6880235B05134000D1A0E030
:103A5000574B574A926901210A439A61544B9B691B
:103A600001221340BB60BB68524A7B699B0802334A
:103A70009B009B583B617B69032213409B000F22F4
:103A80009A401300DA433B6913403B617A68902304
:103A9000DB059A4219D07B68474A934213D07B6872
:103AA000464A93420DD07B68454A934207D07B68D3
:103AB000444A934201D1042308E0052306E003238E
:103AC00004E0022302E0012300E000237A690321DD
:103AD0000A40920093403A6913433B6135497B6940
:103AE0009B0802339B003A695A50374B1B683B6175
:103AF000FB68DA433B6913403B613B685A688023AB
:103B00005B02134003D03A69FB6813433B612E4BC1
:103B10003A691A602C4B5B683B61FB68DA433B698E
:103B200013403B613B685A6880239B02134003D0DB
:103B30003A69FB6813433B61234B3A695A60224B55
:103B40009B683B61FB68DA433B6913403B613B6820
:103B50005A6880235B03134003D03A69FB68134320
:103B60003B61194B3A699A60174BDB683B61FB6814
:103B7000DA433B6913403B613B685A6880239B03EF
:103B8000134003D03A69FB6813433B610E4B3A691B
:103B9000DA607B6901337B613B681A687B69DA40D4
:103BA000131E00D0A2E6C046BD4606B080BDC0468A
:103BB00000100240000001400004004800080048D6
:103BC000000C0048001000480004014080B582B09D
:103BD00000AF786008001100BB1C021C1A807B1C1F
:103BE0000A1C1A707B1C1B78002B04D0BB1C1A8883
:103BF0007B689A6103E0BB1C1A887B689A62C046A6
:103C0000BD4602B080BD80B582B000AF78600A00CA
:103C1000BB1C1A807B685A69BB1C1B885A407B6896
:103C20005A61C046BD4602B080BD000080B584B078
:103C300000AF78600023FB607B68002B01D101237B
:103C400038E07B6821229B5CDBB2002B03D17B68D0
:103C50002022002199547B682122022199547B68FB
:103C60001B681B68FB60FB68144A1340FB607B68A1
:103C70005A687B689B681A437B68DB681A437B68D9
:103C80001B691A437B685B691A437B689B691A430B
:103C90007B68DB691343FA681343FB607B681B682E
:103CA000FA681A607B6800229A637B6821220121EE
:103CB000995400231800BD4604B080BD0FC0FFFF1B
:103CC00080B584B000AFF860B9607A603B60FB6893
:103CD00020229B5C012B01D1022336E0FB682022CD
:103CE00001219954FB68212202219954FB681B6829
:103CF000FA681268126801218A431A603B687A6880
:103D0000B968F86800F014FAFB681B68FA68126872
:103D1000126802210A431A60FB681B68FA6812687D
:103D2000126804210A431A60FB681B68FA6812686B
:103D3000126808210A431A60FB681B68FA68126857
:103D4000126801210A431A6000231800BD4604B01E
:103D500080BD000080B582B000AF7860B14B1A68BA
:103D60007B681B681900B04B99422ED07B681B689A
:103D70001900AE4B994226D07B681B681900AC4BEA
:103D800099421DD07B681B681900AA4B994214D038
:103D90007B681B681900A84B99420BD07B681B6895
:103DA0001900A64B994202D180231B040EE0802308
:103DB0001B050BE080231B0308E080231B0205E0AA
:103DC00080231B0102E0802300E0082313405DD024
:103DD0007B681B681B6808221340082B56D17B6840
:103DE0001B687A681268126808218A431A608D4A33
:103DF0007B681B6819008C4B99422ED07B681B682E
:103E000019008A4B994226D07B681B681900884BA1
:103E100099421DD07B681B681900864B994214D0CB
:103E20007B681B681900844B99420BD07B681B6828
:103E30001900824B994202D180231B040EE080239B
:103E40001B050BE080231B0308E080231B0205E019
:103E500080231B0102E0802300E0082353607B687D
:103E60009B6B01221A437B689A637B6821220421A1
:103E700099547B682022002199547B681B6B002B8E
:103E800004D07B681B6B7A6810009847654B1A68F2
:103E90007B681B681900644B99422ED07B681B68B5
:103EA0001900624B994226D07B681B681900604B51
:103EB00099421DD07B681B6819005E4B994214D053
:103EC0007B681B6819005C4B99420BD07B681B68B0
:103ED00019005A4B994202D18023DB030EE0802364
:103EE000DB040BE08023DB0208E08023DB0105E03C
:103EF0008023DB0002E0402300E00423134059D07C
:103F00007B681B681B6804221340042B52D17B681A
:103F10001B681B682022134007D17B681B687A68E6
:103F20001268126804218A431A603E4A7B681B6843
:103F300019003D4B99422ED07B681B6819003B4B02
:103F4000994226D07B681B681900394B99421DD0D5
:103F50007B681B681900374B994214D07B681B683B
:103F60001900354B99420BD07B681B681900334B05
:103F7000994202D18023DB030EE08023DB040BE0B7
:103F80008023DB0208E08023DB0105E08023DB00E7
:103F900002E0402300E0042353607B6821221121CA
:103FA00099547B68DB6A002B04D07B68DB6A7A68F3
:103FB000100098471B4B1A687B681B6819001A4B46
:103FC00099423DD07B681B681900184B994226D056
:103FD0007B681B681900164B99421DD07B681B68D3
:103FE0001900144B994214D07B681B681900124BBE
:103FF00099420BD07B681B681900104B994202D183
:1040000080239B031DE080239B041AE080239B02F6
:1040100017E080239B0114E080239B0011E0202304
:104020000FE0C04600000240080002401C000240B1
:104030003000024044000240580002406C00024040
:104040000223134061D07B681B681B680222134067
:10405000022B5AD17B681B681B682022134007D1B2
:104060007B681B687A681268126802218A431A60AA
:10407000284A7B681B681900274B99422ED07B6821
:104080001B681900254B994226D07B681B681900D4
:10409000234B99421DD07B681B681900214B994224
:1040A00014D07B681B6819001F4B99420BD07B68AA
:1040B0001B6819001D4B994202D180239B030EE01F
:1040C00080239B040BE080239B0208E080239B015C
:1040D00005E080239B0002E0202300E002235360E0
:1040E0007B689A6B7B689A637B68212201219954D3
:1040F0007B682022002199547B689B6A002B04D0A6
:104100007B689B6A7A6810009847C046BD4602B03B
:1041100080BDC04600000240080002401C00024072
:104120003000024044000240580002406C0002404F
:1041300080B584B000AFF860B9607A603B60FB681E
:104140001B683A685A60FB685B68102B08D1FB68F3
:104150001B687A689A60FB681B68BA68DA6007E0D7
:10416000FB681B68BA689A60FB681B687A68DA604B
:10417000C046BD4604B080BD80B582B000AF02002D
:10418000FB1D1A70064BFA1D127811001F220A40FF
:10419000012191400A001A60C046BD4602B080BDB0
:1041A00000E100E0B0B582B000AF02003960FB1D55
:1041B0001A70FB1D1B787F2B32D92F4CFB1D1B78EF
:1041C0001A000F231340083B99082B4AFB1D1B784C
:1041D00018000F230340083B9B0806339B00D318AD
:1041E00004331B68FA1D1278100003220240D2002B
:1041F000FF2090400200D2431A403B689B01FF2001
:104200001840FB1D1B781D0003232B40DB0098404A
:1042100003001A438B1D9B00E31804331A6027E048
:10422000164CFB1D1B785BB29B081449FA1D1278D3
:1042300052B29208C03292005258F91D0978080013
:1042400003210140C900FF2088400100C9431140FB
:104250003A689201FF201040FA1D127815000322DF
:104260002A40D200904002000A43C0339B001A51FA
:10427000C046BD4602B0B0BD00ED00E000E100E088
:1042800080B582B000AF78607B68013B0C4A9342F6
:1042900001D9012310E00B4B7A68013A5A600123DF
:1042A0005B4203211800FFF77DFF064B00229A6056
:1042B000044B07221A6000231800BD4602B080BDDF
:1042C000FFFFFF0010E000E080B584B000AFB960F0
:1042D0007A600F23FB18021C1A70BA680F23FB18B0
:1042E0001B785BB211001800FFF75CFFC046BD46AB
:1042F00004B080BD80B582B000AF0200FB1D1A7013
:10430000FB1D1B785BB21800FFF736FFC046BD46A9
:1043100002B080BD80B582B000AF78607B681800C5
:10432000FFF7AEFF03001800BD4602B080BD0000DD
:1043300080B582B000AF78607B68042B06D1084B53
:10434000074A126804210A431A6005E0044B044A34
:10435000126804218A431A60C046BD4602B080BD7F
:1043600010E000E080B500AF00F003F8C046BD46A5
:1043700080BD80B500AFC046BD4680BD80B500AFF2
:104380001A4B1A4A126801210A431A60174B174A3E
:10439000526817490A405A60144B144A126815496A
:1043A0000A401A60114B114A126813490A401A60F8
:1043B0000E4B0E4A526811490A405A600B4B0B4A89
:1043C000D26A0F218A43DA62084B084A126B0C4901
:1043D0000A401A63054B054A526B01218A435A630E
:1043E000024B00229A60C046BD4680BD00100240CC
:1043F0000CB8FF08FFFFF6FEFFFFFBFFFFFFC0FF4B
:104400002CFEFCFF0D488546002103E00C4B5B5859
:10441000435004310B480C4B42189A42F6D30B4AD6
:1044200002E0002313600432094B9A42F9D3FFF7EC
:10443000A5FF00F011F8FDF701FAFEE700400020AB
:10444000A0A70008000000206800002068000020ED
:104450000C190020FEE7000070B500260C4D0D4C35
:10446000641BA410A64209D1002600F035FC0A4DB9
:104470000A4C641BA410A64205D170BDB300EB58D2
:1044800098470136EEE7B300EB5898470136F2E75C
:1044900098A7000898A7000898A700089CA70008FC
:1044A000002310B59A4200D110BDCC5CC454013336
:1044B000F8E7000030B59BB00091049108496D46C3
:1044C00002910591012182244942E981A4006946B3
:1044D000AC8100F075F80023009A13701BB030BD5A
:1044E000FFFFFF7F10B513000A00010002480068BB
:1044F000FFF7E0FF10BDC04604000020F0B58E6855
:1045000085B007000C00039201939E4239D8902396
:104510008A89DB001A4234D00325096923685B1AB3
:104520000293636902985D43EB0F5D19019B6D1067
:1045300001331B18AB4200D91D00530532D52900A9
:10454000380000F029FB061E09D10C233B604023F4
:104550000120A28940421343A38105B0F0BD029A15
:104560002169FFF79DFFA389144A1A408023134352
:10457000A381029B2661F61826606561019EED1AF3
:10458000A560019BB34200D21E003200039920684F
:1045900000F0ADFAA36800209B1BA36023689E195E
:1045A0002660DAE72A00380000F048FB061EE0D15A
:1045B0002169380000F0AEFAC7E7C0467FFBFFFF75
:1045C000F0B59FB0029005938B890F0016001B0673
:1045D00011D50B69002B0ED1402100F0DDFA3860B7
:1045E0003861002805D10C23029A013813601FB0EE
:1045F000F0BD40237B61002306AD6B6120336B76F9
:104600001033AB7634002378002B47D1A31B0493DF
:104610000DD0A31B320039000298FFF76FFF431C37
:1046200000D1B5E06A69049B944663446B612378CA
:10463000002B00D1ACE00122002352426A6002A9A3
:104640005432521801342B60EB60AB601370AB65D1
:10465000584E05222178300000F03EFA621C0028F6
:1046600020D12968CB0604D5532302AE20309B19F4
:1046700018700B0704D553232B2002AE9B1918701A
:1046800023782A2B16D000200A21099B2278303A61
:10469000092A55D9002815D0099313E0252BB5D048
:1046A0000134B0E70123801B8340296814000B43C9
:1046B0002B60CDE7059B181D1B680590002B39DB8F
:1046C0000993140023782E2B0BD16378621C2A2BBC
:1046D0003ED1059B02341A1D1B680592002B34DB6A
:1046E0000793354E21780322300000F0F5F90028B9
:1046F00006D04023801B83402A68013413432B607B
:10470000217806222D48661C297600F0E5F900285C
:1047100046D02B4B002B2FD12968059B0722C905BA
:1047200028D59B189343083305936B69039A9B180C
:104730006B6167E75B42EB6002230B432B60C0E7D2
:104740004B4301349B180120A0E701235B42C7E7DC
:10475000002314000A201A006B60217830390929DF
:1047600003D9002BBDD00792BBE742430134521856
:104770000123F2E70733D5E705AB00933A00114B6D
:104780002900029800E000BF0390039B0133CCD1C5
:10479000BB890B985B0600D429E70120404226E73D
:1047A00005AB00933A00074B2900029800F07AF815
:1047B000EAE7C04662A7000868A700086CA70008DF
:1047C00000000000FD440008F7B5150001938A6859
:1047D0000B6900900C00934200DA130022002B605A
:1047E00043321278002A01D001332B6023689B06E4
:1047F00002D52B6802332B60062723681F4027D081
:10480000230043331B785A1E93412268920630D40A
:104810002200019943320098089EB047431C25D0DE
:10482000062320682A68E16803400025042B03D191
:104830008D1AEB43DB171D40A3682269934201DD0B
:104840009B1AED180027BD4220D1002010E001374F
:10485000E3682A689B1A9F42D2DA220001231932A8
:1048600001990098089EB047431CF0D101204042B6
:10487000FEBD3020E1184331087021005A1C45313B
:104880000978A218433202331170C1E722000123D4
:104890001A3201990098089EB047431CE6D00137B0
:1048A000D1E70000F0B58BB006920A0043320793BF
:1048B000059004920A7E0C00109B6E2A00D18FE0B6
:1048C00017D8632A2CD008D8002A00D199E0582A9A
:1048D00054D026004236327029E0642A01D0692A79
:1048E000F7D121681A68080623D5111D19601568CB
:1048F00025E0732A00D188E008D86F2A29D0702AD1
:10490000E7D1202209680A43226003E0752A20D0FB
:10491000782ADED122007821453211706C4A30E0CD
:104920000E001A684236111D196013683370012396
:1049300079E04906D9D5111D19600023D55E002DF7
:1049400003DA2D23049A6D421370624B0A270393F6
:104950002FE020681968050603D5081D18600D684A
:1049600005E04006F9D50D68081D1860ADB2594B39
:10497000082703936F2A18D00A2716E045310A70DA
:10498000544A03921A682168101D186015680806B9
:1049900022D5CB0702D52023194321601027002DF3
:1049A00003D1202322689A4322602300002243334C
:1049B0001A706368A360002B5CDB042221689143BA
:1049C0002160002D58D1049E002B64D02600039B4B
:1049D00042361B7833705EE04806DAD5ADB2D8E7D0
:1049E00009681A68080605D5111D196013686269FF
:1049F0001A6006E04906F7D5111D19601368A28AEE
:104A00001A800023049E236154E01A68111D196066
:104A1000166800216268300000F05EF8002801D0BE
:104A2000801B6060636823610023049A137041E077
:104A30002369320006990598079DA847431C43D077
:104A4000236800259B070FD4099BE06898423DDA54
:104A500018003BE022000123193206990598079EB1
:104A6000B047431C30D00135E368099A9B1A9D4238
:104A7000F0DBE9E7002DA9D0049E28003900FBF700
:104A800063FB039B013E5B5C280033703900FBF73E
:104A900017FB051EF1D1082F09D12368DB0706D5C6
:104AA00063682269934202DC3023013E3370049B29
:104AB0009B1B2361079B09AA00932100069B059875
:104AC000FFF782FE431CB3D1012040420BB0F0BD82
:104AD00084A7000873A70008C9B28218904201D1C8
:104AE0000020704703788B42FBD00130F6E710B509
:104AF000884202D98B18984208D300239A4207D0E3
:104B0000CC5CC4540133F9E78B5C8354013AFBD28B
:104B100010BD000030B500290AD004390B68002B05
:104B200000DAC9181B4A1368002B02D14B601160D0
:104B300030BD8B4209D908680C18A342F6D11C6815
:104B40005B6820180860F1E713005A68002A01D05A
:104B50008A42F9D91C681D198D420BD10968611868
:104B6000581819608242E3D11068526841181960E0
:104B70005A60DDE78D4202D90C230360D8E708684C
:104B80000C18A24203D114685268201808604A60C9
:104B90005960CDE7D8050020032370B5CC1C9C4399
:104BA000083405000C2C21D20C24A14220D8214825
:104BB0000668310000291FD11F4E3368002B03D136
:104BC000280000F061F830602100280000F05CF857
:104BD000431C0DD00322C61C9643B04213D0311A99
:104BE000280000F051F8431C0DD101E0002CDCDA64
:104BF0000C2300202B6070BD0B681A1B17D40B2AE6
:104C000003D90A608E18346003E08E420BD17368BA
:104C10000360300007210B30321D8843821AEAD02E
:104C20005142B150E7E74B6873600E00F1E70E00A8
:104C30004968BFE7D8050020DC050020F8B507006B
:104C40000D001600002905D11100FFF7A5FF040093
:104C50002000F8BD002A03D1FFF75CFF3400F7E71E
:104C600000F024F82C008642F2D931003800FFF71A
:104C700093FF041EECD029003200FFF711FC29003D
:104C80003800FFF747FFE3E7002370B5064C050047
:104C90000800236000F012F8431C03D12368002BA6
:104CA00000D02B6070BDC046081900200B1F1B6888
:104CB000181F002B01DA0B58C0187047044A1368FC
:104CC000002B03D01818106018007047014BF9E74B
:104CD000E005002010190020F8B5C046F8BC08BC5B
:104CE0009E467047F8B5C046F8BC08BC9E46704763
:104CF0002E00000048656C6C6F212025640D0A00B1
:104D000050616E696321000002030405060708096B
:104D10000A0B0C0D0E0F1010010203040506070804
:104D2000090A0B0C0D0E0F10F410D410B5109710CB
:104D300078105A103C101E100010E30FC50FA80F7A
:104D40008B0F6F0F520F360F00101A0F410E740D9C
:104D5000B30CFD0B500BAE0A140A8309FB087A084A
:104D600000088D072107BA060018314A61788DA125
:104D7000B4C5D4E0EBF4FAFDFFFDFAF4EBE0D4C5E2
:104D8000B4A18D78614A31182C0800083E0800084B
:104D9000D20A00087808000882080008BC08000849
:104DA000D20A0008D20A0008DE080008F608000847
:104DB00006090008D20A00084E090008D20A0008B5
:104DC0007609000892090008D20A0008B009000814
:104DD000D20A0008C4090008480A0008D20A0008DC
:104DE000D20A00085A0A0008760A0008920A000847
:104DF000D20A0008A00A0008CC0C0008480B0008E2
:104E0000640B0008820B00088C0B0008AC0B000838
:104E1000C20B0008EE0B0008CC0C0008CC0C0008FC
:104E20000E0C0008CC0C0008CC0C0008CC0C0008C0
:104E30001C0C0008CC0C0008CC0C0008CC0C0008A2
:104E4000CC0C0008CC0C0008CC0C0008CC0C0008E2
:104E5000CC0C0008CC0C0008CC0C0008720C00082C
:104E6000CC0C0008CC0C0008900C0008A60C000824
:104E700066726565646F6D00000000000000000050
:104E800000000000236D616B746F6E650000000010
:104E90000000000000000000000000000000000012
:104EA00000002F636C732E7373742E7361632E6610
:104EB0006C7400000000000000660040002E003806
:104EC00000000000000000000000000000000000E2
:104ED0000000000000000007004000000007666FAF
:104EE00072206120666169726C69676874206D75F3
:104EF0007369630000B90040000000006469736BCF
:104F0000202032303032000000000000000000009D
:104F10000000000000000000000000000000000091
:104F20000000000000000000000000000000000081
:104F3000011A004000000000000000000000000016
:104F4000000000000000000000000000000000075A
:104F5000004000000007236D616B746F6E65406355
:104F600068697074756E652E636F6D000007004090
:104F7000000000070000000000000000000000002A
:104F80000000000000000000000000000000000021
:104F90000000000000000000000000000000000011
:104FA0000000000000000000000000000000000001
:104FB00000000000000000000000000000000000F1
:105220000000000000001D0004030201000105064B
:105230000706080C090A0A0A0B0D0E0F10111011AF
:10524000120A0A0A1300000000000000000000001B
:10525000000000000000000000000000000000004E
:10526000000000000000000000000000000000003E
:10527000000000000000000000000000000000002E
:10528000000000000000000000000000000000001E
:10529000000000000000000000000000000000000E
:1052A00000000000000000004D2E4B2E0358248209
:1052B000011D30570000030801AC4000000004004D
:1052C00000000C100000030001AC70CC01AC240005
:1052D000011D305700000300017D70CC0000040068
:1052E00000000C100000048201AC70CC03582400B4
:1052F0000000005700000204023A70CC00000400D5
:10530000000000570000020401AC70CC00000C103B
:10531000011D3057011D8C1001AC4000000004003D
:1053200000000C100000040001AC70CC01AC600067
:1053300000000057017D8400023A70CC01AC6C1073
:10534000000000570000040001AC70CC035824009A
:10535000011D305700000C10017D70CC00000400CE
:1053600000000C100000040001AC70CC01AC240063
:1053700000000057017D840001AC400000000400E3
:10538000000000570168840001AC70CC0358240071
:10539000011D305700000400017D70CC00000400A6
:1053A00000000C100000040001AC70CC02D02400FE
:1053B000011D305801408C10023A70CC00000400EE
:1053C00000000C100000040001AC70CC0168240047
:1053D000011D3058017D8400016870CC000004007C
:1053E00000000C1001688C1001AC70CC02D02400BD
:1053F000000000580168840001AC40000000040077
:1054000000000058017D8C1001AC70CC00000C1025
:10541000011D305801408EC3016870CC00000400AB
:1054200000000C10011D8EC201AC70CC01AC6000FC
:105430000000005800F0830F023A70CC01AC6C10F1
:10544000000000580000030001AC70CC02D0240022
:10545000011D305800F08400016870CC0000040089
:1054600000000C10011D8C1001AC70CC01682400F0
:105470000000005800D6831F01AC4000000004006B
:10548000000000580000030001AC70CC02D02400E2
:10549000011D305800BE8400016870CC000004007B
:1054A00000000C1000B4830401AC70CC021A24007C
:1054B000010D30470000030001AC40000000040073
:1054C00000000C100000030001AC70CC010D2400A2
:1054D000010D304700BE8400016870CC000004005C
:1054E00000000C100000040001AC70CC021A240073
:1054F0000000004700D6830F021A70CC00000400A1
:10550000000000470000030001AC70CC00000C104C
:10551000010D30470000030001AC40000000040012
:1055200000000C100000030001AC70CC01AC600066
:105530000000004700000400021A70CC01AC6C109F
:10554000000000470000040001AC70CC021A2400E7
:10555000010D304700000204016870CC0000040017
:1055600000000C100000020401AC70CC010D2400FE
:105570000000004700D68C1001AC40000000040081
:10558000000000470000040001AC70CC021A2400A7
:10559000010D304700FE8103016870CC000004005B
:1055A00000000C1000F0830401AC70CC02802400D9
:1055B0000140305700000300028070CC000004005E
:1055C00000000C100000030001E070CC014024003A
:1055D000014030570000030001AC70CC0000040013
:1055E00000000C100000040001E070CC02802400D8
:1055F000000000570000020401AC4000000004005D
:10560000000000570000020401E070CC00000C1004
:1056100001403047011D810301AC70CC0000040043
:1056200000000C1000FE830801FC70CC01AC60008F
:105630000000004700000300028070CC01AC6C1039
:10564000000000470000030001FC70CC0280240031
:10565000014030470000030001AC70CC00000400A2
:1056600000000C100000040001FC70CC014024007C
:10567000000000470000020401AC400000000400EC
:10568000000000470000020401FC70CC01AC600087
:10569000014030470140810301AC70CC01AC6C107B
:1056A00000000C10011D830801FC70CC03582482FB
:1056B000011D30570000030801AC40000000040049
:1056C00000000C100000030001AC70CC01AC240001
:1056D000011D305700000300017D70CC0000040064
:1056E00000000C100000048201AC70CC03582400B0
:1056F0000000005700000204023A70CC00000400D1
:10570000000000570000020401AC70CC00000C1037
:10571000011D3057011D8C1001AC40000000040039
:1057200000000C100000040001AC70CC01AC600063
:105730000000005701408400023A70CC01AC6C10AC
:10574000000000570000040001AC70CC0358240096
:10575000011D305700000C10017D70CC00000400CA
:1057600000000C100000040001AC70CC01AC24005F
:1057700000000057017D840001AC400000000400DF
:10578000000000570168840001AC70CC035824006D
:10579000011D305700000400017D70CC00000400A2
:1057A00000000C100000040001AC70CC02D02400FA
:1057B000011D3058017D8C10023A70CC00000400AD
:1057C00000000C100000040001AC70CC0168240043
:1057D000011D3058017D8400016870CC0000040078
:1057E00000000C1001688C1001AC70CC02D02400B9
:1057F000000000580168840001AC40000000040073
:1058000000000058017D8C1001AC70CC00000C1021
:10581000011D305801408EC3016870CC00000400A7
:1058200000000C10011D8EC201AC70CC01AC6000F8
:105830000000005800F0830F023A70CC01AC6C10ED
:10584000000000580000030001AC70CC02D024001E
:10585000011D305800F08400016870CC0000040085
:1058600000000C1000000C1001AC70CC016824008A
:1058700000000058011D840001AC4000000004003D
:10588000000000580000040001AC70CC02D02400DD
:10589000011D305800FE8400016870CC0000040037
:1058A00000000C1000F0830401AC70CC021A24003C
:1058B000010D30470000030001AC4000000004006F
:1058C00000000C100000030001AC70CC010D24009E
:1058D000010D3047010D8400016870CC0000040008
:1058E00000000C100000040001AC70CC021A24006F
:1058F0000000004701688400021A70CC0000040018
:10590000000000470000040001AC70CC00000C1047
:10591000010D30470000040001AC4000000004000D
:1059200000000C100000040001AC70CC01AC600061
:105930000000004700000400021A70CC01AC6C109B
:10594000000000470000040001AC70CC021A2400E3
:10595000010D304700000204016870CC0000040013
:1059600000000C100000020401AC70CC010D2400FA
:105970000000004701688C1001AC400000000400EA
:10598000000000470000040001AC70CC021A2400A3
:10599000010D3047011D8103016870CC0000040037
:1059A00000000C10010D830401AC70CC02802400B7
:1059B0000140303700000300028070CC000004007A
:1059C00000000C1000000300021A70CC01402400FB
:1059D000014030370000030001AC70CC000004002F
:1059E00000000C1000000400021A70CC0280240099
:1059F000000000370000020401AC40000000040079
:105A00000000003700000204021A70CC00000C10E5
:105A1000014030270140810301AC70CC000004003C
:105A200000000C10011D8308023A70CC01AC60002C
:105A30000000002700000300028070CC01AC6C1055
:105A40000000002700000300023A70CC028024000E
:105A5000014030270000030001AC70CC00000400BE
:105A600000000C1000000400023A70CC0140240039
:105A7000000000270000020401AC40000000040008
:105A80000000002700000204023A70CC01AC600064
:105A90000140302701E0810301AC70CC01AC6C10F7
:105AA00000000C1001AC8308023A70CC0358248229
:105AB000011D30570000000001AC40000000040050
:105AC00000000C100000000001AC70CC01AC240000
:105AD000011D305700000000017D70CC0000040063
:105AE00000000C100000000001AC70CC0358240032
:105AF0000000005700000000023A70CC00000400D3
:105B0000000000570000000001AC70CC00000C1039
:105B1000011D30570000000001AC400000000400EF
:105B200000000C100000000001AC70CC01AC600063
:105B30000000005700000000023A70CC01AC6C106D
:105B4000000000570000000001AC70CC0358240096
:105B5000011D305700000000017D70CC00000400E2
:105B600000000C100000000001AC70CC01AC24005F
:105B7000000000570000000001AC400000000400DD
:105B8000000000570000000001AC70CC0358240056
:105B9000011D305700000000017D70CC00000400A2
:105BA00000000C100000000001AC70CC02D02400FA
:105BB000011D305800000000023A70CC00000400C3
:105BC00000000C100000000001AC70CC0168240043
:105BD000011D305800000000016870CC0000040076
:105BE00000000C100000000001AC70CC02D02400BA
:105BF000000000580000000001AC4000000004005C
:105C0000000000580000000001AC70CC00000C1037
:105C1000011D305800000000016870CC0000040035
:105C200000000C100000000001AC70CC01AC600062
:105C30000000005800000000023A70CC01AC6C106B
:105C4000000000580000000001AC70CC02D024001D
:105C5000011D305800000000016870CC00000400F5
:105C600000000C100000000001AC70CC01682400A2
:105C7000000000580000000001AC400000000400DB
:105C8000000000580000000001AC70CC02D02400DD
:105C9000011D305800000000016870CC00000400B5
:105CA00000000C100000000001AC70CC021A2400AF
:105CB000010D30470000000001AC4000000004006E
:105CC00000000C100000000001AC70CC010D24009D
:105CD000010D304700000000016870CC0000040096
:105CE00000000C100000000001AC70CC021A24006F
:105CF0000000004700000000021A70CC0000040001
:105D0000000000470000000001AC70CC00000C1047
:105D1000010D30470000000001AC4000000004000D
:105D200000000C100000000001AC70CC01AC600061
:105D30000000004700000000021A70CC01AC6C109B
