:020000040800F2
:100000000040002039260008790D00087B0D00080B
:1000100000000000000000000000000000000000E0
:100020000000000000000000000000007D0D00083E
:1000300000000000000000007F0D0008810D000896
:1000400089260008892600088926000889260008D4
:1000500089260008892600088926000889260008C4
:1000600089260008892600088D0D000889260008C9
:1000700089260008892600088926000889260008A4
:100080008926000889260008892600088926000894
:100090008926000889260008892600088926000884
:1000A0008926000889260008892600088926000874
:1000B0008926000889260008892600088926000864
:1000C00002B4714649084900095649008E4402BCF1
:1000D0007047C04602B4714649084900095C4900AE
:1000E0008E4402BC7047C04603B4714649084000C4
:1000F0004900095A49008E4403BC7047002934D096
:100100000123002210B488422CD301242407A142E9
:1001100004D2814202D209011B01F8E7E400A142A6
:1001200004D2814202D249005B00F8E7884201D341
:10013000401A1A434C08A04202D3001B5C08224319
:100140008C08A04202D3001B9C082243CC08A0428A
:1001500002D3001BDC082243002803D01B0901D076
:100160000909E3E7101C10BC7047002801D00020EB
:10017000C04307B4024802A14018029003BDC04624
:10018000D90000000029F0D003B5FFF7B9FF0EBC7D
:100190004243891A1847C046002941D010B4041CB4
:1001A0004C40A44601230022002900D549420028E2
:1001B00000D5404288422CD301242407A14204D216
:1001C000814202D209011B01F8E7E400A14204D2F6
:1001D000814202D249005B00F8E7884201D3401A0D
:1001E0001A434C08A04202D3001B5C0822438C082F
:1001F000A04202D3001B9C082243CC08A04202D399
:10020000001BDC082243002803D01B0901D0090988
:10021000E3E7101C6446002C00D5404210BC704738
:10022000002806D003DB0020C043400801E0802006
:10023000000607B4024802A14018029003BDC04660
:10024000190000000029EBD003B5FFF7A7FF0EBC93
:100250004243891A1847C0467047C04610B5064C3D
:100260002378002B07D1054B002B02D0044800E077
:1002700000BF0123237010BD6C00002000000000AF
:100280000C2F0008084B10B5002B03D00749084875
:1002900000E000BF07480368002B03D0064B002B8B
:1002A00000D0984710BDC04600000000700000203C
:1002B0000C2F00086C00002000000000EE238722B5
:1002C0009B00D20010B5C31882187F240020197833
:1002D0002140814200DB481C01339A42F7D110BD16
:1002E000174B184AC35682561B021343164A9342B1
:1002F00011D007DC154A934216D0154A93420CD010
:10030000002010E0134A934205D0134A934202D0D2
:10031000124A9342F4D1042005E08723DB00C05643
:1003200030381028ECDC70478723DB00C2560A23E4
:10033000303A53430A4A805630381818F1E7C0461D
:100340003A0400003B040000214B00004843000039
:100350004E4800002E540000345400002E4B000084
:1003600039040000435C401840781B021843704772
:100370002B2110B5C3884156174A591803002C3356
:100380001B7804005BB25B009B5A4B431A05D20FEB
:10039000191389180D2901DCD6214901D6200F4BEC
:1003A00040001B685843FFF7F7FE0D4B80031968A8
:1003B000FFF7A4FE220060612A321278237E52B237
:1003C0009B1805D50023074A12685343E37610BDF6
:1003D000402BF8DD4023F6E7442F00088C00002076
:1003E000B805002090030020C3880289934205DAF3
:1003F000C17FCB18934207DD130005E0934203DD74
:10040000C17F5B1A9342F7DBC380704730B58378B6
:100410005A1E1E2A10D8002221491C01C2600A1946
:100420005578615C9268837785760176002A03D0DF
:10043000427F002A00D04377C17809292BD1037964
:100440001B02C3600288002A24D00F24837E033954
:100450002340144C5B001B5B5A431305DB0F121344
:100460009B18FD229BB20381114213D0C380C36845
:10047000827F9B0303614277C31CDB7F032B02D87F
:100480000022031DDA77C31DDB7F032B02D8002374
:100490000830C37730BD1529D4D103798376D1E7ED
:1004A00094030020642F000803780A119B180F2280
:1004B0001140591A402902DD402101707047CB4399
:1004C000DB171940F9E70000032310B51940022992
:1004D00014D0994219D0012908D01C33104A034086
:1004E000D35C820600D55B42180010BDFC2320308F
:1004F0005B00C0001840F93B1B1AF5E780230001A0
:100500009B001840023BFF3BF6E7412205490C687F
:1005100062431132D2002315D208FF3B0A60E3E7A1
:10052000842F0008B005002010B5C31C0400D97F3B
:10053000031DD87FFFF7C8FFA31DDB7F2B34584373
:10054000C011207010BD0000F0B5BB4A87B0136821
:10055000BA4C013B1360002B0EDD0023E61C019317
:100560001834B74B1B680293029A019B934200DA3E
:10057000A5E10023039344E00021B24BB2481B687D
:1005800003911360B14B1A688A4219DBB0490968BC
:100590008A4203DB0022AF491A600A601A680168C8
:1005A000D60FCD1791426E410260A54A0396156899
:1005B000002230261700AA4226DB012252421A608E
:1005C000A449A54D0A682A60551C0D603F2D04DD25
:1005D000056801351D6000230B60A04B1968036896
:1005E000CB5C9B019B18964A126853439B00019376
:1005F00000230293924B1B680493049A029B93423C
:1006000009DB039807B0F0BD310051432031611878
:100610000F700132CFE7F0201025914B00011968CF
:10062000019BCA1813781B020340238050780343B0
:100630002380019B0233C9180B781B09A370107823
:1006400028400343A3700B780F21D578019A0B4003
:10065000043201920E2B38D110222B1113430D407E
:10066000210000222131DFB2EEB2E7702671CA729A
:100670000A70093105910A704A701D2B01D195420B
:100680002FD12000FFF7C2FEF81E1B2829D8FFF744
:100690002BFD2500300028003D0041005B002800B4
:1006A0002800650002016F002800880028009C00D7
:1006B000A3002800AA002800B100FA0028002800A2
:1006C000000107010D0128001101002BC8D12A00EB
:1006D000511E8A410E3352421340C1E7002D00D013
:1006E000E6772000FFF744FE029B3034013302938B
:1006F00080E70F2332009A4303D022002D112432C9
:1007000015701E4002D0230025331E702000FFF715
:100710000BFFE6E70F2332009A4303D022002D118E
:100720002832157027001E402937002E00D03E7059
:100730002300263319785878FFF7C6FE3B785843D4
:10074000059B80111870CCE7049B042BC9D0FF23B4
:100750007F2D01DC7600F3B26376C2E7414B1B6864
:10076000002BBEDA0022394B1D603A4B1A60B8E705
:100770003C4B1B68002BB4DA344A1368002B03DAB5
:10078000314B1B68013313600A232D115D43053380
:100790001E40AE192F4B3F2E01DC1E60A1E7002248
:1007A000E4E7002D9DD01F2D04DC264B1D60224B5D
:1007B0001D6096E72C4B29001B6858005B10C01881
:1007C000FFF7EAFC294B18608BE7E3885D1BEB43DE
:1007D000DB171D40E58084E7E3885D19244B9D42CB
:1007E000F8DD1D00F6E7072D00DD7AE72300223350
:1007F0001E7076E72000184B2030002D01D11A78AA
:10080000027006781A68964200DB6AE71549237F72
:100810000F68002F02DA0D6016490B601549096850
:100820008B4200D05DE70F490B68002B24D10132C9
:100830000270013B0B6054E7C805002090000020C7
:100840009C050020C4050020A00500208800002091
:10085000C005002098050020B4050020BC0500203C
:10086000A4050020AC050020B8050020CC05002020
:10087000FFFF0000A80500200120544A40421660F6
:10088000534A1060D5E7072D00DD2AE72300263301
:10089000AEE7237E5D19402D00DD4025257620E75B
:1008A000237E5D1BEB43DB171D40F7E7002D00D0D7
:1008B00017E7F3E7474B01351B685D4377E72700F0
:1008C000B37F32780133DBB2501E183F7578B377AF
:1008D0001C2872D8FFF7FEFB0F1A22262E363E7117
:1008E00071317171714B717171717171717171715E
:1008F0005E7171666B00F21C13885D1BEB43DB17A6
:100900001D4015803800FFF733FD58E0F21C1388B6
:100910005D19314B9D42F4DD1D00F2E73800FFF711
:1009200063FDEFE7E37A227B38009B18E372FFF761
:10093000FBFDE7E73800FFF757FD29002000FFF730
:10094000B3FDDFE7E37A227B38009B18E372FFF701
:10095000EBFDF2E7E07B237CA17BC018C0B2E07323
:10096000FFF7B2FD637C58438011A074CAE7022BE5
:1009700001D90023B377B37F002B01D12375C1E7E1
:10098000012B02D12D112575BCE7022BBAD10D33F5
:100990001D40F8E79D42B5DC320000230D32B377ED
:1009A0001360AFE79D42ADD100237375AAE79D4266
:1009B000A8D13800FFF72AFDA4E7002AA2D1019BA5
:1009C0003036013301933034CBE5C0469805002022
:1009D00088000020C4050020FFFF0000F8B50600D5
:1009E000FFF77EFC051E14DD3000FFF767FC2D02CB
:1009F0004543094BF327EC182A25BF002900300096
:100A0000FFF7B0FC1E3540002418BD42F6D120008F
:100A1000F8BD01246442FAE73C040000F8B5224B1B
:100A20001D68002D3CDD214B1B68834200DC00204B
:100A3000002401221E4B7D2118601E4BCC261C6019
:100A40001D4B33271A601D4B05321A601C4B1B6867
:100A500058005B10C018FFF79FFB1A4B1A4A18602A
:100A600001235B421360194A21001360184A194B95
:100A70001A60194B2200183303341000204001384B
:100A80001A7199715971197001280AD95F70013270
:100A900030339542F1D1FFF757FD00220F4B1A601A
:100AA000F8BD5E70F3E7C0469C050020C00500203D
:100AB0008800002098050020C8050020C4050020FB
:100AC000B8050020CC050020A8050020AC050020BA
:100AD000EFCDAB00B005002090000020D005002035
:100AE000F0B585B004000D00FFF7FAFB414B009014
:100AF0001860002804DC002201201A60404272E0E5
:100B00003D4B9D4200DC72E07F263C4B3C4A1C6022
:100B10003C4B20001D603C4B2A27E35C33401360B4
:100B2000EE233A4A9B00E3181360394B394AE31825
:100B30001360FFF7C3FB009B00025843344B364D54
:100B4000C31802931035039639002000FFF70AFC02
:100B5000072243000820E11901938B781A400832DC
:100B60000340D31A6B70CB78039A1340402B00DDFF
:100B700040232B70391D2000FFF7F4FBB91D460000
:100B80002000FFF7EFFB019A400033189A4200DA89
:100B9000901B032801DC0020019E029A029B9446D0
:100BA000E318EB60019BB60363440293F3238003D5
:100BB0001E376E60A8609B0010359F42C4D1009B19
:100BC000042B12DC154B164A002413600422009BF0
:100BD0000099DB0F8A426341124A013320001360FF
:100BE000FFF71CFF200005B0F0BD0F4BEBE7022024
:100BF00084E7C0469C0500203F1F000094050020AC
:100C0000C0050020B8050020B6030000BC05002088
:100C10003C040000A4050020940300205F20000095
:100C20008C00002090030020AB200000F0B54D4B5D
:100C300091B01B6804900F000593002B03DD002387
:100C40000093002F01DC11B0F0BD474B01971B68EA
:100C50000693464B1B680793079A069B9B1A9F4275
:100C600000DD0193019A009B94465B000F93009B6B
:100C70003F4A634400935B000993002310320293C0
:100C8000049B9C46002B01D0D37A9C466146537A44
:100C9000384859430C91FF21CB1A614659430D91B5
:100CA000516813680891517B0F9D090141188868AC
:100CB0004C68C968039004190E910999A94218D883
:100CC0001360029B3032013302930299059B8B42E1
:100CD000D6D1019A079B9446244C069A634423601C
:100CE0009A4203D1FFF730FC00232360019BFF1AD7
:100CF000A7E79C4209D8039908008021C9018842CE
:100D00002CD903995B1A9C42FBD909990898491B75
:100D1000490841436046C918002821D00B948C42F1
:100D200000D90B910498690041180B988342C4D2F2
:100D30000E9E980B30560D9E0A90464330120E8838
:100D4000023586190E800A980C9E70434E88001258
:100D500080194880089804311B18E6E72300AFE7A4
:100D60000B00ADE79C050020CC050020D00500203D
:100D700090000020940300207047FEE77047704702
:100D800010B501F0C5F901F022FC10BD10B5024804
:100D900001F0F2FA10BDC046E405002007B50120BD
:100DA0000C4A91690143916193690022034011004B
:100DB00001930638019B01F0A7FB002202201100DD
:100DC000404201F0A1FB002201201100404201F04D
:100DD0009BFB07BD0010024070B51A4B026886B03D
:100DE00006009A422CD18020174A8005D16900253F
:100DF0000143D161D36901A903400093009B902076
:100E00003023C00501932D3B0293039501F09AF91D
:100E10000E4C0F4B20002360102363607033E3609F
:100E2000603BA36180239B01A56025616561E3614F
:100E300001F04EFAA84201D000F07EF8B46066627C
:100E400006B070BD0074004000100240E4050020B0
:100E500030000240074B026882B09A4208D110204D
:100E6000054AD1690143D161D36903400193019BD4
:100E700002B0704700100040001002407FB50F4BD9
:100E800002689A4218D180200D4AC001916901433D
:100E900091619369032203400093009BC023DB0010
:100EA00001939020022301A90293C005013B039303
:100EB0000492059301F046F907B000BD00380140E7
:100EC00000100240084B026882B09A4209D180208B
:100ED000064A0004D1690143D161D36903400193FB
:100EE000019B02B07047C046005C00400010024009
:100EF0000023180010B50D490D4C9A1C8A4211D1DF
:100F0000802120004900FFF791FE0A4B80221968DA
:100F10000023D200E018C07840B2C8500433934296
:100F2000F8D110BDE31818801300E6E702040000B2
:100F3000E00800200000002010B5024800F016F97B
:100F4000FEE7C046A42F0008202310B598B00B93ED
:100F5000012400230BA81394149300F0E5FC00284F
:100F600001D0FFF7E9FF0723029000930390043BB1
:100F700021006846019300F045FF0028F1D10E4B97
:100F800006900A9004A8049301F000F8041EE8D12A
:100F900000F0E6FFFA218900FFF7B0F801F0EEFA61
:100FA000042001F005FB012022002100404201F055
:100FB000ABFA18B010BDC04601000200F0B58DB00C
:100FC00001F096F8FFF7C0FF8021594C8902626951
:100FD00058480A436261636900260B4080210393ED
:100FE000039B626909030A436261636900220B4043
:100FF0000493C0210125049B01F060F9C02307A9D7
:101000004C480793089509960A9601F09BF8636986
:1010100032002B436361636931002B4002930A2045
:10102000029B01F071FA0A2001F09EFA4248434BFC
:1010300002240360082384604360C6600461866103
:10104000C661066200F02AFCB04201D0FFF774FFCF
:101050003B4F3C4B38003B6000F09EF8021EF5D140
:101060000423089007A93800079300F0C5F800286A
:10107000ECD10790102207A93800089400F0BCF8C2
:101080000028E3D1304E314B70603360304BB0609C
:101090003000F36000F09AF90028D7D120230690A1
:1010A00005A93000059300F0ACF90028CED1294BFA
:1010B000294A98601A60E12252025A600C22D860D4
:1010C00018619861D8611862586218005A6100F07E
:1010D000AFFB041EBAD12A008021164801F0EEF8B9
:1010E0001E48FFF77BFCFA211D4B490118801B4865
:1010F000FFF7F6FC642001F019F808230093F93398
:10110000FF33184A2100380000F090F833681A685D
:1011100015431D60144D2100280000F027F88021A0
:10112000044801F0D1F8642001F000F80134F2E73E
:101130000010024000080048E00E0020005C004063
:101140009008002000740040A40800200010004017
:10115000B80B00002008002000380140AB2F000829
:10116000E0050020E00C00203F5100080FB400B55E
:10117000A3B024AA02CA02A8019201F0CDFA0A2360
:1011800082B202A9034800F0C3FA23B008BC04B03D
:101190001847C0462008002010B504000120002C8C
:1011A0000DD02379DBB2002B03D163712000FFF750
:1011B00013FE022300202371013B2061237110BD27
:1011C00070477047042310B5446A22692000134316
:1011D0002361FFF7F6FF0123237110BD10B5406AAC
:1011E000FFF7EEFF10BD10B5446A2000FFF780FE48
:1011F0000123237110BD000030B5437904000220A3
:10120000012B10D020710848256890402B6883433B
:1012100018000B6849680B43934003432B60002080
:1012200001236071237130BDFE0F0000F7B50E0081
:1012300011000222019347790500089C1000012F3C
:101240004DD0013868712A71002E1DD1A868254A39
:101250002F688262244AC262244A02633A68944632
:101260008022634652011A433A603A000C32042C41
:1012700005D00432082C02D0083A002C30D180244A
:101280003B68A4019C461CE0E868194A2F6882620A
:10129000184A3B68C262184A0263802252051A4308
:1012A0003A603A001832042C07D00432082C04D0DB
:1012B00063426341083A5C4222403B6880249C467A
:1012C000A40563461C433C60019B01F029F80123FF
:1012D000B34000202A6811680B4313606871FEBD9B
:1012E0003200CCE7E7110008DD110008C511000845
:1012F000FF120008111300081D130008704710B5F5
:10130000446A2000FFF7FAFF0123237110BD7047E4
:1013100010B5406AFFF7FBFF10BD7047042310B5FE
:10132000446A2269200013432361FFF7F6FF01237B
:10133000237110BD1E4A10B50368904206D0802468
:10134000E405A04202D01B4CA0420CD17024A34360
:101350004C682343904212D08024E405A0420ED072
:10136000144CA0420BD0144CA04208D0134CA04205
:1013700005D0134CA04202D0124CA04203D1124C13
:101380002340CC68234303608B68C3620B6883628D
:10139000904208D0094B984205D0094B984202D0A0
:1013A000084B984201D10B6903630123436110BDCF
:1013B000002C01400004004000200040004001409B
:1013C0000044014000480140FFFCFFFF70B50400ED
:1013D0000120002C14D0250039352B78DBB2002BEE
:1013E00005D12200383213702000FFF733FD0223AD
:1013F00020682B70211DFFF79DFF012300202B701B
:1014000070BD30B504003834227803000220012A70
:1014100017D01D001B68393528705A686E3082431A
:101420005A605A6808684968024380205A609A687E
:1014300082439A609A6800200A439A6001232B70C5
:10144000207030BD70B504000568C269836800690A
:1014500029680343606903434A48134301400B432F
:101460002B606B684849206A0B40E1680B436B6056
:10147000A369A9680343454801400B438021AB6041
:10148000434B09029D4210D10320424B1B6B03408A
:101490004148C05C8A4246D0082819D8FEF71AFE97
:1014A0004F1854185E18181861003C4B9D422CD1FF
:1014B000C0208026374B80021B6B76020340B3426C
:1014C00054D007D8002B26D080231B029A4233D059
:1014D000012019E08026B602B3424CD08342F3D1FA
:1014E0008A4231D1636858082D4BC0186168FEF7F5
:1014F00005FE83B200200F22190091430A001B074A
:1015000021685B0F1343CB6070BD264B9D4202D018
:10151000254B9D42D8D18A4211D100F027FD636846
:1015200040005B08E1E7082806D8FEF7C9FDF6058C
:10153000DB0521050505260001200023DBE700F07F
:1015400015FD61684B0802E06168184B4808C01837
:10155000FEF7D4FD80B2E8600020D5E700F016FC6D
:10156000EFE7802361681B024808F0E78A42F5D163
:1015700000F00CFCD3E78A42F3D16368580880235B
:101580005B02B2E7F369FFEFFFCFFFFFFFF4FFFF5E
:1015900000380140001002404B5100080044004058
:1015A0000024F40000480040004C004000127A0083
:1015B000436A30B5DA0706D50168284C4A682240EC
:1015C000846A22434A609A0706D50168244C4A6817
:1015D0002240C46A22434A605A0706D50168214C5A
:1015E0004A682240046B22434A601A0706D5016804
:1015F0001D4C4A682240446B22434A60DA0606D5F5
:1016000001681A4C8A682240846B22438A609A06D9
:1016100006D50168164C8A682240C46B22438A6052
:101620005A0610D50168134D4A68046C2A402243BB
:101630004A6080225203944205D14A680E4C2240EF
:10164000446C22434A601B0606D502680B49536866
:101650000B40816C0B43536030BDC046FFFFFDFF64
:10166000FFFFFEFFFFFFFBFFFF7FFFFFFFEFFFFF1F
:10167000FFDFFFFFFFFFEFFFFFFF9FFFFFFFF7FF12
:10168000F7B51D0004000E00019200F049FD019B1A
:101690000700002B32D02268D36933409E4232D1FA
:1016A0006B1CF9D0002D09D000F03AFDC01B85421B
:1016B000F1D203E06B1C22D0002D1AD180212368C7
:1016C00012481A688A431A602022196891431960E7
:1016D00019680140196099680330FF3081439960AF
:1016E000230069331A705A70002368342370023063
:1016F0000AE000F015FDC01B8542DFD32268D369E4
:1017000033409E42D6D10020FEBDC046FFFEFFFF03
:10171000F7B5060001936936337804000D00022006
:10172000202B39D10138002936D0002A34D080232B
:10173000A1685B01994204D12369002B01D10542C4
:101740002AD1270068373B780220012B24D00123BF
:101750003B700023E36621333370230050331A803B
:101760005A80230052331A88002A0AD1019B402153
:101770002000FFF785FF00280DD12023337038703B
:101780000AE0013A1A808021019B00222000FFF725
:1017900077FF002801D00320FEBDA368226819004E
:1017A00080235B01994208D12369002B05D12B8846
:1017B0000235DB05DB0D1385D3E72B780135138567
:1017C000CFE70000002310B5174AC3660368040082
:1017D00093420BD0154A934208D0220020230020C8
:1017E0006932683413705370207010BD1B681B077A
:1017F0000ED423681B685B07EFD5FA2380219B007A
:101800000022C9032000FFF73BFF00280AD1E4E7CC
:10181000FA2380219B00002289032000FFF730FF7C
:101820000028E6D00320E0E70038014000440040F3
:1018300070B5041E01D1012070BD050069352B78FB
:10184000DBB2002B04D1020068321370FFF716FBE5
:101850002423012122682B70136820008B4313601E
:10186000FFF7F0FD0128E6D0636A002B02D02000CC
:10187000FFF79EFE236808495A6820000A402A2183
:101880005A609A688A439A60012219680A431A606A
:10189000FFF798FFD0E7C046FFB7FFFF70B5040021
:1018A0000120002C2BD0EA25FF35635DDBB2002B35
:1018B00005D1F4225200A3542000FFF703FB0323B9
:1018C00000226355230011000126606828338242FC
:1018D00016D10021230008000933FF338A4218D1B2
:1018E0000020012123689A1C9E1D5033D187D08788
:1018F000F08718800B4BD387631DD877615570BD77
:101900001A705E70D970D9601961596101321C3347
:10191000DDE719705870D870D860186158610131CE
:101920001C33DBE700BFFFFFF0B5036885B005009F
:10193000DB0733D42B689B0700D58AE02B681B0795
:1019400000D5CAE02B685B0700D5EDE02B68DB060D
:101950001AD56A69BC4C0423012A00D059E1616B95
:1019600002260B436363636B1A43626300F0D8FB88
:101970000700636B334200D144E1F821626BAB692D
:101980008A43DB00134363632B689B0600D567E142
:10199000696A002900D0A4E1002018E00C21AA4CBB
:1019A00062680A40042A0BD063680B40082B10D1F0
:1019B000C02263685202134080225202934208D12F
:1019C00023689B03B6D56B68002BB3D1012005B00B
:1019D000F0BD6B68012B13D1802322685B02134397
:1019E000236000F09DFB80260700B6022368334287
:1019F000A0D100F095FBC01B6428F7D90320E6E7CF
:101A0000002B16D12368914A802613402360236857
:101A10008F4AB6021340236000F082FB0700236860
:101A2000334200D186E700F07BFBC01B6428F6D967
:101A3000E4E7052B05D180232268DB0213432360F2
:101A4000CAE72368814A134023602368804A134011
:101A5000C6E70C227C4C636813420BD063681340CA
:101A6000082B15D1C0226368520213408022120253
:101A700093420DD123689B0702D5EB68012BA5D1BA
:101A8000F82122682B698A43DB001343236055E762
:101A9000EA680123002A0FD022680226134323603C
:101AA00000F03EFB070023683342E9D100F038FB29
:101AB000C01B0228F7D9A1E7226802269A432260B8
:101AC00000F02EFB07002368334200D136E700F018
:101AD00027FBC01B0228F6D990E7EA6901235A4C7C
:101AE000002A10D0626A02261343636200F018FBDA
:101AF0000700636A334200D024E700F011FBC01BEB
:101B00000228F6D97AE7626A02269A43626200F0F6
:101B100007FB0700636A334200D113E700F000FBC4
:101B2000C01B0228F6D969E780220021464C5205E5
:101B3000E3690091134208D1E3691343E361E36968
:101B400013400393039B012300938027414E7F00A2
:101B500033683B4206D0AB68012B13D1226A134392
:101B6000236230E033683B43336000F0D9FA0190E0
:101B700033683B42EFD100F0D3FA019BC01A6428CE
:101B8000F6D93BE70122002B14D1236A02279343A5
:101B90002362236A03329343236200F0C1FA0600F2
:101BA000236A3B4225D000F0BBFA2B4B801B9842A6
:101BB000F6D923E7052B0BD1216A013B0B432362A6
:101BC000236A1A43226200F0ABFA022706000DE0F6
:101BD000236A934304222362236A9343C0E700F0FD
:101BE0009FFA1D4B801B984200D907E7236A3B42AE
:101BF000F5D0009B012B00D0A8E6E369174A1340FB
:101C0000E361A3E600F08CFAC01B022800D8B0E61E
:101C1000F4E6053203D1626B9A436263ADE6626B10
:101C20000226134301226363636B9343636300F0F3
:101C300077FA0700636B334200D1A5E600F070FA33
:101C4000C01B0228F6D9D9E600100240FFFFFEFFB4
:101C5000FFFFFBFF0070004088130000FFFFFFEF55
:101C60000C21464C62680A408A4209D063680B40E6
:101C7000082B0ED1C022636852021340934208D150
:101C8000636BDB0300D483E62B6A012B00D09DE657
:101C90007EE62B6A002B11D08026636B76023343DD
:101CA000636300F03DFA0700636B334200D06FE6D8
:101CB00000F036FAC01B0228F6D99FE6636B304A63
:101CC00080261340636300F02BFA07007602636BF3
:101CD000334200D15CE600F023FAC01B0228F6D99B
:101CE0008CE60C22254C63681340082B00D16DE66E
:101CF0002368244A1340236002292FD100F010FAF0
:101D000080260700B6042368334221D10F22E36AFC
:101D100093432A6B1343E362A96AEB6A62680B433D
:101D2000194980250A4013436360802322685B04BD
:101D30001343236000F0F4F90600AD0423682B423E
:101D400000D029E600F0ECF9801B0228F6D955E610
:101D500000F0E6F9C01B0228D5D94FE600F0E0F903
:101D600080250600AD0423682B4200D114E600F064
:101D7000D7F9801B0228F6D940E6C0460010024081
:101D8000FFFFFEFFFFFFFFFEFF7FC2FF70B5194C94
:101D900088B010222100684600F09CFC210004ADB0
:101DA00010221031280000F095FC0C22124E7368AE
:101DB0001A40082A04D00C2A1AD1104808B070BD65
:101DC0000F206A46990C0140545CF26A0240A95CFB
:101DD000C0228020520213404002834201D10848B1
:101DE00002E09342FBD10548FEF788F96043E5E73E
:101DF0000348E3E7242F000800100240006CDC02D7
:101E000000127A00F7B501224F4C060023680191B9
:101E100013408B421FD33268930728D4D3072ED4A4
:101E20000123226801991A40914200D27EE0336872
:101E3000464C5B0700D580E0FFF7A8FF6368444A83
:101E40001B061B0FD35CD840424B1860002000F0EB
:101E50003DF900200AE02368019993430B43236076
:101E600023681340019A9A42D5D00120FEBDF0208C
:101E700036494B688343B06803434B60CEE77268D2
:101E8000324D012A1AD12B689B03EED503216B68D2
:101E90008B4313436B6000F043F973680700012B19
:101EA0001CD10C226B681340042BB9D000F038F918
:101EB000294BC01B9842F4D90320D7E7022A03D14B
:101EC0002B689B01E2D4D0E7032A03D16B6BDB03C1
:101ED000DCD4CAE72B689B07D8D4C6E7022B0BD10A
:101EE0000C226B681340082B9AD000F019F91A4B9A
:101EF000C01B9842F4D9DFE7032B11D00C226B688A
:101F0000134200D18CE700F00BF9134BC01B984231
:101F1000F4D9D1E700F004F90F4BC01B9842CBD89D
:101F20000C226B6813409342F4D179E722689A43FC
:101F3000226022681A4298D179E76368074A134001
:101F4000F2681343636077E700200240001002400C
:101F50004F5100080400002088130000FFF8FFFF25
:101F6000014B18687047C04604000020044B054A26
:101F70005B685B055B0FD35C034A1068D840704711
:101F8000001002405F51000804000020F0B5036813
:101F900085B00500DB0328D580220021444C520582
:101FA000E3690091134208D1E3691343E361E369F4
:101FB00013400393039B0123009380273D4E7F0032
:101FC00033683B4241D0C022236A920013403A4E0C
:101FD0004DD1236A1E406B681E43009B2662012B75
:101FE00003D1E369354A1340E3612B68DA0706D56C
:101FF00003202F490A6B8243A86802430A639A07A9
:1020000006D52B492E480A6B0240E86802430A6352
:102010009A0606D5102026490A6B82432869024396
:102020000A639A0306D5802021490A6B8243A86976
:1020300002430A6300205B0517D540211C4A136B3D
:102040008B4369690B4313630FE033683B43336091
:1020500000F066F8019033683B42B4D100F060F8BC
:10206000019BC01A6428F6D9032005B0F0BD696849
:102070000A409342ADD08023226A206A11005B029D
:1020800003432362236A0F483140034023622162E5
:10209000D3079ED500F044F807000222236A1342BA
:1020A00097D100F03DF8084BC01B9842F5D9DBE70B
:1020B0000010024000700040FFFCFFFFFFFFFFEF39
:1020C000FFFFFCFFFFFFFEFF8813000010B50400B8
:1020D000FFF746FFFA218900FEF710F800F04EFAEC
:1020E000012000222100404200F00EFA002010BD25
:1020F0001023064A10B5116800200B431360FFF748
:10210000E5FFFEF74BFE002010BDC0460020024058
:10211000024A1368013313607047C0460011002063
:10212000014B18687047C0460011002013B501909C
:10213000FFF7F6FF0400FFF7F3FF019B001B984237
:10214000F9D313BDF0B5564A0B688218541EA2414C
:1021500089B00393002304320592039ADA4001D137
:1021600009B0F0BD01229A4094466446039A224089
:10217000029200D192E04A6801921022019E964399
:10218000022E0DD107240F271C40A400A740DA0817
:1021900092008218156ABD430F69A7403D4315623E
:1021A000032214005D00AC40E4430768013E274071
:1021B0000497019F3A40AA40049F3A430260012ECF
:1021C0000ED8CA688668AA402640324382606246BA
:1021D00046689643019AD206D20F9A403243426033
:1021E000C26814408A68AA401443019AC460D200AD
:1021F00054D501262B4A1D00946934439461926999
:102200009C0832400792079A274AA400A418A268A3
:10221000944603221540AD000C32AA40674697430E
:102220009022D2059446002260450DD01F4A944664
:102230003200604508D01E4E9218B04204D01D4EA8
:102240000132B04200D0059AAA403A43A2601A4A2D
:10225000029C1668029D019FE4433543FF0301D4AD
:102260003500254015605668029D019F3543BF0328
:1022700001D43500254055609668029D019F354385
:10228000FF0201D4350025409560D568029E019F6C
:102290002E43BF0201D425402E00D66001335CE7F7
:1022A00000F0FFB7001002400000014000040048A9
:1022B00000080048000C004800040140002A01D03A
:1022C000816170478162FCE7436959404161704711
:1022D000020030B50120002A1FD0911CCB7FDBB259
:1022E000002B01D11018C37702231068CB77046844
:1022F0000A4B95681C4053682B43D5682B431569DE
:102300002B4355692B4395692B43D5692B432343B5
:102310000360002001239063CB7730BD0FC0FFFF27
:10232000F0B50225471CFE7F2C00012E1ED0012691
:102330004419FE77E57704682568B5432560636036
:102340004368102B14D1A260E1600223226813437A
:102350002360042322681343236008232268134365
:102360002360012322681343236000242000F0BD72
:10237000A160E260E9E7000070B503685B4D5C4E68
:10238000040029680822B34215D05A4878328342A3
:1023900011D0594A934200D184E0584A934200D167
:1023A00083E0574A934200D182E0564A934200D1DB
:1023B00081E080221205114216D0082019680142DE
:1023C00012D019688143196001236A60A26B13431C
:1023D0000422A363A31CDA770022631CDA77236B41
:1023E000934201D020009847236829680422B34211
:1023F00011D040483C3283420DD03F4A93425DD0D9
:102400003E4A93425DD03E4A93425DD03D4A93425C
:102410005DD08022D204114212D0042019680142FA
:102420000ED01968890602D41968814319606A6060
:102430001122A31CDA77E36A002B01D02000984711
:10244000236829680222B34211D02A481E328342EF
:102450000DD0294A93423DD0284A93423DD0284A84
:1024600093423DD0274A93423DD0802292041142AC
:1024700017D002201968014213D01968890602D4C6
:102480001968814319606A600122A36BA363A31CCE
:10249000DA77A3180022DA77A36A934201D02000EA
:1024A000984770BD8022120185E78022120282E7E0
:1024B000802212037FE7802212047CE78022D20070
:1024C000A9E78022D201A6E78022D202A3E78022D8
:1024D000D203A0E780229200C9E780229201C6E7DA
:1024E00080229202C3E780229203C0E700000240EC
:1024F000080002401C00024030000240440002403C
:10250000580002406C00024070B58901002814DABE
:102510000F23C0B20340083B114A9B089B009B1845
:10252000032210409040FC3215001140854081404C
:10253000DC69AC432143D96170BD03258308284081
:10254000A840FC352E00074A9B009B18C0228640FD
:102550002940814092009C58B44321439950EBE7B5
:1025600000ED00E000E100E01F2318401E3B834027
:10257000014A13607047C04600E100E0094A431E6B
:10258000012093420DD8C021074A08485360036ACE
:1025900009061B021B0A0B430362002007239060FD
:1025A00013607047FFFFFF0010E000E000ED00E067
:1025B000054B1A68042802D11043186070470421A3
:1025C0008A431A60FAE7C04610E000E0704710B591
:1025D000FFF7FCFF10BD00000121114B11481A68E4
:1025E0000A431A605A6802405A601A680E4802404C
:1025F0001A601A680D4802401A605A680C48024076
:102600000F205A60DA6A8243DA621A6B0948024084
:102610001A635A6B8A435A6300229A607047C04615
:10262000001002400CB8FF08FFFFF6FEFFFFFBFFA3
:10263000FFFFC0FF2CFEFCFF0D488546002103E094
:102640000C4B5B58435004310B480C4B42189A42D8
:10265000F6D30B4A02E0002313600432094B9A427E
:10266000F9D3FFF7B9FF00F011F8FEF7A7FCFEE77A
:1026700000400020A4510008000000206C00002051
:102680006C00002008110020FEE7000070B5002655
:102690000C4D0D4C641BA410A64209D1002600F07D
:1026A00035FC0A4D0A4C641BA410A64205D170BD2E
:1026B000B300EB5898470136EEE7B300EB58984764
:1026C0000136F2E79C5100089C5100089C5100081B
:1026D000A0510008002310B59A4200D110BDCC5C77
:1026E000C4540133F8E7000030B59BB00091049169
:1026F00008496D4602910591012182244942E981F0
:10270000A4006946AC8100F075F80023009A1370AC
:102710001BB030BDFFFFFF7F10B513000A000100A2
:1027200002480068FFF7E0FF10BDC0460800002027
:10273000F0B58E6885B007000C00039201939E42AD
:1027400039D890238A89DB001A4234D003250969DD
:1027500023685B1A0293636902985D43EB0F5D196E
:10276000019B6D1001331B18AB4200D91D005305AE
:1027700032D52900380000F029FB061E09D10C23B0
:102780003B6040230120A28940421343A38105B04E
:10279000F0BD029A2169FFF79DFFA389144A1A40F0
:1027A00080231343A381029B2661F618266065618E
:1027B000019EED1AA560019BB34200D21E003200BB
:1027C0000399206800F0ADFAA36800209B1BA3606A
:1027D00023689E192660DAE72A00380000F048FBDB
:1027E000061EE0D12169380000F0AEFAC7E7C04606
:1027F0007FFBFFFFF0B59FB0029005938B890F0020
:1028000016001B0611D50B69002B0ED1402100F0DC
:10281000DDFA38603861002805D10C23029A0138AE
:1028200013601FB0F0BD40237B61002306AD6B61D8
:1028300020336B761033AB7634002378002B47D1EE
:10284000A31B04930DD0A31B320039000298FFF79D
:102850006FFF431C00D1B5E06A69049B9446634452
:102860006B612378002B00D1ACE00122002352429F
:102870006A6002A95432521801342B60EB60AB60DD
:102880001370AB65584E05222178300000F03EFAF7
:10289000621C002820D12968CB0604D5532302AE40
:1028A00020309B1918700B0704D553232B2002AE40
:1028B0009B19187023782A2B16D000200A21099B17
:1028C0002278303A092A55D9002815D0099313E007
:1028D000252BB5D00134B0E70123801B8340296844
:1028E00014000B432B60CDE7059B181D1B6805905A
:1028F000002B39DB0993140023782E2B0BD163783E
:10290000621C2A2B3ED1059B02341A1D1B680592BE
:10291000002B34DB0793354E21780322300000F082
:10292000F5F9002806D04023801B83402A68013433
:1029300013432B60217806222D48661C297600F06F
:10294000E5F9002846D02B4B002B2FD12968059B99
:102950000722C90528D59B189343083305936B6953
:10296000039A9B186B6167E75B42EB6002230B43A2
:102970002B60C0E74B4301349B180120A0E70123E3
:102980005B42C7E7002314000A201A006B6021781D
:102990003039092903D9002BBDD00792BBE7424348
:1029A000013452180123F2E70733D5E705AB009352
:1029B0003A00114B2900029800E000BF0390039BEE
:1029C0000133CCD1BB890B985B0600D429E70120E9
:1029D000404226E705AB00933A00074B29000298D6
:1029E00000F07AF8EAE7C046695100086F51000824
:1029F000735100080000000031270008F7B51500EA
:102A000001938A680B6900900C00934200DA13006E
:102A100022002B6043321278002A01D001332B6050
:102A200023689B0602D52B6802332B600627236898
:102A30001F4027D0230043331B785A1E934122683E
:102A4000920630D42200019943320098089EB04784
:102A5000431C25D0062320682A68E168034000252E
:102A6000042B03D18D1AEB43DB171D40A3682269A9
:102A7000934201DD9B1AED180027BD4220D10020B2
:102A800010E00137E3682A689B1A9F42D2DA2200DD
:102A90000123193201990098089EB047431CF0D1D8
:102AA00001204042FEBD3020E11843310870210072
:102AB0005A1C45310978A218433202331170C1E71C
:102AC000220001231A3201990098089EB047431C46
:102AD000E6D00137D1E70000F0B58BB006920A00CE
:102AE00043320793059004920A7E0C00109B6E2AD5
:102AF00000D18FE017D8632A2CD008D8002A00D143
:102B000099E0582A54D026004236327029E0642ACF
:102B100001D0692AF7D121681A68080623D5111D4A
:102B20001960156825E0732A00D188E008D86F2A5B
:102B300029D0702AE7D1202209680A43226003E0E5
:102B4000752A20D0782ADED12200782145321170F2
:102B50006C4A30E00E001A684236111D1960136885
:102B60003370012379E04906D9D5111D196000237E
:102B7000D55E002D03DA2D23049A6D421370624B4B
:102B80000A2703932FE020681968050603D5081D5E
:102B900018600D6805E04006F9D50D68081D18603D
:102BA000ADB2594B082703936F2A18D00A2716E0B5
:102BB00045310A70544A03921A682168101D186042
:102BC0001568080622D5CB0702D5202319432160BA
:102BD0001027002D03D1202322689A43226023006E
:102BE000002243331A706368A360002B5CDB04226D
:102BF000216891432160002D58D1049E002B64D0A0
:102C00002600039B42361B7833705EE04806DAD517
:102C1000ADB2D8E709681A68080605D5111D196014
:102C2000136862691A6006E04906F7D5111D19603C
:102C30001368A28A1A800023049E236154E01A6854
:102C4000111D1960166800216268300000F05EF8FE
:102C5000002801D0801B6060636823610023049A10
:102C6000137041E02369320006990598079DA84733
:102C7000431C43D0236800259B070FD4099BE068C1
:102C800098423DDA18003BE02200012319320699F0
:102C90000598079EB047431C30D00135E368099A78
:102CA0009B1A9D42F0DBE9E7002DA9D0049E280085
:102CB0003900FDF767FA039B013E5B5C2800337027
:102CC0003900FDF71BFA051EF1D1082F09D1236841
:102CD000DB0706D563682269934202DC3023013E9C
:102CE0003370049B9B1B2361079B09AA009321005F
:102CF000069B0598FFF782FE431CB3D1012040429A
:102D00000BB0F0BD8B5100087A510008C9B282188F
:102D1000904201D10020704703788B42FBD00130F4
:102D2000F6E710B5884202D98B18984208D30023E1
:102D30009A4207D0CC5CC4540133F9E78B5C8354CE
:102D4000013AFBD210BD000030B500290AD0043989
:102D50000B68002B00DAC9181B4A1368002B02D13C
:102D60004B60116030BD8B4209D908680C18A34232
:102D7000F6D11C685B6820180860F1E713005A68F8
:102D8000002A01D08A42F9D91C681D198D420BD145
:102D900009686118581819608242E3D110685268B6
:102DA000411819605A60DDE78D4202D90C23036097
:102DB000D8E708680C18A24203D11468526820189A
:102DC00008604A605960CDE7D4050020032370B540
:102DD000CC1C9C43083405000C2C21D20C24A142AD
:102DE00020D821480668310000291FD11F4E3368C2
:102DF000002B03D1280000F061F83060210028008A
:102E000000F05CF8431C0DD00322C61C9643B04270
:102E100013D0311A280000F051F8431C0DD101E005
:102E2000002CDCDA0C2300202B6070BD0B681A1B11
:102E300017D40B2A03D90A608E18346003E08E423F
:102E40000BD173680360300007210B30321D8843BB
:102E5000821AEAD05142B150E7E74B6873600E0026
:102E6000F1E70E004968BFE7D4050020D80500202F
:102E7000F8B507000D001600002905D11100FFF775
:102E8000A5FF04002000F8BD002A03D1FFF75CFF76
:102E90003400F7E700F024F82C008642F2D9310024
:102EA0003800FFF793FF041EECD029003200FFF733
:102EB00011FC29003800FFF747FFE3E7002370B556
:102EC000064C05000800236000F012F8431C03D1F3
:102ED0002368002B00D02B6070BDC0460411002079
:102EE0000B1F1B68181F002B01DA0B58C018704706
:102EF000044A1368002B03D018181060180070479C
:102F0000014BF9E7DC05002008110020F8B5C046A8
:102F1000F8BC08BC9E467047F8B5C046F8BC08BC73
:042F20009E46704712
:102F240002030405060708090A0B0C0D0E0F101006
:102F34000102030405060708090A0B0C0D0E0F1005
:102F440000101A0F410E740DB30CFD0B500BAE0A9A
:102F5400140A8309FB087A0800088D072107BA06BA
:102F6400F410D410B510971078105A103C101E109D
:102F74000010E30FC50FA80F8B0F6F0F520F360F02
:102F84000018314A61788DA1B4C5D4E0EBF4FAFDA0
:102F9400FFFDFAF4EBE0D4C5B4A18D78614A311891
:102FA40050616E6963210072617A6F723139313117
:102FB40020636869706469736B3032236D616B746C
:102FC4006F6E6500000000000000000000000000BB
:102FD400000000000000000000636C6173737570F2
:102FE40065727374617273616321000000000000F4
:102FF4003E00400006003800000000000000000011
:1030040000000000000000000000000000000700B5
:103014004000000007677565737472656C656173C1
:103024006520666F7220610000000000B900400056
:1030340000000072617A6F7231393131206368693E
:10304400706469736B21000000008600400000007A
:10305400000000000000000000000000000000006C
:1030640000000000000000011A0040000000000001
:10307400000000000000000000000000000000004C
:1030840000000000000007004000000007236D61FD
:103094006B746F6E65406368697074756E652E63DA
:1030A4006F6D0000070040000000070000000000F2
:1030B400000000000000000000000000000000000C
:1030C40000000000000000000000000000000000FC
:1030D40000000000000000000000000000000000EC
:1030E40000000000000000000000000000000000DC
:10335400000000000000000000000000000700055D
:10336400000200010304000000000000000000004F
:103374000000000000000000000000000000000049
:103384000000000000000000000000000000000039
:103394000000000000000000000000000000000029
:1033A4000000000000000000000000000000000019
:1033B4000000000000000000000000000000000009
:1033C40000000000000000000000000000000000F9
:1033D4000000000000000000000000000000004D9C
:1033E4002E4B2E03582A0400FE4F04011D305801B1
:1033F40040800000000A0400000000011D70580114
:103404001D800001AC2A0401AC500000000C000037
:103414000004F400000A04000000000000000000A2
:1034240000040001AC6000023A700C01AC300C00E6
:10343400000C1001AC6C10023A700C01AC700C0062
:1034440000000001AC2A0400FE4000011D305801B8
:1034540068800000000A0400000000011D7058008C
:1034640000000003582A0401AC500000000C0000C6
:10347400000C1000000A0400000000011D30580078
:1034840000000001AC2A0400FE4000011D70580039
:1034940000000000000A040000000000000C00000E
:1034A40000000001AC600000000000011D30570165
:1034B4007D800001AC6C1000000000011D705700FD
:1034C40000000003582A0401AC500001AC300C0089
:1034D40000040000000A040000000001AC300C00ED
:1034E40000040002D02A0400FE4000011D3038010F
:1034F4007D800000000A0400000000011D703801F6
:1035040068800001682A0401AC50000168300C0096
:1035140000040000000A04000000000168700C00B0
:1035240000040001AC6000023A300C011D30380088
:1035340000040001AC6C10023A700C011D703800DC
:1035440000040001682A0400FE4000011D30380117
:103554007D8C1000000A0400000000011D7038007A
:1035640000000002D02A0401AC500000000C00014D
:10357400688C1000000A0400000000000000000035
:1035840000000001682A0400FE40000168300C01BC
:1035940040800000000A04000000000168700C0173
:1035A4001D800001AC6000023A300C011D3058014E
:1035B400688C1001AC6C10023A700C011D7058003C
:1035C40000000002D02A0401AC500000000C0000EE
:1035D400F0800000000A0400000000000000000168
:1035E4001D8C10021A2A0400FE4000010D30470011
:1035F400D6800000000A0400000000010D7047009E
:10360400000000010D2A0401AC500000000C000071
:1036140000040000000A0400000000000000000094
:1036240000040001AC6000021A300C01AC300C0044
:10363400F0800001AC6C10021A700C01AC700C002C
:10364400D68C10010D2A0400FE4000010D30470104
:103654000D800000000A0400000000010D70470006
:10366400000000021A2A0401AC500000000C000003
:10367400F08C1000000A0400000000010D30470027
:10368400000000010D2A0400FE4000010D704701F6
:1036940068800000000A040000000000000C000024
:1036A40000000001AC600000000000010D302700A4
:1036B40000040001AC6C1000000000010D70270034
:1036C400000400010D2A0401AC500001AC300C01CF
:1036D4000D8C1000000A040000000001AC700C0006
:1036E40000000002802A0400FE400001403037013F
:1036F40068800000000A04000000000140703701E7
:1037040040800001402A0401AC500001AC300C00A0
:1037140000040000000A04000000000000000C0087
:1037240000040001AC6000021A300C014030370084
:1037340000040001AC6C10021A700C0140703700D8
:1037440000040001402A0400FE400001403037011B
:10375400688C1000000A040000000001407037006B
:1037640000000002802A0401AC500000000C00019B
:10377400408C1000000A040000000000000000005B
:1037840000000001402A0400FE400001AC300C019E
:10379400AC800000000A040000000001AC700C00C2
:1037A40000000001AC6000021A300C014030270018
:1037B40000040001AC6C10021A700C014070270068
:1037C40000040002802A0401AC500000000C000137
:1037D400408C1000000A04000000000000000000FB
:1037E40000000003582A0400FE4000011D30580167
:1037F400AC800000000A0400000000011D705800A5
:1038040000000001AC2A0401AC500000000C0000D0
:103814000004F400000A040000000000000000009E
:1038240000040001AC6000023A700C01AC300C00E2
:10383400000C1001AC6C10023A700C01AC700C005E
:1038440000000001AC2A0400FE4000011D305800B5
:1038540000000000000A0400000000011D70580070
:1038640000000003582A0401AC500000000C0000C2
:1038740000000000000A0400000000011D30580090
:1038840000000001AC2A0400FE4000011D70580134
:1038940068800000000A040000000000000C000121
:1038A400AC8C1001AC600000000000011D30570119
:1038B4007D800001AC6C1000000000011D705701F8
:1038C400688C1003582A0401AC500001AC300C027F
:1038D4001A800000000A040000000001AC700C0112
:1038E400E0800002D02A0400FE4000011D303800B0
:1038F40000040000000A0400000000011D703800EC
:1039040000040001682A0401AC50000168300C0076
:10391400000C1000000A04000000000168700C0094
:1039240000000001AC6000023A300C011D30380088
:1039340000000001AC6C10023A700C011D703800DC
:1039440000000001682A0400FE4000011D30380018
:1039540000000000000A0400000000011D7038008F
:1039640000000002D02A0401AC500000000C000149
:10397400AC800000000A0400000000000000000009
:1039840000000001682A0400FE40000168300C00B9
:1039940000040000000A04000000000168700C002C
:1039A40000040001AC6000023A300C011D305801E3
:1039B400E08C1001AC6C10023A700C011D705800C0
:1039C40000000002D02A0401AC500000000C0001E9
:1039D4007D800000000A04000000000000000001D7
:1039E400688000021A2A0400FE4000010D304700DE
:1039F40000040000000A0400000000010D704700EC
:103A0400000400010D2A0401AC500000000C000168
:103A1400AC3C2000000A040000000000000000008C
:103A240000000001AC6000021A300C01AC300C0143
:103A3400683C2001AC6C10021A700C01AC700C00D4
:103A4400000000010D2A0400FE4000010D30470172
:103A5400AC3C1000000A0400000000010D70470097
:103A6400000000021A2A0401AC500000000C0001FE
:103A7400683C1000000A0400000000010D304700FB
:103A8400000000010D2A0400FE4000010D704701F2
:103A94000D800000000A040000000000000C00007B
:103AA400000C1001AC600000000000010D30270183
:103AB4001D800001AC6C1000000000010D70270097
:103AC400000C10010D2A0401AC500001AC300C01B3
:103AD40068800000000A040000000001AC700C01C2
:103AE40040800002802A0400FE400001403037007C
:103AF40000040000000A04000000000140703700C8
:103B040000040000000C0000FE400000000C000057
:103B1400000400000000000000000000000000009D
:103B240000040001AC600000000000000000000080
:103B3400000C1001AC6C100000000000000000003C
:103B44000000000000000000FE4000000000000033
:103B54000000000000000000000000000000000061
:103B640000000001E060000000000001407210004D
:103B7400000C0001E06C10000000000000021000C6
:103B840000000001C56000000000000000021000F9
:103B940000000001C56C10000000000000021000CD
:103BA40000000001AC60000140221000000210007F
:103BB40000000001AC6C10000002100000021000B4
:103BC40000000001AC60000140221000000210005F
:103BD40000000001AC6C2000000210000002100084
:103BE40000000003582A0400FE4000011D30580163
:103BF400AC800000000A0400000000011D705800A1
:103C040000000001AC2A0401AC500000000C0000CC
:103C14000004F400000A040000000000000000009A
:103C240000040001AC6000023A700C01AC300C00DE
:103C3400000C1001AC6C10023A700C01AC700C005A
:103C440000000001AC2A0400FE4000011D305800B1
:103C540000000000000A0400000000011D7058006C
:103C640000000003582A0401AC500000000C0000BE
:103C740000000000000A0400000000011D3058008C
:103C840000000001AC2A0400FE4000011D70580130
:103C940068800000000A040000000000000C00011D
:103CA400AC8C1001AC600000000000011D30570115
:103CB4007D800001AC6C1000000000011D705701F4
:103CC400688C1003582A0401AC500001AC300C027B
:103CD4001A800000000A040000000001AC700C010E
:103CE400E0800002D02A0400FE4000011D303800AC
:103CF40000040000000A0400000000011D703800E8
:103D040000040001682A0401AC50000168300C0072
:103D1400000C1000000A04000000000168700C0090
:103D240000000001AC6000023A300C011D30380084
:103D340000000001AC6C10023A700C011D703800D8
:103D440000000001682A0400FE4000011D30380014
:103D540000000000000A0400000000011D7038008B
:103D640000000002D02A0401AC500000000C000145
:103D7400AC800000000A0400000000000000000005
:103D840000000001682A0400FE40000168300C00B5
:103D940000040000000A04000000000168700C0028
:103DA40000040001AC6000023A300C011D305801DF
:103DB400E08C1001AC6C10023A700C011D705800BC
:103DC40000000002D02A0401AC500000000C0001E5
:103DD4007D800000000A04000000000000000001D3
:103DE400688000021A2A0400FE4000010D304700DA
:103DF40000040000000A0400000000010D704700E8
:103E0400000400010D2A0401AC500000000C000164
:103E1400AC8C2000000A0400000000000000000038
:103E240000000001AC6000021A300C01AC300C013F
:103E3400688C2001AC6C10021A700C01AC700C0080
:103E4400000000010D2A0400FE4000010D3047016E
:103E5400AC8C1000000A0400000000010D70470043
:103E6400000000021A2A0401AC500000000C0001FA
:103E7400688C1000000A0400000000010D304700A7
:103E8400000000010D2A0400FE4000010D704701EE
:103E94000D800000000A040000000000000C000077
:103EA400000C1001AC600000000000010D3027017F
:103EB4001D800001AC6C1000000000010D70270093
:103EC400000C10010D2A0401AC500001AC300C01AF
:103ED40068800000000A040000000001AC700C01BE
:103EE40040800002802A0400FE4000014030370078
:103EF40000040000000A04000000000140703700C4
:103F040000040001402A0401AC500001AC300C0153
:103F14001D8C2000000A04000000000000000C00BA
:103F2400000C1001AC6000021A300C014030370163
:103F3400408C2001AC6C10021A700C0140703700E8
:103F4400000C1001402A0400FE40000140303701FB
:103F54007D800000000A0400000000014070370169
:103F640068800002802A0401AC500000000C0000AC
:103F7400000C1000000A0400000000000000000013
:103F840000000001402A0400FE400001AC300C0196
:103F9400AC800000000A040000000001AC700C00BA
:103FA400000C1001AC6000021A300C0140302701F3
:103FB40068800001AC6C10021A700C01407027007C
:103FC400000C1002802A0401AC500000000C000117
:103FD40040800000000A040000000000000000000F
:103FE400000C1001E02A0400FE400000F0304700FD
:103FF400000C0000000A040000000000F0704700FC
:1040040000000001E02A0401AC500000F030470039
:1040140000000000000A040000000000F0704700E7
:1040240000000001AC600001AC500001E0700C0124
:104034000D800001AC6C100000000001E0700C0069
:10404400F0800001E02A0400FE400000F030470048
:104054000004F400000A040000000000F0704700AF
:1040640000040000000A0401AC500001E0700C00E0
:10407400000C1000000A040000000001E0700C00B5
:10408400000000017D2A0401AC500000F03047011B
:104094007D800000000A040000000000F07047006A
:1040A40000000001AC600001AC500001E0700C00A5
:1040B40000040001AC6C1000000000017D700C00D5
:1040C40000040001E02A0401AC50000140700C011E
:1040D400AC800000000A0400000000017D700C00A8
:1040E400000000021A2A0400FE4000010D304701BE
:1040F40068800000000A0400000000010D70470001
:1041040000000000000A0401AC5000021A700C0008
:10411400000C1000000A040000000001AC700C0147
:10412400AC800001AC600001AC50000168700C0070
:1041340000000001AC6C100000000001AC700C0029
:10414400000C10021A2A0400FE4000010D30470141
:104154007D800000000A0400000000010D7047008B
:1041640000000000000A0401AC5000021A700C00A8
:10417400000C1000000A0400000000021A700C0178
:10418400688000021A2A0401AC5000010D30470077
:1041940000000000000A0400000000010D70470048
:1041A400000C1001AC600001AC5000021A700C014C
:1041B4000D800001AC6C100000000001AC700C001C
:1041C400000000021A2A0401AC50000168700C00BF
:1041D400000C1000000A040000000001AC700C0088
:1041E400000000023A2A0400FE4000011D3037019D
:1041F40040800000000A0400000000011D70370127
:104204001D8000023A2A0401AC5000011D30370021
:1042140000040000000A0400000000011D703700C3
:1042240000040001AC600001AC5000023A700C00C4
:1042340000040001AC6C1000000000023A700C0095
:10424400000400023A2A0400FE4000011D30370039
:10425400000C1000000A0400000000011D7037006B
:1042640000000000000A0401AC5000023A700C0087
:1042740000000000000A0400000000023A700C0074
:10428400000000017D2A0401AC5000011D303700FC
:10429400F0800000000A0400000000011D703700D7
:1042A40000000001AC600001AC5000023A700C0048
:1042B40000040001AC6C100000000001E0700C0070
:1042C400000400023A2A0401AC5000017D700C0184
:1042D4001D8C1000000A040000000001E0700C00B6
:1042E40000000002802A0400FE4000014030470123
:1042F40068800000000A04000000000140704701CB
:1043040040800000000A0401AC50000280700C00E0
:1043140000040000000A040000000001FC700C000E
:1043240000040001AC600001AC500001AC700C0052
:1043340000040001AC6C100000000001FC700C00D3
:1043440000040002802A0400FE40000140304700BF
:10435400000C0000000A0400000000014070470047
:1043640000000000000A0401AC50000280700C023E
:104374008070CC00000A04000000000280700C0071
:10438400000C0002802A0401AC50000140304701B7
:10439400FC70CC00000A04000000000140704700DB
:1043A400000C0001AC600001AC50000280700C02F3
:1043B4008070CC01AC6C100000000001FC700C009B
:1043C400000C0002802A0401AC500001AC700C0106
:1043D400AC70CC01AC60000000000001FC700C006B
:1043E400000C0001E02A0400FE400000F030470108
:1043F4007D70CC00000A040000000000F07047004B
:10440400000C0001E02A0401AC500000F030470128
:10441400E070CC00000A040000000000F0704700C7
:10442400000C0001AC600001AC500001E0700C0114
:104434000D800001AC6C100000000001E0700C0065
:10444400F0800001E02A0400FE400000F030470044
:104454000004F400000A040000000000F0704700AB
:1044640000040000000A0401AC500001E0700C00DC
:10447400000C1000000A040000000001E0700C00B1
:10448400000000017D2A0401AC500000F030470117
:104494007D800000000A040000000000F070470066
:1044A40000000001AC600001AC500001E0700C00A1
:1044B40000040001AC6C1000000000017D700C00D1
:1044C40000040001E02A0401AC50000140700C011A
:1044D400AC800000000A0400000000017D700C00A4
:1044E400000000021A2A0400FE4000010D304701BA
:1044F40068800000000A0400000000010D704700FD
:1045040000000000000A0401AC5000021A700C0004
:10451400000C1000000A040000000001AC700C0143
:10452400AC800001AC600001AC50000168700C006C
:1045340000000001AC6C100000000001AC700C0025
:10454400000C10021A2A0400FE4000010D3047013D
:104554007D800000000A0400000000010D70470087
:1045640000000000000A0401AC5000021A700C00A4
:10457400000C1000000A0400000000021A700C0174
:10458400688000021A2A0401AC5000010D30470073
:1045940000000000000A0400000000010D70470044
:1045A400000C1001AC600001AC5000021A700C0148
:1045B4000D800001AC6C100000000001AC700C0018
:1045C400000000021A2A0401AC50000168700C00BB
:1045D400000C1000000A040000000001AC700C0084
:1045E400000000023A2A0400FE4000011D30370199
:1045F400AC800000000A0400000000011D703701B7
:104604007D8000023A2A0401AC5000011D303700BD
:1046140000040000000A0400000000011D703700BF
:1046240000040001AC600001AC5000023A700C00C0
:1046340000040001AC6C1000000000023A700C0091
:10464400000400023A2A0400FE4000011D30370035
:10465400000C2000000A0400000000011D70370057
:1046640000000000000A0401AC5000023A700C0182
:104674007D8C2000000A0400000000023A700C0047
:1046840000000001E02A0401AC5000011D30370194
:10469400E0800000000A0400000000011D703700E3
:1046A40000000001AC600001AC5000023A700C0044
:1046B40000040001AC6C100000000001E0700C006C
:1046C400000400023A2A0401AC5000017D700C0180
:1046D4007D8C2000000A040000000001E0700C0042
:1046E40000000002802A0400FE4000028030CC0159
:1046F400E0800000000A0400000000023A70CC01CF
:10470400AC800000000A0400000000021A30CC0053
:1047140000040000000A040000000001E070CC0066
:1047240000040002802C3000FE4000023A30CC002D
:1047340000040000000A0800000000021A70CC0007
:1047440000040000000A0400FE4C2001E030CC000C
:10475400000C1000000A040000000001AC70CC0042
:1047640000000002802C2000FE4000021A30CC0021
:1047740000061000000A080000000001E070CC00F0
:1047840000061000000A040000000001AC30CC0058
:1047940000061000000A0401402C00017D70CC00CA
:1047A40000061001AC6C1000000A2001E030CC00BF
:1047B40000062001AC6C2000000A2001AC70CC0083
:1047C40000062001AC600000000A20017D30CC000E
:1047D40000064001AC6B0100000A20016870CC00A7
:1047E40000064002802A0400FE4F0400000C000072
:1047F400000C0000000A040000000000000000009B
:1048040000000001402A0401AC5000000000000038
:1048140000000000000A0400000000000000000086
:1048240000000001AC600000000000000000000077
:1048340000000001AC6C100000000000000000004B
:1048440000000001402A0400FE40000000000000B7
:1048540000000000000A0400000000000000000046
:1048640000000002802A0401AC5000000000000097
:1048740000000000000A0400000000000000000026
:1048840000000001402A0400FE4000000000000077
:1048940000000000000A0400000000000000000006
:1048A40000000001AC6000000000000000000000F7
:1048B40000000001AC6C10000000000000000000CB
:1048C40000000002802A0401AC5000000000000037
:1048D40000000000000A04000000000000000000C6
:1048E40000000002802A0400FE40000000000000D6
:1048F40000000000000A04000000000000000000A6
:1049040000000001402A0401AC5000000000000037
:1049140000000000000A0400000000000000000085
:1049240000000001AC600000000000000000000076
:1049340000000001AC6C100000000000000000004A
:1049440000000002D02A0400FE4000000000000025
:1049540000000000000A0400000000000000000045
:1049640000000000000A0401AC5000000000000038
:1049740000000000000A0400000000000000000025
:1049840000000000000A0400FE40000000000000D7
:1049940000000000000A0400000000000000000005
:1049A40000000001AC6000021A300C014030270105
:1049B40040222001AC6C10021A700C0140702700D8
:1049C40000022001AC600001AC500000000C0001AA
:1049D40040222001AC6C1000000D0000000000001B
:1049E40000022000000000000000000000000000A1
:1049F40000000000000000000000000000000000B3
:104A040000000000000000000000000000000000A2
:104A14000000000000000000000000000000000092
:104A24000000000000000000000000000000000082
:104A34000000000000000000000000000000000072
:104A44000000000000000000000000000000000062
:104A54000000000000000000000000000000000052
:104A64000000000000000000000000000000000042
:104A74000000000000000000000000000000000032
:104A84000000000000000000000000000000000022
:104A94000000000000000000000000000000000012
:104AA4000000000000000000000000000000000002
:104AB40000000000000000000000000000000000F2
:104AC40000000000000000000000000000000000E2
:104AD40000000000000000000000000000000000D2
:104AE40000000000000000000000000000000000C2
:104AF40000000000000000000000000000000000B2
:104B040000000000000000000000000000000000A1
:104B14000000000000000000000000000000000091
:104B24000000000000000000000000000000000081
:104B34000000000000000000000000000000000071
:104B44000000000000000000000000000000000061
:104B54000000000000000000000000000000000051
:104B64000000000000000000000000000000000041
:104B74000000000000000000000000000000000031
:104B84000000000000000000000000000000000021
:104B94000000000000000000000000000000000011
:104BA4000000000000000000000000000000000001
:104BB40000000000000000000000000000000000F1
:104BC40000000000000000000000000000000000E1
:104BD40000000000000000000000000000000000D1
:104BE4000000000C069A9A979C9898989898989C1C
:104BF4009898989898989898989898989898989831
:104C04009898989898989898989898989898989820
:104C14009898989898989898989898989898989810
:104C2400989898989898986466666667696B6B6BB1
:104C34006C6C6D6E6E6E6E6E6E6E6E6E6E6E6E6E95
:104C44006E6E6E6E6E6E6E6E6E6E6E6C6C6B696793
:104C540064615C5A509D9797979797979797970693
:104C640001EEE6C8C52C281D100E06FFFAF5F5F571
:104C7400F5A780808080808080A4737575757575B4
:104C84007575757575757581818080808080818169
:104C940092AE1818181818181818F2D89EE2C4D62C
:104CA400E4DEF8104EFE7F5E60667F747F7F7F7F58
:104CB4007F7F7F7F7F7F7F7F7F7F7F7F7F7F7F7F00
:104CC4007F7F7F7F7F7F7F7F7F7F7F7F7F7F7F7FF0
:104CD4007F7F507F7F766A401E64ECF6B0BAE68030
:104CE400AA8A80808080808080808080808080808C
:104CF40080808080808080808080808080808080B0
:104D0400808080808080808080808080808080809F
:104D14008080808080808080808080888080808087
:104D24008E80A2EAAEF8EEE6FE062C2446307F56CC
:104D3400527F727F7F7F7F7F7F7F7F7F7F7F7F7FB9
:104D44007F7F7F7F7F7F7F7F7F7F7F7F7F7F7F7F6F
:104D54007F7F7F7F7F7F7F7F7F7F7F7F7F7F7F7F5F
:104D64007F7F7F7F7F7F7F7F7F7F7F7F7F7F7F7F4F
:104D74007F7F7F7F7F7F7F727A7E605C20403416E6
:104D840010FAE8CAE8D6C8BCB08A9A8880808080C5
:104D9400808080808080808080808080808080800F
:104DA40080808080808080808080808080808080FF
:104DB40080808080808080808080808080808080EF
:104DC40080808080808080808080808080808080DF
:104DD4008080868690A69CC0AAC8C6C8D8DAEE0091
:104DE40016F1F80BF1F40409F427EEDF00E7DF0015
:104DF4002729DFCC30F10FF4D61CF409F104E716AF
:104E0400FB35C81A13C8BA0B040000DF2035E700CD
:104E14002EE71600F80BF1F1FB02F4000000F11686
:104E2400000B0FF404F40900002737CC00E3000062
:104E3400E3BA2000F10000E71A00F8F8000000FBD4
:104E440027CCEE16E70204DF2E02F11C37F404002F
:104E5400F1000000EAF100161AF1E70200C80000B0
:104E6400E7F8D64520F10B00F4EE0000E71600E762
:104E7400F402DF37DF02F10000000FF1EE16090043
:104E8400F8E71A00001C27000000F80FC8F1000022
:104E94000B00160B1A0016F8F1F10B37D800F100CD
:104EA400370B0220F437D61CF1E7F1DFF8DF0BF102
:104EB40002EE27E727E7FB0000FBCC35DFF11316F2
:104EC400F10F13F100090404F4000016F8F8001CB3
:104ED4000F04020000EA0B00000FF42E0F0400F18F
:104EE40016DF0B0900F41C020F0002989899999997
:104EF4009999999999999999999999989898986259
:104F0400626363636365656363636363636363636A
:104F140063636363999999999A92919191918E8E11
:104F24008E8E8E8E8E8E8E8E5A5A5A5A5A6C6C6C07
:104F34006D6D6C6C6C6D6D6D6DC492949FA7B0B803
:104F4400C4CAD3DDE3ECF5FB030B1318343A414C2C
:104F5400535A63655E544E4D453C352A231A130B50
:104F640004EBE5DBD1CAC0B9B0A99F89929AA3AA80
:104F7400B3B9C4CCD5ECF5FD030B161B262E363D78
:104F8400585F68726C624E433A3028221811090245
:104F9400FDF4ECE5D0C6BFB7B0A7A1989AA3ABB611
:104FA400BEC8CFD7DEE50DEC475AF83A10042E53AD
:104FB400B7CF3446FDC435DFC9B2189CD8AB0F3A1D
:104FC400B73AB1524CD1CCB1FA36E5EF56B82D0D03
:104FD400EC2214D00DB2CF43FC360A4FD14637B978
:104FE400A3AFA7D53ABD0A0FAC2905EF9CECDDF1C0
:104FF4003F28FD37C41B0DA6BFD5DC3FB61BB0CC84
:10500400D5A4D5F42248F211629F56BD35BECF23F4
:105014004FA40FE2E404D5480F0DB6C6DB2F3622A9
:10502400C0B3FAB23CEF3A541A4056B620F2031316
:1050340039E45A1ED8DE550827ACDF40C414D1F138
:105044002D39F846ACC49DE3B256BE00CA08C41359
:105054004334E4CECCE54EB7C8B3F400565A1CAA88
:1050640000BA05CC4CC2563DBEF5055422C613D831
:10507400D802E2F440F5A3A1B8360FC623E530C840
:105084002AEC4502231B1A54FC414622D6FCAAC52D
:10509400229CE5C4A6D0BFF2E33DEAD62A4CC9025D
:1050A40021DFD80FCAD611F53F2305CF1A171ABF2F
:1050B4000034DC17000FC6B013EEA302CAECB10231
:1050C4003A343547F50F090AB3D30B2F34D3D6F24C
:1050D40011D5FCD5DDBAF217F1C5F20F023AEE0292
:1050E40022CCDC2EC0DBE3E7F5D50BD7BEF5EBD83D
:1050F400E334B82239010D0D1BD0080FDE1B22AC9E
:1051040011ABE5B2F81A2DF628D31C21C51BE8D83B
:10511400113943100329D821DE2E0DDB0153B300CE
:1051240000DCDCDCE8DCDC1F1F1F171207FFD7D60E
:10513400CCBEB9AC90FFFFFFFFFFFF48656C6C6FFE
:10514400212025640D0A000004080200000000006C
:105154000000000102030406070809000000000122
:105164000203044300232D302B2000686C4C00659F
:10517400666745464700303132333435363738397F
:1051840041424344454600303132333435363738B2
:08519400396162636465660085
:04519C008502000880
:0451A0005D020008A4
:1051A400E00C002000127A000C0000200000000037
:1051B40000000000000000000000000000000000EB
:1051C400000000000000000000000000675100081B
:1051D40000000000000000000000000000000000CB
:1051E40000000000000000000000000000000000BB
:1051F40000000000000000000000000000000000AB
:0C5204000000000000000000000000009E
:040000050800263990
:00000001FF
